:020000040000FA
:20000000FBC0000023C1000021C100001FC100001DC100001BC1000019C1000017C1000013
:2000200015C1000013C100000C94F62B0C94732C0DC100000BC1000009C1000007C10000EA
:2000400005C1000003C1000001C10000FFC00000FDC00000FBC00000F9C000000C94752B24
:20006000F5C000000C9435280C9460280C949128EDC00000EBC00000E9C00000E7C00000A5
:20008000E5C00000E3C00000E1C00000DFC00000DDC00000DBC00000C423FC23E423DD2393
:2000A00013241324BB231324BB231324BB23BB23BB231324BB23BB23012902290429082968
:2000C0001029202940298029012C022C01260226042608261026202640268026402C802CEA
:2000E0000123022304230823102320234023802301200220042008201020202040208020EA
:20010000102C202C012F022F042F082F102F202F402F802F7EFE7EFD7EFB7EF77EEF7EDF31
:200120007EBF7E7F00010000D5011200020000920143000300008E01040103090474011890
:20014000020309045C0116030309044E010C0C033100320033003400350000001603550030
:20016000530042002000530065007200690061006C00000018035400650065006E00730050
:2001800079006400750069006E006F0000000403090409024300020100C032090400000162
:2001A00002020100052400100105240100010424020605240600010705820308004009048F
:2001C0000100020A00000007050302400000070584024000001201000202000020C016835F
:2001E000047202010203010001C10201803601813600EA1A3824AF2811241FBECFEFD0E294
:20020000DEBFCDBF12E0A0E0B1E0E8E9FEE500E00BBF02C007900D92AA30B107D9F72EE0EC
:20022000AAE0B2E001C01D92A23DB207E1F710E0CCEFD0E004C02197FE010E945B2EC93FB9
:20024000D107C9F70E9400290C944A2FD9CE843310F08F7308956DE00E94DD2D2CE0829FFF
:20026000900D1124892F08950FB6F8944091C80E5091C90E6091CA0E7091CB0E0FBEFC013A
:2002800040835183628373830895CF92DF92EF92FF920F931F930FB6F8940091C80E1091BE
:2002A000C90E2091CA0E3091CB0E0FBE68017901C41AD50AE60AF70AFC01C082D182E282F0
:2002C000F3821F910F91FF90EF90DF90CF9008958091DB0A88B91EB88091D80A282F220F58
:2002E0009091D90A30E4939FC0011124822B81608EB988E281500000E9F78091DA0A811147
:2003000004C09EB181E089278EB90895FC0193E0F595E7959A95E1F7FF278770EB52F54FBA
:2003200021E030E0082E01C0220F0A94EAF7922F90952081922301C0660F8A95EAF7692BFF
:20034000608308950F931F93CF93DF9300D000D0CDB7DEB700910E0110910F012091100129
:200360003091110109831A832B833C839FE091BB9CE391500000E9F7E82FF0E00E949129C6
:20038000DE01119680E090E070E0ED91F0E09B01082E02C0359527950A94E2F72170022E17
:2003A0000E94882901968430910579F70F900F900F900F90DF91CF911F910F910895CF93FE
:2003C000C62F81FB442740F950E0FA01EB52F54F608170E0282F217030E0220F331F220F7F
:2003E000331F02C0759567952A95E2F7837090E1899FF0011124E658FE4F8081A3DF4091BA
:20040000D70A50E0ABEBB1E080E090E0EC91F0E09A01082E02C0359527950A94E2F7217066
:20042000022E0E948829019614968430910571F7CC2331F01092D50A1092D60A1092D70AB0
:20044000CF9108956F927F929F92AF92BF92CF92DF92EF92FF920F931F93CF93DF932FE0AF
:2004600021BB8C988D988E988F982CE321500000E9F7DC019096AC014C5D5F4FCAECD1E03C
:20048000E991F0E00E94842A2C9130E0220F331F61E0E11101C060E0262B2D93A417B507B6
:2004A00079F702ED11E05C0120E1A20EB11CACE39A2EB2EDCB2EB1E0DB2EF80121918F014D
:2004C00030E0F9010E949129492D41500000E9F7AEECB1E0EC016096FAECEF2EF1E0FF2EC0
:2004E000BC01ED91F0E00E94842A3F01FB01408150E0440F551FF1E0611001C0F0E04F2B60
:20050000FB014193BF01F70141917F01E42FF0E00E94842A488150E0440F551FF1E0E1114B
:2005200001C0F0E04F2B4993CA16DB06D1F6F9010E948B290496A816B90609F0BECFDF91EF
:20054000CF911F910F91FF90EF90DF90CF90BF90AF909F907F906F900895FF920F931F93C2
:20056000CF93DF93EC01F62E08811981C8010E942E2FF81621F06F2DC8010E94362FCE0151
:20058000DF91CF911F910F91FF900895CF92DF92EF92FF920F931F93CF93DF9300D0CDB7AF
:2005A000DEB76C017C0100E010E0F70161917F011A830983CE010196D0DF0F5F1F4F003137
:2005C000110599F7C6010F900F90DF91CF911F910F91FF90EF90DF90CF900895262F2F73E0
:2005E00030E043E0359527954A95E1F7820F931FFC01E05AFF4F808190E0677002C095958F
:2006000087956A95E2F781700895FC01E058FF4F20813181FC01E20FF11D40814F3F31F016
:20062000FC01E20FF31F80818074089580E00895262F30E035952795820F931FFC01E05CC4
:20064000FF4F808190E0462F417050E0440F551F440F551F02C0959587954A95E2F78F7038
:2006600008959F92AF92BF92CF92DF92EF92FF920F931F93CF93DF936350623008F44AC0C3
:20068000FC01E158FF4F908021E0291508F042C0C42F8C013396A080B1806A2DC9DF882309
:2006A000C9F1F801EB57FF4FD081D11133C0E92CF12CC7FD05C0670181E0C81AD10803C0CF
:2006C000CC24C394D12CC5018C0D9D1DB7010E94F62DC82FB12C6C2FC801AADF8823D9F00B
:2006E0006C2F70E0813059F4F801E60FF71F80818F3F89F0D82FDD1FDD27DD1F0CC0CB012A
:200700008C0D9D1DB7010E94F62DC82FB3949B10E2CF01C0D0E08D2FDF91CF911F910F9122
:20072000FF90EF90DF90CF90BF90AF909F9008959F92AF92BF92CF92DF92EF92FF920F933A
:200740001F93CF93DF93EC01162FFC01EE57FF4FC080D1806C2D6CDFFE01823051F5E158AC
:20076000FF4F17FD05C0008110E00150110902C001E010E0E080AE2CB12CC00ED11EFF24EC
:20078000F394FE1480F5C601B5010E94F62D982E682FCE014DDF882331F1C00ED11E813076
:2007A00031F4C90DD11D88818F3F81F41CC0F394E8CFE058FF4F80819181FE01E80FF11D4D
:2007C00020812F3F81F0C80FD91F88818F73DF91CF911F910F91FF90EF90DF90CF90BF9074
:2007E000AF909F9034CD8CE0DF91CF911F910F91FF90EF90DF90CF90BF90AF909F900895C8
:20080000BF92CF92DF92EF92FF920F931F93CF93DF93EC01FC01EE57FF4F00811181602F5C
:2008200007DFFE01823019F5E158FF4FE080CE2CD12C0C0D1D1D01501109FF24F394FE14BB
:2008400070F5C801B6010E940A2EB82E682FCE01EFDE882321F101501109813031F4CB0DEA
:20086000D11D88818F3F81F41AC0F394E8CFE058FF4F80819181FE01E80FF11D20812F3F7A
:2008800071F0C80FD91F88818F73DF91CF911F910F91FF90EF90DF90CF90BF90D8CC8CE0C2
:2008A000DF91CF911F910F91FF90EF90DF90CF90BF900895FC01EE57FF4F6081B9CE6F9257
:2008C0007F928F929F92AF92BF92CF92DF92EF92FF920F931F93CF93DF93CDB7DEB7C054EA
:2008E000D1090FB6F894DEBF0FBECDBF7C01762EFC01EE57FF4F80818F73982E682FC701FE
:2009000097DE21E0721201C020E091E0813009F090E029139FC0F701E158FF4F808057011F
:20092000670100E010E00815F9F0091521F0602FC7017EDE01C0872D813089F491E0910FE3
:20094000E12FF0E0D6018C918F3F09F48DE021E030E02C0F3D1FE20FF31F8083192F0F5F27
:200960003FEFC31AD30ADFCF67014DE7C40ED11CD6018C91803448F4D701A80DB11D912F87
:20098000980F191711F0103418F0912C00E018C08D9121E0210FE12FF0E08F3F09F48DE057
:2009A00041E050E04C0F5D1FE40FF51F8083122FE8CF692DC7013CDE813009F40F5F939452
:2009C0009810F7CF8DE0101748F4E1E0F0E0EC0FFD1FE10FF11D80831F5FF5CF011710F4D2
:2009E000101B01C010E080E48819811708F4182F912C712C66246A949814B9F0692DC701A6
:200A000017DE813059F4E1E0F0E0EC0FFD1FE70DF11D8081D5018C93739402C0F5016082A2
:200A20009394FFEFAF1ABF0AE7CFA1E0B0E0AC0FBD1FA00FB11DF701E90DF11D80E0811740
:200A400021F09D9191938F5FFACF803408F08FE3D6018C93C05CDF4F0FB6F894DEBF0FBE63
:200A6000CDBFDF91CF911F910F91FF90EF90DF90CF90BF90AF909F908F907F906F90089567
:200A8000FC01E058FF4F20813181FC01E20FF11D40814F3F29F4FC01E20FF31F8DE08083A8
:200AA0000895DC0120E030E04DE04D93F901F595E795E80FF91FE05CFF4F10822F5F3F4F58
:200AC0002034310591F7FC01E05AFF4F9C0128593F4F1192E217F307E1F7FC01E358FF4FDF
:200AE0001082329628E0208308950F931F93CF93DF938C01FC01E158FF4FD081C0E0CD1746
:200B000039F06C2FC80194DD813021F0CF5FF7CF80E001C08C2FDF91CF911F910F91089588
:200B20006F927F928F929F92AF92BF92CF92DF92EF92FF920F931F93CF93DF938C01FC0129
:200B4000EB57FF4F10826C0180E8C80ED11CF60180818F73F82E31977080872C912CEE2481
:200B6000E394A82EB12C7E1438F4C5010196B4010E94F62DEC0110C0C5018E0D911DB40135
:200B80000E94F62DEC01682FC80152DD813011F0E394E9CFFC1649F3DD27F601D183C08353
:200BA000F801EE57FF4FD183C083DF91CF911F910F91FF90EF90DF90CF90BF90AF909F9059
:200BC0008F907F906F900895CF93DF93DC01AC57BF4F2C91EC01C058DF4FFC01EE57FF4F09
:200BE000222351F01C921982188211821082E254F10980818F7014C09C01DC01AB57BF4FD9
:200C00001C9280819181019616976C9170E00E940A2E8083918388839983682FC90108DD24
:200C200091E0811101C090E0892FDF91CF910895E62FEF73F0E0F595E795262F217030E018
:200C4000220F331F220F331F8E0F9F1FFC01E05CFF4F8FE090E0022E01C0880F0A94EAF7C6
:200C6000809590819823842F8F70482F01C0440F2A95EAF7492B408308958F929F92AF924F
:200C8000BF92CF92DF92EF92FF920F931F93CF93DF93FC01E158FF4FF080FF2009F450C0D7
:200CA000EC0110E0612FCE01C3DC823079F41F5FF112F8CFFE01E05CFF4F8081807F816088
:200CC000808388818F3F11F48DE08883FE01E05CFF4F8081982F9F70923041F4807F816086
:200CE000808388818F3F11F48DE088836E0100E010E08F2C912C8DE0E82E0F1508F5602FB3
:200D0000CE0196DC98012F5F3F4F5901811113C0C901B4010E94F62D682FCE0189DC82305D
:200D200051F441E0602FCE0183DFF60180818F3F11F4F601E0828501FFEFCF1ADF0ADDCF77
:200D4000DF91CF911F910F91FF90EF90DF90CF90BF90AF909F908F9008950F931F93CF9368
:200D6000DF9300D0CDB7DEB78C01FC01608980E190E09A838983CE010196EFDBF801618998
:200D800081E190E09A838983CE010196E6DBF801628982E190E09A838983CE010196DDDB33
:200DA0000F900F90DF91CF911F910F91089582EC9AE0D3DFE2ECFAE0618980890C94421E03
:200DC000CF92DF92EF92FF920F931F93CF93DF9300D0CDB7DEB77695762F662777956795D9
:200DE0006C017B0180E8E80EF11C8B011395E016F10661F0F60161916F01FA82E982CE011E
:200E00000196ABDBFFEFEF1AFF0AF1CF0F900F90DF91CF911F910F91FF90EF90DF90CF90BB
:200E200008952F923F924F925F926F927F928F929F92AF92BF92CF92DF92EF92FF920F9335
:200E40001F93CF93DF93CDB7DEB7C054D1090FB6F894DEBF0FBECDBF8C0142ECC42E4AE0E7
:200E6000D42EE12CF12CC7010E942E2FF60181936F01FFEFEF1AFF0A80E1E816F10499F720
:200E80004CE050E062E171E082EC9AE00E94202F892B91F04CE050E06FE171E082EC9AE06F
:200EA0000E94202F892B41F062E171E082EC9AE00E94192FF12C02C0FF24F3944CE050E011
:200EC0006FE171E082EC9AE00E94202F2C01FF2009F4D4C05801680120E8E22EF12C38E0AC
:200EE000332E370190E8690E711C4601E614F70451F0C7010E942E2FF40181934F01FFEF52
:200F0000EF1AFF0AF3CFF601E158FF4F8081811101C03082C601B1DE86E8C80ED11C73017E
:200F200090E8691698E07906E1F680E190E00E942E2FF82E81E190E00E942E2FE82E82E1AC
:200F400090E00E942E2FE0E1EF1510F4FF24F394F092D20A91E0E11001C090E09093D30ABE
:200F6000853008F080E08093D40AF801E05AF74F8081F80196E8899FE00DF11D1124E859E9
:200F8000FF4F8081F801EC59F74F853010F4808301C01082452809F0A6C07801C12CD12C40
:200FA0008DE0382E96E8292E80E4F701DE01119601900D928A95E1F780E090E0F701E80FC1
:200FC000F91F3082019680349105C1F7512C412C3701EFE76E0E711C2C9C40012D9C900C3F
:200FE0001124800E911EF30180815816C0F4652DC7011EDB813089F4FFE3F41568F0E1E0E3
:20100000F0E0EC0FFD1FE40DF11D80818F3F21F0F401E50DF11D808343945394E4CFC701D9
:201020002CDE8FEFC81AD80A96E8E90EF11CE0E1CE16D10409F0B8CF62E171E082EC9AE06C
:201040000E94192F82EC9AE0A1DA81E0F801E459F74F8083E12CF12CB701C501B1DEFFEF3E
:20106000EF1AFF0A86E8A80EB11C90E1E916F10499F7F801E459F74F108235C0E12CF12C4B
:20108000C8018E0D9F1D0DDDE6E8EE0EF11CF0E6EF16F8E0FF06A1F7FF24F394F092D20A17
:2010A000F092D30A62E171E082EC9AE00E94192F82EC9AE06BDA82EC9AE04FDEF801E459F3
:2010C000F74FF0826801E12CF12CB701C60178DE8FEFE81AF80A96E8C90ED11CE0E1EE1667
:2010E000F10499F7C6CFC05CDF4F0FB6F894DEBF0FBECDBFDF91CF911F910F91FF90EF9017
:20110000DF90CF90BF90AF909F908F907F906F905F904F903F902F9008957F928F929F92BB
:20112000AF92BF92CF92DF92EF92FF920F931F93CF93DF93EC016C012CE9C21A27EFD20AD4
:20114000D6018C91FE01E05AF74F7F01811153C0808106E89E01089F200D311D1124C90148
:2011600033DD182FD7019C91FE01099FE00DF11D1124EE57FF4F20813181232B09F062C1EC
:20118000FE01E859F74F8081882341F017968C91D6018C93108281E011968C93DE01AF598C
:2011A000B74F8C91891709F44DC1D7018C939E0146E8849F200D311D1124C901D901A0582E
:2011C000BF4F11961C921E92129611961C921E92129621E02C9311962C935D973C91D601E9
:2011E0003C931082FE01EB59F74F208331961082EBDC182F27C1813039F0823041F4FE0153
:20120000EB59F74F708005C077247A9402C077247394F7019081A92EB12C8E01F6E89F9F1A
:20122000000D111D1124F801EC57FF4F9081992361F0108234971182108232961182108227
:20124000E254F10980818F70A0C0F801EB57FF4F10828230C1F018F4813039F06EC08330B9
:20126000B9F1843009F443C068C0F801EE57FF4F80819181181619060CF1D801A158BF4F1F
:201280008C9190E01BC0F801EE57FF4FAE014B59574FDA018C9120813181280F311D87FD0D
:2012A0003A953183208301581F4FD8018C9190E0281739072CF02FEFDA012C93019752C0DE
:2012C00037FF52C081E0DA018C93118210824CC0F801E158FF4F608170E080E090E00E9417
:2012E000E828F801EE57FF4F718360833DC062E070E080E090E00E94E828F801EE57FF4FDE
:201300004F013397672B682B692B51F0608170E080E090E00E94E828D4016D937C9324C03E
:20132000D4018D919C91119701968D939C93608170E00E940A2EF40115C086E88A9D900104
:201340008B9D300D11242C0F3D1FF901EE57FF4F808191810196D901A158BF4F6C9170E0F7
:201360000E940A2E9183808326E82A9DC0012B9D900D11248C0F9D1FFC01EE57FF4F608184
:20138000218132976083218353D911E0811101C010E0D6018C91813039F0823039F4FE014F
:2013A000EB59F74F208103C02FEF01C021E0FE01EA59F74F80818F5F8083D7019C91DE0101
:2013C00036E8939FA00DB11D1124A158BF4F3C918317D8F1108232968081882361F0DE01A0
:2013E000A959B74F8C91D6018C93108281E0DE01AB59B74F8C93DE01AF59B74F8C9198171E
:2014000021F1D7018C93AE01A6E88A9F400D511D1124DA01A058BF4F11961C921E921296DF
:2014200011961C921E92129631E03C9311963C935D978C91D6018C931082FE01EB59F74F87
:20144000308303C021E077247394FE01E759F74F7082112309F464C0F601B080D7018C918B
:20146000E82EF12C6E01B6E88B9FC00CD11C11248DEF8B0D8230C8F0F601E158FF4F608137
:20148000662399F0339670E08081918127FD02C0019603C0860F971F01970E94F62D682F8F
:2014A000C601C6D801E0823009F000E026E82E9DC0012F9D900D11248C0F9D1FFC01EE578A
:2014C000FF4F608171813397808190E06817790724F4C601ADD88230F1F080E096E89E9DA1
:2014E00090019F9D300D11242C0F3D1FF901E058FF4F9081F901E90FF11D908190589F37B6
:2015000020F0011103C0082F01C001E0FE01E559F74F008305C0472D6B2DC601A2D8DECF48
:20152000C359D74F81E081278883812FDF91CF911F910F91FF90EF90DF90CF90BF90AF901B
:201540009F908F907F9008959C01DC01A859B74F8C91882339F0F901E959F74F80813397D2
:2015600080831C92F901E05AF74F8081A90166E8869F400D511D1124FA01E058FF4F11821E
:201580001082329611821082329641E0408331964083F901E659F74F8FEF8083319610823D
:2015A000329640830E94B52B3196608371838283938338971082319740833496408308954F
:2015C000FC01E759F74FDC01A05AB74F2C91608136E8239F800D911D1124AAC8FC01E7590E
:2015E000F74FDC01A05AB74F2C91608136E8239F800D911D11249CD88C5D08950F931F938C
:20160000CF93DF938B01EC01CE59D74F442331F0288139812617370709F096DF1983088335
:20162000DF91CF911F910F910895CF92DF92EF92FF920F931F93CF93DF938C01EB01FC016B
:20164000E05AF74F8081C82ED12C780196E8899FE00CF11C1124C70113DAF701E058FF4F96
:20166000A081B181F701EA0FFB1F4081542F5F73852F6DE00E94DD2D9E01280F311D2430D1
:20168000310514F023E030E066E86C9DC0016D9D900D1124800F911FA80FB91F37FF02C043
:2016A00020E030E03DE0852F632F0E94DD2D329F900D1124407C492B4C93F801E459F74FDD
:2016C00081E08083DF91CF911F910F91FF90EF90DF90CF900895CF93DF93AC01962FFA01CC
:2016E000E05AF74F8081FA0126E8829FE00DF11D1124EF01CE57DF4F688179819B01359583
:201700002795A62FA170B0E0AA0FBB1FAA0FBB1FE20FF31FE05CFF4F6FE070E00A2E01C04C
:20172000660F0A94EAF7609580818623692F01C0660FAA95EAF7682B6083FA01E459F74F34
:2017400081E08083DF91CF9108959C01FC01E05AF74F8081A90166E8869F400D511D112490
:20176000CA013296208131812230310521F4FA01EE57FF4F06C02130310531F4FA01E058B3
:20178000FF4F60810C94EE0280E008959C01FC01EE59F74F80819181029749F532978081B2
:2017A000A90196E8899F400D511D1124FA01EE57FF4F8081982F9F73E92FF0E093E0F5959C
:2017C000E7959A95E1F7E40FF51FE05AFF4F482F477081E090E001C0880F4A95EAF79081CF
:2017E00089278083F901E459F74F81E080830895ADE6B1E080E0ED91F0E0E856F54F908153
:201800009F7009F08F5F91E0AA37B907A1F708958091A00A8F7059F48091A10A8F7039F49C
:201820009091A20A9F7081E019F480E0089581E00895DF92EF92FF920F931F93CF93DF93B8
:20184000F82E662339F08CE092E07FDF882311F080E066C1C0916C0A0C2F10E036E8C39FCF
:20186000E0011124C45FDD4FFE01EC57FF4F8081882361F01082CE0138D990E0FE01E0585D
:20188000FF4F91838083329691838083FF2009F47BC0CE010FD88130D9F68091A20A8F70BB
:2018A0008130F9F480916E0A90916F0A0197A9F4CE01E6D886E8809FF001819FF00D1124D5
:2018C000E45FFD4FDF01A058BF4F8D919C91E80FF91F908180E48927808381E08093780A1B
:2018E00001C080E09091A30A9F709130E9F480916E0A90916F0A0197A1F4C0916C0A26E827
:20190000C29FE0011124C45FDD4FCE01B9D8FE01E058FF4F80819181C80FD91F8881805859
:20192000888381E08093780A9091A10A9F70913031F461E070E08CE092E077DE81E090919F
:20194000A00A9F70913031F46FEF7FEF8CE092E06CDE02C08823C1F000916C0A36E8039F0F
:20196000E0011124C45FDD4FFE01E058FF4F10811F73CE010E945A04C10FD11D282F4881AD
:20198000612F802F0E94D41DAAE7B1E00CE010E0EE91F0E0E856F54F80818F70D82E81E03F
:2019A000D812B9C0602FC0916C0AFF2009F443C0D6E8DC9FC00111249C01245F3D4F7901FA
:2019C000C9015ED8F701E058FF4F0190F081E02DEE0DFF1D2081822F8F733DE0632F0E94BE
:2019E000DD2D839F000D11240F73207C202B2083D092780A00916C0AD09FE0011124C45FDA
:201A0000DD4FFE01E058FF4F10811F73CE010E945A04C10FD11D282F4881612F802F0E9464
:201A2000D41D8CE092E0DF91CF911F910F91FF90EF90DF90D3CD8091A00A8F709091A10A14
:201A40009F70882319F0911108C002C0911107C071E0882329F070E003C073E001C072E0A0
:201A60004C2F50E036E8C39FF0011124E45FFD4FDF01A058BF4F2D913C91E20FF31FA091E1
:201A8000A20AAF7081E090E011F480E090E0DC01D6E0AA0FBB1FDA95E1F7D091A30ADF700B
:201AA00081E090E011F480E090E09695982F8827979587958A2B807C962FADE07A9F900DDE
:201AC0001124892B808381E08093780AD22FDF7366E8F62EF49E8001F59E100D1124045F04
:201AE0001D4FC8010E945A04F801ED0FF11D282F40816D2F8C2F0E94D41D8CE092E06EDD83
:201B0000C82F80916C0AF89EC0011124845F9D4F07D88C2F05C00150110908F039CF98CEBC
:201B2000DF91CF911F910F91FF90EF90DF900895CF93DF93C82F662329F08CE092E005DE3D
:201B4000811166C08091A00A8F708130B9F4C11108C08CE092E0E1DA8091950A8F5F8093D1
:201B6000950A80916C0AC6E8C89FC0011124845F9D4F0E945A04D82F61E037C08091A10A6A
:201B80008F708130B9F4C11108C08CE092E0C5DA8091950A8F5F8093950A80916C0AC6E84C
:201BA000C89FC0011124845F9D4F0E945A04D82F62E01BC08091A20A8F70813049F5C11158
:201BC00008C08CE092E0A9DA8091950A8F5F8093950A80916C0AC6E8C89FC0011124845F17
:201BE0009D4F0E945A04D82F60E08CE092E073DD80916C0AC89FC00111246D2F845F9D4F35
:201C00000E945F0480916C0ADF91CF910C94AF1DDF91CF910895CF93DF938CE092E00E943B
:201C20004120C0EFD1E089910E945E2981E0C83FD807C9F7C6EDD1E089910E944D29E1E042
:201C4000C03FDE07C9F7E6E2F0E00E948B29E7E2F0E00E948B29E8E2F0E00E948B29E9E248
:201C6000F0E00E948B2988E99AE00E9422028091B90A8F7019F0E0E0F0EF09958CE092E096
:201C8000D0D86091D30A8091D20ADF91CF910C94421EFF920F931F93CF93DF93C0916C0A91
:201CA0000C2F10E086E8C89FE0011124C45FDD4FCE010E945A04813009F09EC0FE01E058B1
:201CC000FF4F80819181FE01E80FF11D20812F3F09F492C0FE01E80FF91F80818F7390E0C0
:201CE0006DE070E00E940A2EF82E880F991FFC01ED5AFE4F61E0808191810E948601CE011B
:201D00000E94050361E0811101C060E08AE090E00E94860126E8209FC001219F900D112422
:201D2000845F9D4FFC01E058FF4F2081FC01E20FF11D60816F3F21F0661F6627661F01C0BC
:201D400060E08BE090E00E94860126E8209FC001219F900D1124845F9D4FFC01E058FF4FCD
:201D60002081FC01E20FF11D80818F3F51F0CE010E9400046CE00E94DD2DC82F882339F07E
:201D800001C0C1E061E0C33019F060E001C061E088E090E00E9486018CE0F81229C026E8F4
:201DA000209FC001219F900D1124845F9D4FFC01E058FF4F20813181FC01E20FF11D4081AF
:201DC0004F3F61F0FC01E20FF31F80818F7390E06DE070E00E940A2E613051F460E089E0BB
:201DE00090E0DF91CF911F910F91FF900C94860161E0C230A0F7F2CFDF91CF911F910F91F2
:201E0000FF90089580916C0A26E8829FC0011124845F9D4F0E945A0461E0813009F060E0F0
:201E200088E090E00E94860180916C0A26E8829FC0011124845F9D4F0E945A0461E0823033
:201E400009F060E089E090E00E94860180916C0A26E8829FC0011124845F9D4F0E945A04CC
:201E600061E0811160E08AE090E00E94860180916C0A26E8829FC0011124845F9D4FFC01D4
:201E8000EE57FF4F60810E94EE02682F8BE090E00C948601EF92FF920F931F93CF93DF9369
:201EA0006091C00A62FB662760F982E190E00E9486010CE211E086E3E82E81E0F82EC0E0A3
:201EC000D6E88091740A882319F08091730A02C08091700A8C1306C06091C00A62FB66271C
:201EE00060F901C061E0D8018D919D918D010E948601D701ED917D01F0E0E856F54F808184
:201F00008F70813021F5E0916C0ADE9FF0011124EC58FD4FC0838093780A9091760A9F3F8A
:201F200049F4C093700A8093710A1092720A1092740A04C0C093730A8093740AC093D40A75
:201F400082EC9AE00E94AD068C2F0E94981DCF5FC53009F0B6CFDF91CF911F910F91FF90E2
:201F6000EF900895CF92DF92EF92FF920F931F93CF93DF93EC01162F80916E0A90916F0AE4
:201F80008130910519F00297A9F158C08881882379F181E04EDC11112BC0882349F100917A
:201FA0000401E02EF12CE80EF11C20E8E216F10418F05FE7E52EF12C80916C0A36E8839FB4
:201FC000C0011124845F9D4F0E940503811103C040E5D42E02C03FE7D32E8CE092E0F0DA85
:201FE0000C5F800F8093930A6D2D8E2D0E94102150DE24C08881882301F18091A30A8F709A
:202000008130C1F48CE092E0C1DBF0906C0A26E8F29EC0011124845F9D4FFC01EE57FF4FF7
:2020200000810F73602F0E94EE02482F602F8F2D0E94B11D612F81E07BDDE4DE8091A70A7D
:202040008F70813009F045C080916C0A682F70E096E8899F90011124245F3D4FF901EC57AC
:20206000FF4F9081911189C03497408151814115510531F4329620813181232B71F47DC0DC
:202080001416150654F44150510951834083F901EE57FF4F5183408310C096E8969F9001F9
:2020A000979F300D1124245F3D4FF901E058FF4F1182108232961182108291E09093780AC1
:2020C000111107C020916E0A30916F0A21303105F1F08091A70A8F70883009F051C08881C0
:2020E00081114EC011114CC080916E0A90916F0A019709F045C01092920ADF91CF911F919B
:202100000F91FF90EF90DF90CF900C94E92026E8829FC00111249C01245F3D4F6901C90195
:202120000E945A048823A9F28CE092E057DA00910401E02EF12CE80EF11C30E8E316F10480
:2021400018F08FE7E82EF12CC6010E940503811103C020E5D22E02C09FE7D92E8CE092E0D6
:202160002FDA0C5F800F8093910A81E08093920A6D2D8E2D0E941021ACCF112309F4A2CF59
:20218000DF91CF911F910F91FF90EF90DF90CF900895AF92BF92CF92DF92EF92FF920F938E
:2021A0001F93CF93DF93EC016B017A0180916E0A90916F0A8130910521F0A8F0029769F0C0
:2021C000D3C0FA018081811164DD88818111CCC010926F0A10926E0AC7C0FA018081882313
:2021E000A1F310DEF2CF61E08091C00A8C3008F060E080916C0A877090E00E948601809164
:202200006D0A90916C0A981729F0877061E090E00E94860180916C0A90E043E095958795B7
:202220004A95E1F761E0892B09F060E08AE090E00E94860180916C0A90E033E09595879566
:202240003A95E1F761E0892B09F460E08BE090E00E948601F7018081882329F1888188232F
:2022600011F1E0916C0AC6E8CE9FF0011124E257FD4F8081918161E0877099270E9486017B
:20228000E0916C0ACE9FF0011124E257FD4F80819181992723E0959587952A95E1F761E04B
:2022A0000C960E94860108E91AE0D0E086E8A82EF80181918F018F70B82EF1E08F1330C091
:2022C000C0916C0AC87FCD0FF60180818823F9F0AC9EC0011124845F9D4F0E945105B0923F
:2022E000780A80916C0AC81307C08CE092E02CD910926F0A10926E0A40E050E0BA018DE89B
:202300009AE00E9445018C2F0E94AF1D09C0F7018081CF70C0936D0A811102C0C0936C0A4A
:20232000DF5FD83029F68091A20A8F70813059F4F701908180916C0A877080936D0A9111CB
:2023400002C080936C0A8091A30A8F70813061F4F701908180916C0A8770885F80936D0A77
:20236000911102C080936C0A0FB6F894C090C80ED090C90EE090CA0EF090CB0E0FBE809143
:202380008D0A90918E0AA0918F0AB091900AC81AD90AEA0AFB0A80916E0A90916F0A61E026
:2023A000029741F0F0E9CF16F1E0DF06E104F10408F060E080E190E00E94860180916E0A4A
:2023C00090916F0A61E0019741F080E9C81681E0D806E104F10408F060E082E190E00E944C
:2023E000860180916E0A90916F0A892B41F461E0E0E9CE16E1E0DE06E104F10408F460E0A1
:2024000083E190E00E948601F0E9CF16F1E0DF06E104F10478F461E081E190E0DF91CF9122
:202420001F910F91FF90EF90DF90CF90BF90AF900C948601DF91CF911F910F91FF90EF908D
:20244000DF90CF90BF90AF900895CF936091C00A62FB662760F982E190E00E948601C091D6
:2024600004018C2F6CE00E94DD2DE92FF0E0EE0FFF1FED5AFE4F61E0808191810E94860190
:2024800061E0CC3028F08CED8C0F8C3008F060E088E090E00E94860161E0C83108F460E068
:2024A00089E090E00E948601ADE6B1E020E03CE0ED91F0E0E856F54F80818F70813041F424
:2024C0008C2F632F0E94DD2DC22F839FC00D11242F5F2D3069F7C09304018091A00A8F7091
:2024E0008130D9F48C2F6CE00E94DD2D282F30E0882331F0253031052CF42FEF280F03C0B5
:2025000020E001C023E03CE08C2F632F0E94DD2D239F900D1124909304018091A10A8F706B
:202520008130B1F440910401842F6CE00E94DD2D833018F421E0280F01C023E03CE0842F3A
:20254000632F0E94DD2D239F900D112490930401CF9108954F925F926F927F928F929F924E
:20256000AF92BF92CF92DF92EF92FF920F931F93CF93DF9300D000D0CDB7DEB788E99AE019
:202580000E9422028091A90A8F70D82E8091A80A8F7091E009F490E09C838091B00A8F7023
:2025A00091E009F490E09B839091B90A9F70F92E1091B10A1F707090B20A0091B30A9091EF
:2025C0000B02911107C0F11005C0112319F0813009F4D1C58091B80A8F7039F46091960AAE
:2025E000662321F06091D30A01C061E06A8319829E012F5F3F4F46E95AE08CE092E00E9445
:20260000AB24E9809091960A911108C08091BB0A8F70EE24E394813009F0E12C8091A80A7F
:202620008F70883019F48A81882339F08091B80A8F708830E1F491111AC08091780A8823DE
:20264000B1F02CE0822E22E0922EA12CB12CB501C4010E94E0062FEFA21AB20A36E8830E69
:20266000911C80E1A816B10491F71092780A8091A80A8F70883021F41092800A10927E0A48
:202680008091B80A8F70813021F48CE092E00E94A40A80910B02882309F4BCC0823079F116
:2026A00018F4813041F0D7C0833009F46DC0843009F494C0D0C061E083E190E00E948601E5
:2026C0008091B00A8F70813051F480910A02882319F010920A0203C010920B02BCC08091BC
:2026E000980A8F70813019F482E080930B028091990A8F70813009F0AEC084E088C061E041
:202700008CE090E00E948601E091D20A8FEF8E0F803118F4E93040F401C0E1E0F0E0EE0FF3
:20272000FF1FEF5BFE4F05C0F0E0EE0FFF1FEF5CFE4F61E0808191810E9486018091AB0A59
:202740008F70813019F483E080930B028091B00A8F70813011F480930B020BE3A02E01E0FC
:20276000B02E01E0D501ED915D01F0E0E856F54F80818F70813021F40093D20A0E94D706E2
:202780000F5F093079F767C08091B00A8F70813011F480930B028091AB0A8F70813019F4D8
:2027A00082E080930B02ABE3AA2EA1E0BA2E09E0B2E0CB2ED501ED915D01F0E0E856F54F50
:2027C00080818F70813031F40093D20A0E94D706C0920B020F5F013169F73DC06091D30A0B
:2027E00081E0682780E190E00E9486018091B30A8F70813039F49091D30A89278093D30AA6
:202800000E94D7068091B00A8F70813021F580930B0221C0FF2039F0111105C06A81CE01BE
:202820000496A0DB18C0C090810ACC2011F032DB12C0972D9F70802F8F702C812111A0C440
:20284000112309F407C62091B20A2F70213009F09DC42093810A80910B0281112AC07AE78A
:20286000872E71E0972EA12CB12CF4019381E92FF0E0E856F54F80818F7041F0993009F07D
:20288000F8C580919F0A8F7009F4F3C5FFEFAF1ABF0A24E0820E911C30E1A316B10429F7AD
:2028A0008091A60A8F7029F061E081E190E00E94860180918C0A882351F08A81882319F0B1
:2028C0008C81811104C010928C0A0E94F820C0908C0ACC2041F08091B90A8F70883019F408
:2028E00081E080938B0A61E08091C10A0E94DF014091B10A4F704130C1F48091810A882378
:2029000019F01092810A11C080910B02813019F410920B020AC0811108C08A81482760E047
:2029200070E08CE092E00E94FE0A80910B0281116CC04091B30A4F70413019F48C81811179
:202940009DC54091B20A4F70413031F48C81882319F0112309F49DC58091B00A8F70813064
:2029600009F048C0111146C0E8E9FAE080E091919F7039F000916C0A087F080F0F3F29F4B9
:2029800024C08F5F883099F720C0A6E80A9FC0011124845F9D4F0E94510581E08093780A53
:2029A00080916C0A081308C08CE092E00E94A40A10926F0A10926E0A40E050E0BA018DE8CA
:2029C0009AE00E944501802F13C08A81882391F08C81882379F080916E0A90916F0A892BE4
:2029E00009F460C507C081E08093780A80916C0A0E94AF1D8091B10A8F70883031F41092B9
:202A0000970A10927E0A1092800AEE2041F08091C00A8F5F68E10E94DD2D9093C00A8091C4
:202A2000B80A8F7001E0883009F000E021E0813009F020E04091960A6A818E2D0E9482205D
:202A4000EE2009F4B9C08A81882309F4B5C08091760A8F5F66E00E94E92D9093760A911108
:202A6000ABC08CE092E00E948D080E94B52B60937A0A70937B0A80937C0A90937D0A609121
:202A800004018CE092E00E94272280916C0A06E8089FF0011124E257FD4F60810E94641D9D
:202AA00080918C0A882309F487C0E0916C0AF0E00E9FC0010F9F900D1124845F9D4FDC012F
:202AC000A158BF4F6C9170E013968C919B01280F311DC90101970E940A2EC82E8091B90AB5
:202AE0008F70E82E81F080918B0A90918A0A992329F0811103C062E0E62E02C0EE24E3942A
:202B000081E08093890A81E0E11001C080E080938A0A10928B0A06E80E9FC0010F9F900DB6
:202B200011244E2D6C2D845F9D4F0E941806BB24B394B092780A80916C0A089FF00111247F
:202B4000E45FFD4FEC0DF11D2E2D40816C2D0E94D41DB092880A40E050E0BA0182E89AE0D4
:202B60000E944501E0916C0A0E9FF0011124E257FD4F208131812770332781E0211531051D
:202B800009F080E08093870A232B11F09CE201C090E29093860A0E943C21E0916C0A36E881
:202BA000E39FF0011124E257FD4F8081811104C08091890A81119AC480910B028111D6C1B6
:202BC0002091A00A2F70213031F5112321F18091970AE0916C0A81118DC42093970A1092CC
:202BE000800AA6E8EA9FC0011124845F9D4FFC01E058FF4F118210823197208381E08093E8
:202C0000780A80916C0A26E8829FF0011124E557FD4F608173D78091B90A8F70813009F026
:202C2000ADC09C818A81992309F468C08111FCC080916E0A90916F0A8130910509F04CC061
:202C4000A0906C0A36E8A39EC0011124DC01A45FBD4F5D01FD01EC57FF4F8081882369F09B
:202C60001082CD010E94750590E0F501E058FF4F91838083329691838083C5010E945A0430
:202C8000813009F0D1C08CE092E00E94EE0A00910401802E912C880E911CB0E88B1691046F
:202CA00018F05FE7852E912CC5010E940503882319F04FE7E42E02C030E5E32E8CE092E024
:202CC0000E94E00A0C5F800F8093930A81E08093940A6E2D882D49C0029709F0A5C08CE0F0
:202CE00092E00E948D080E94B52B60937A0A70937B0A80937C0A90937D0A40C0811138C0DD
:202D00008CE092E00E948D088823C1F18CE092E00E94EE0A00910401A02EB12CA80EB11C05
:202D2000E0E8AE16B10418F02FE7A22EB12C80916C0AF6E88F9FC0011124845F9D4F0E948D
:202D40000503882319F09FE7E92E02C080E5E82E8CE092E00E94E00A0C5F800F8093930AC9
:202D600081E08093940A6E2D8A2D0E94102106C08CE092E00E948D088093D80A8091B90A78
:202D80008F70883009F050C01092940A0E94E9208A81811149C08C81882351F180916E0A5F
:202DA00090916F0A019721F5A0906C0A06E80A9DC00111249C01245F3D4F5901C9010E9428
:202DC0007505E82EC5010E949005E0916C0A0E9FF0011124E457FD4F2081318133278E2DBD
:202DE00090E02817390709F4A0C38A8181111CC080916E0A90916F0A0297B1F480916C0A23
:202E000026E8829FC0011124845F9D4FFC01EE57FF4F2081318133273397808190E00197AE
:202E2000281739070CF089C380910B0281119EC0F1109CC08C81882309F498C0D11096C01C
:202E400080916E0A90916F0A0297E9F48091A30A8F70813009F479C30A8101118FC3111121
:202E600004C00E94080C811189C3E0916C0A36E8E39FF0011124E557FD4F9091950A808104
:202E8000981708F080C380916E0A90916F0A019709F05CC00E94F80B182F8A81811102C02D
:202EA000112359F1682F0E94190C9A81911120C0112319F18823E1F090910401292F30E051
:202EC000280F311D2038310510F02FE730E04091A20A4F7011F06FE701C060E59052890FA6
:202EE0008093930A81E08093940A822F0E9410218A81811106C0111104C01092940A0E9461
:202F0000E9208A81811122C000916C0A86E8089F80011124045F1D4FF801EB57FF4F8081FE
:202F2000811117C0C8010E947505F801E058FF4F20813181332790E02817390751F441E0C2
:202F400060E070E08CE092E00E94FE0A8A81811111C08091940A882309F470C00E94F80BBF
:202F600081116CC01092940A0E94E9208A81882309F464C08091880A8823E1F00FB6F89461
:202F80008091C80E9091C90EA091CA0EB091CB0E0FBE4091820A5091830A6091840A709117
:202FA000850A841B950BA60BB70B4A97A105B10508F0F1C21091880A112319F08091860AD7
:202FC00008C08CE092E00E94E00A909104019C5F890F803408F08FE38093DB0AE0906C0A0A
:202FE000A6E8EA9EC0011124FC01E45FFD4F7F014091750A6091700ACF010E943103809345
:20300000DA0A0091790A0111D8C2C7010E940503882309F4DAC281E08093D90A01110BC022
:203020008091770A811106C08091760A83301CF411E001C0182F1093D80A77C08CE092E0BF
:203040000E94E00A109104011C5F180F37D5082F8091940A882319F01091930A1BC08091CC
:20306000920A882319F01091910A14C08C81882391F0D11010C080910B0281110CC0F11089
:203080000AC080916E0A90916F0A019721F40E94F80B811101E08091A30A8F7019F411D5CE
:2030A000F82E02C0FF24F394002369F18091940A811111C08091920A81110DC08C8188232B
:2030C00011F180916E0A90916F0A0197E1F40E94F80B8823C1F0F11016C080916C0AF6E821
:2030E0008F9FC0011124845F9D4FFC01E058FF4F2081FC01E20FF11D80818F3F21F0F82EB7
:20310000FF1CFF24FF1C103408F01FE31093DB0AF092DA0A8091A20A8F7011F4CCD401C008
:2031200081E08093D90A0093D80A8091B80A8F70883029F48091960A882309F42FC28091C1
:20314000C10A8F5F8093C10A0E9468010F900F900F900F90DF91CF911F910F91FF90EF9023
:20316000DF90CF90BF90AF909F908F907F906F905F904F90089580930B0280930A022ACAF9
:20318000992331F0111115C260D965CB911111C2882351F06091C00A62FB662760F980E130
:2031A00090E00E94860157CB112309F457C16091C00A62FB662760F983E190E00E94860110
:2031C000AC80A11064C0E0916C0AB6E8EB9FF0011124E557FD4F00810FB6F8944090C80EB9
:2031E0005090C90E6090CA0E7090CB0E0FBE802F90E0019761E0877099270E94860101329F
:2032000020F1E52DE170BE2E6E2F81E190E00E9486016B2D8CE090E00E948601093210F4DA
:2032200060E001C06B2D8DE090E00E948601013310F460E001C06B2D8EE090E00E94860117
:20324000093308F0AB2C6A2D1EC060E081E190E00E94860161E08CE090E00E94860161E02C
:20326000093008F460E08DE090E00E94860161E0013108F460E08EE090E00E94860161E0DC
:20328000093108F460E08FE090E00E9486018C81882309F4E4CAE0916C0A26E8E29FF001E6
:2032A0001124E557FD4F00810FB6F8948091C80E9091C90EA091CA0EB091CB0E0FBE392F48
:2032C0003170B32E802F90E0019761E0877099270E948601A090800AA11002C0013228F11B
:2032E0006B2D81E190E00E948601013210F460E001C06B2D8CE090E00E948601093210F427
:2033000060E001C06B2D8DE090E00E948601013310F460E001C06B2D8EE090E00E94860136
:20332000093308F0CB2C6C2D1EC060E081E190E00E94860161E08CE090E00E94860161E029
:20334000093008F460E08DE090E00E94860161E0013108F460E08EE090E00E94860161E0FB
:20336000093108F460E08FE090E00E9486018091A60A8F70813019F48A258093800A8091F4
:20338000800A882311F080E201C080E09091AA0A9F70913021F480937F0A90937E0A909152
:2033A000AB0A9F70913031F428E0280F20937F0A90937E0A9091A40A9F70913031F420E178
:2033C000280F20937F0A90937E0A9091A50A9F70913029F4885E80937F0A90937E0AEBE317
:2033E000AE2EE1E0BE2E01E0F6E8CF2E99249394D501ED915D01F0E0E856F54F80818F70A0
:20340000813021F590917E0A992319F090917F0A01C090E0900FE0916C0ACE9EF001112484
:20342000E45FFD4F992321F0892F913408F080E4E158FF4F80839092780A80916C0AC89E3C
:20344000F0011124E557FD4F608158D30F5F093079F601CA911198CE81119CCEAE014E5F71
:203460005F4FBE016D5F7F4FCE0104960E94C910F2C961E0C5010E94860108CA8A8148272A
:2034800062E070E08CE092E00E94FE0A1092950A58CA8A81482761E070E08CE092E00E9424
:2034A000FE0A5ACA81E08C2580938C0A811102C09FD6A0CA10928A0A1092890AA0906C0AE1
:2034C000B6E8AB9EC0011124FC01E45FFD4F5F01E158FF4FC08000E00C1509F484CA40E0F0
:2034E000602FC5010E9418060F5FF6CF10928C0A7FD662CB2E2F30E0B6E8EB9FF00111240F
:20350000E557FD4F8081803410F48F5F01C080E496E8929FF001939FF00D1124E557FD4FCB
:20352000813408F080E4808369CB41E060E070E08CE092E00E94FE0A58CC41E060E070E035
:203540008CE092E00E94FE0A6FCC8CE092E00E94C60BE0906C0A36E8E39EC0011124845FF9
:203560009D4FFC01EE57FF4F00810F73602F0E94EE02482F602F8E2DF4D26ECC602F802FAC
:203580000E94980D80CC41E060E070E08CE092E00E94FE0A78CC1092880A0CCD1092D80A8A
:2035A0008CE092E00E94A40A60E080916C0A8CD2C6CD882309F4FBCDEDCD112319F08091AD
:2035C000870A2ACD1092D90A36CD1111F8CF1092D90A26CD81E08093D20A8093D30A109298
:2035E000D40A8DE89AE00E94340182E89AE00E943401EBE8F2E020E191E0208381E0968338
:20360000EA57FF4F3AE0EB3EF307B9F710926C0A10926D0A10926F0A10926E0A1092700AAC
:203620008093710A1092720A1092730A1092740A8093750A8FEF8093760A1092770A109237
:20364000780A1092790A10927A0A10927B0A10927C0A10927D0A08958091FC0C811101C01C
:2036600081E008954091FA0A5091FB0A9A012F5F3F4F211592E0390710F020E030E06091F1
:20368000F80A7091F90A2617370751F0FA01E450F54F80833093FB0A2093FA0A81E0089575
:2036A00080E008954091E50AEEEEFAE090E0941731F12191281321C0E42FF0E03197292F89
:2036C00030E02E173F07ACF4B9016F5F7F4FDB01A251B54F8C91D901A251B54F8C93DB019D
:2036E000AA51B54F8C91D901AA51B54F8C939F5FE6CF41504093E50A08959F5FD8CF0895D1
:20370000EF92FF920F931F93CF93DF937C018B0180EFA8DF882399F0E7010E0D1F1DC01726
:20372000D10729F089919EDF8111F9CF08C087EFDF91CF911F910F91FF90EF9093CF80E079
:20374000DF91CF911F910F91FF90EF900895CF93DF9300D01F92CDB7DEB79DE7998394E11B
:203760009A838B8363E070E0CE010196C9DF0F900F900F90DF91CF910895AF92BF92CF9240
:20378000DF92EF92FF920F931F93CF93DF93CDB7DEB7C851D1400FB6F894DEBF0FBECDBFF4
:2037A000E091FE0CF091FF0C309709F47CC08F7066E8869FE00DF11D112490E8DE01A7560C
:2037C000BF4F01900D929A95E1F79E0127563F4FAE01475E5E4FF90190E0619196274E177B
:2037E0005F07D9F74DE7498341E14A838B83892F8F778C83991F9927991F9D8340E050E029
:20380000E0E8F0E087E001E010E0D90160E070E090E0FD90F7FE07C07801062E01C0EE0C4D
:203820000A94EAF79E296F5F7F4F681790F37A017FEFE71AF70AA6E0B0E0AC0FBD1FA40F59
:20384000B51F9C93DA011696AA24A394B12CAC0EBD1EAA0EBB1E690190E0D6016D916D01B9
:203860006F77D5016D935D019F5F8913F6CF8150682F70E04E5F5F4F460F571F6E0D7F1DDA
:203880003797295F3F4FEB3FBFEFFB0739F0E730F10510F48E2FB9CF87E0B7CF6A5F7F4F67
:2038A000CE0101962DDFC85EDE4F0FB6F894DEBF0FBECDBFDF91CF911F910F91FF90EF90CE
:2038C000DF90CF90BF90AF9008958091F70A8823B9F02091F80A3091F90A8091FA0A9091DC
:2038E000FB0A2817390761F48091F60A803118F01092F70A089591E0980F9093F60A3DCF9E
:2039000008956F927F928F929F92AF92BF92CF92DF92EF92FF920F931F93CF93DF93FC010B
:20392000E05AF74FE080F12C349620812350223008F461C026E82E9DE0012F9DD00D1124A5
:20394000C80FD91FFE01E158FF4F608021E0261508F051C08C013396C080D1806C2DCE019E
:203960000E941803882309F446C0FE01EB57FF4F7080711040C0F801E759F74F8081A62C8A
:20398000B12C87FD05C0450181E0881A910803C088248394912CC601880D991DB5010E9472
:2039A000F62DD82EC12C6D2DCE010E941803882319F16D2D70E0813099F426E82E9DC00154
:2039C0002F9D900D1124080F191FF801E60FF71F80818F3F89F0782E771C7724771C0CC07B
:2039E000CB01880D991DB5010E94F62DD82EC3946C10D9CF01C0712C872DDF91CF911F9122
:203A00000F91FF90EF90DF90CF90BF90AF909F908F907F906F900895CF93DF93FC012CEDB9
:203A2000260F213308F044C0822F6CE00E94DD2D843009F483E09CE0899F201911242D30D5
:203A400008F02CE09DE0899F200D1124443610F460E001C060E4DF01A05AB74F8C91A82FC4
:203A6000B0E0AF0196E8899F400D511D1124EA01C058DF4F88818F7390E0EA01C80FD91F0A
:203A800038813F3F11F0307801C030E076E87A9FA0017B9F500D11244E0F5F1FDA01A80F44
:203AA000B91F262B232B2C93E459F74F81E08083DF91CF9108958091E40A08958091E30AE2
:203AC00008958091E20A0895CF93DF9300D000D0CDB7DEB79DE7998395E19A838F708B83E2
:203AE0006F736C8364E070E0CE01019609DE0F900F900F900F90DF91CF910895CF93DF9357
:203B000000D000D0CDB7DEB79DE7998398E19A838F708B836F736C8364E070E0CE010196DE
:203B2000EFDD0F900F900F900F90DF91CF910895CF93DF9300D01F92CDB7DEB79DE79983C2
:203B400097E19A8387708B8363E070E0CE010196D7DD0F900F900F90DF91CF9108958F70D5
:203B60000CCECF93DF9300D000D01F92CDB7DEB7FE01319695E0DF011D929A95E9F79DE7D0
:203B8000998399E19A838F708B836F736C834D8365E070E0CF01B4DD0F900F900F900F9052
:203BA0000F90DF91CF910895CF93DF93CDB7DEB727970FB6F894DEBF0FBECDBFFE01319641
:203BC00097E0DF011D929A95E9F79DE7998396E19A838F708B836F736C83842F8F778D83F5
:203BE000441F4427441F4E832F702F8367E070E0CF0186DD27960FB6F894DEBF0FBECDBFA4
:203C0000DF91CF9108951F93CF93DF93EC01162FEAA5FBA54FEF60E470E0808191810E94C9
:203C2000FC271CA71EA61DA61DAA1CAA1BAA1AAA8FEF9FEF9FAB8EAB99AF88AF0FB6F894A2
:203C40008091C80E9091C90EA091CA0EB091CB0E0FBEFE01EE5BFE4F80839183A283B3838E
:203C6000339710821CAE1BAE1DAE1EAE3196118210828AAD8170826081608AAFDF91CF91DE
:203C80001F910895813108F081E08093FC0C60930501811102C060E001C0682F80E09DE0EF
:203CA000B2DF10923A0D08954F925F927F928F929F92AF92BF92CF92DF92EF92FF920F93A0
:203CC0001F93CF93DF93CDB7DEB7C258D1090FB6F894DEBF0FBECDBFFC016430710508F407
:203CE000B9C18081803F09F0B5C1DF01A60FB71F11978C91873F09F0ADC1AB014250510926
:203D00000091FE0C1091FF0C0115110509F4A2C14230510509F49EC181818D3709F09AC192
:203D20008281833109F4DFC028F4803151F0823159F090C1803209F4DDC0823209F4FBC01D
:203D400089C183818F70CDC04839510510F481E080C19381858140E8849F900111248481DC
:203D6000822B675071099F012A5F3F4F40E050E0E0E0F0E05A01AFEFAA1ABA0A420F531F8A
:203D8000DA018C90EE24E394F12CEC0EFD1EEE0EFF1E6901CA0CDB1CA501412C512C912CD4
:203DA000E038F10548F54617570788F64F5F5F4FD6017D906D015401042C02C0B694A79405
:203DC0000A94E2F7A0FC02C0B12C02C0A0E8BA2EB728D701BD927D013196BFEF4B1A5B0A3C
:203DE000A7E04A165104E1F6E038F10529F04617570708F4BFCFABCFFE0131965E01B1E80C
:203E0000AB0EB11C20E031912327EA15FB05D9F782139DCFC058DF4F8881C058D0408150F8
:203E2000803408F015C19F70992E8090FD0CC92ED12C7801E6E89E9FE00CF11C112480E803
:203E4000FE013196D70101900D928A95E1F7C7010E943D06F701E058FF4FD701A158BF4F93
:203E60008C9190E0208131812817390714F01182108226E82C9DC0012D9D900D1124080F6F
:203E8000191FF801EE57FF4FD801A158BF4F8C9190E0208131812817390714F011821082F6
:203EA00081E08826C1F0D694DC2CCC24D794C794860100581F4FD394C016D10661F0D70190
:203EC0006D917D01F50111830083C5010E94AD020F5F1F4FF1CF80E03ADC882009F4BAC011
:203EE000892D4BDCB7C01092F60A81E08093F70AECDCB0C03091D30AF801E859F74F808100
:203F0000882311F0319703C0F801EC59F74F2081CE01019645E0DC011D924A95E9F74DE73B
:203F2000498341E24A834091D20A4B833C832D8365E070E08BC04330510509F48BC09381D6
:203F40008481913110F49093D20A81708093D30A4430510579F185818770F801E05AF74F0C
:203F60009081F801B6E89B9FE00DF11D1124853010F4982F01C090E0E859FF4F908391E06B
:203F8000F801E459F74F908332972081D801A859B74F2F3F41F43697808331969083319634
:203FA00010821C9205C0F801E959F74F80839C938093D40A6091D20A80E190E09A83898391
:203FC0008E010F5F1F4FC8010E94AD026091D30A81E190E09A838983C8010E94AD02609188
:203FE000D40A82E190E09A838983C8010E94AD026091D30A8091D20A45DE80E0A8DB20915B
:20400000D30A8091FE0C9091FF0C009769F0FC01E859F74F3081332311F0319703C0FC0178
:20402000EC59F74F808101C080E095E0F80111929A95E9F79DE7998391E29A839091D20A86
:204040009B832C838D8365E070E0C80159DB02C082E07DDBCE57DF4F0FB6F894DEBF0FBE67
:20406000CDBFDF91CF911F910F91FF90EF90DF90CF90BF90AF909F908F907F905F904F90FF
:2040800008959093FF0C8093FE0C4FEF60E470E082E59EE0B1D760E080E09DE0B4DD1092A9
:2040A0003A0DE0E0FDE084E59EE1938B828B80EC91E2978386838EE591E295838483109260
:2040C000F90A1092F80A1092FB0A1092FA0A1092F70A0895DC018D919C91DC01ED91FC919C
:2040E0000190F081E02D09946D3F28F46A3F28F4683F39F402C06E3F20F0FC018081918124
:20410000E9CF08950F93CF93DF93411119C0C62FD82F222321F06AEF8AE29DE0E5DF00232E
:2041200021F06CEF8AE29DE0DFDFDD2349F0CC2339F068EF8AE29DE0DF91CF910F91D4CFC8
:20414000DF91CF910F910895EF92FF920F931F93CF93DF930150003108F567FF1FC0D22F53
:20416000142FC62F7C01602F6C2BFC0182A593A5B1DF612F6F77F70182A593A5ABDFCF7ED4
:20418000C03C61F06D2F6F77F70182A593A5DF91CF911F910F91FF90EF909CCFDF91CF9190
:2041A0001F910F91FF90EF9008950F93613E10F4CBDF05C0683F18F08A960F9195CF0F91DD
:2041C00008950F93022F242F462F60E8BDDF0F9108958091DF0A882351F03EDA282F40E011
:2041E0006091E00A80E09DE0ECDF1092DF0A0895CF93C091DE0ACC2349F02EDA282F40E0D2
:204200006C2F80E09DE0DDDF1092DE0ACF9108950F93022F242F462F60E996DF0F9108954D
:204220001F93CF93DF93C82F162F8091DF0A882359F0D091E00ADC1739F00EDA282F40E008
:204240006D2F80E09DE0BDDF8091DF0A882321F08091E00AC81761F0FFD9282F412F6C2F2E
:2042600080E09DE0D5DFC093E00A81E08093DF0ADF91CF911F9108951F93CF93DF938823C5
:2042800019F0CCE4DFE702C0C8E5D0E51091DE0A112339F0E1D9282F40E0612F80E09DE0F7
:2042A00090DFDAD9282F4D2F6C2F80E09DE0B0DFC093DE0ADF91CF911F9108950F931F9356
:2042C000CF93DF939091FC0C992311F0981353C09091FD0C911146C0C62FD82F1091E10A0C
:2042E000862FE0D9C1132FC04091E50A442359F150E041505109FA01E251F54F1081FA0103
:20430000EA51F54F00812D2F402F612F80E09DE07FDF2D2F40E06C2F80E09DE052DF10933F
:20432000E10A81E08093E20A8093E30A8091FE0C9091FF0C0097F9F0402F612FDF91CF919C
:204340001F910F9169CB2D2F40E06C2F80E09DE038DFC11310C01092E30A1092E20A10926B
:20436000E10A09C0282F40E080E09DE0DF91CF911F910F9126CFDF91CF911F910F91089563
:20438000FF920F931F93CF93DF93442309F459C09091FC0C992311F0981353C0D42FC62F4B
:2043A000182F8091FD0C81113AC00091E10AF090E30A862F77D98091E50A883068F4282FB7
:2043C00030E0F901E251F54FC083F901EA51F54FD0838F5F8093E50A212F4D2F6C2F80E096
:2043E0009DE0FF2069F0C01759F012DF212F40E0602F80E09DE0E5DE81E08093E20A03C0F5
:2044000007DF1092E20A81E0D43608F480E08093E40A81E08093E30AC093E10A04C0212FAD
:2044200080E09DE0F5DE8091FE0C9091FF0C009741F04D2F6C2FDF91CF911F910F91FF90F7
:20444000EBCADF91CF911F910F91FF900895AF92BF92DF92EF92FF920F931F93CF93DF931E
:204460007C01C62FF9D8182FF701E359F74F8081D090DC0A882369F0DD2009F474C0212F6F
:2044800040E06091DD0A80E09DE09BDE1092DC0A6AC0F701E05AF74F8081A82EB12C399621
:2044A0006081970146E8849F200D311D1124C9010E9498038C5DD0E0C80FD11DC038D1054F
:2044C00010F0CFE7D0E026E82A9DC0012B9D900D11248E0D9F1DFC01E058FF4F2081318119
:2044E000FC01E20FF11D40814F3F41F0FC01E20FF31F808186FF02C00FE701C000E5DD205F
:2045000039F1D090DD0A8D2D90E08C179D0759F1C701F7D9212F882369F0402F6C2F80E019
:204520009DE076DE212F40E06091DD0A80E09DE048DE0BC040E06D2D80E09DE042DE212F8D
:20454000402F6C2F80E09DE063DEC093DD0A0BC0212F402F6C2F80E09DE05ADEC093DD0A85
:2045600081E08093DC0ADF91CF911F910F91FF90EF90DF90BF90AF900895CF93DF93EC0158
:20458000E881F981309711F0CB9609958CAD823F09F494C050F5803C09F476C098F48039AD
:2045A00009F443C030F4803809F0A5C0EC81FD8163C0803A09F45EC0803B09F09CC0EA855F
:2045C000FB855AC0803E09F442C030F4803D09F092C0EE85FF855AC0803F09F45EC0813FAD
:2045E00009F089C0EC89FD8979C08A3F21F190F4863F09F479C030F4833F09F07CC0E88D5B
:20460000F98D6CC0883FA1F0893F09F074C0E8A1F9A16CC08C3FA9F088F08E3FA9F08F3F3C
:2046200009F069C0E8A5F9A561C0EE81FF8124C0EC8DFD8D5BC0EE8DFF8D58C0EAA1FBA1D5
:2046400055C0ECA1FDA152C0EEA1FFA14FC0E889F989309709F44FC06EAD6F7720E8629FFA
:20466000B00111248DAD8F77682B70528BADDF91CF910994E885F9853097E9F14EAD6DAD79
:204680008BADDF91CF910994EC85FD85309799F16DAD8BADDF91CF910994EA89FB893097B4
:2046A00051F16DAD7EAD613081E0780710F060E071E0CE01CF96DF91CF910994EE89FF89D1
:2046C0003097C9F08EAD8F7720E8829FC00111242DAD2F77822BDF91CF910994309759F050
:2046E0008DADDF91CF910994EA8DFB8D309719F0DF91CF910994DF91CF910895EF92FF9258
:204700000F931F93CF93DF93EC019AAD292F217090FF89C0892F8E7F09F485C0362F6CADF7
:2047200080E8860F8136D0F40BAD031719F021E0311120E09695923031F0933041F0913020
:2047400009F071C006C0222309F46DC002C021116AC02EAD4DADCE0128DD65C0862F90E0E9
:20476000FC01E05FF109E031F10508F05CC0E45BFF4F0C945B2ECE018A96DF91CF911F91C3
:204780000F91FF90EF90B0CC8E01015C1F4F78018DAD9EAD813021E0920710F080E091E07B
:2047A000080F191F0E151F0509F43DC0F70161917F018AA59BA58EDCF5CF1DAD63EF8AA517
:2047C0009BA588DC612F16C00EADF0E80F9F800111248DAD082B62EF8AA59BA57BDC602FC5
:2047E0006F778AA59BA576DC000F012F001F110B1195602F6F770EC08DAD877020E1829F5C
:20480000C00111241EAD1F70182B61EF8AA59BA561DC612F8AA59BA5DF91CF911F910F91EA
:20482000FF90EF9057CCDF91CF911F910F91FF90EF900895982F8F7C803849F0903D39F0C3
:2048400081E0903E31F0903C21F080E0089581E00895089587FF0AC09CE0980F923030F03E
:204860008D3F21F0803F18F4807F089580E0089582E59EE09093510E8093500EE0E0FDE082
:204880001182108213821282158214821782168211861086138612861586148617861686A0
:2048A000118A108A138A128A158A148A178A168A118E108E138E128E158E148E178E168E00
:2048C00011A210A213A212A215A214A217A216A211A610A680E59EE093A782A714A615A604
:2048E00016A613AA12AA15AA14AA8FEF9FEF97AB86AB91AF80AF83E080933A0D13AE14AED8
:2049000015AE16AE10923F0E80E091E0EFE3FDE0DF019C011D9221503040E1F71092420ECA
:204920001092430E1092440E1092450E1092460E1092470E1092480E1092490E10924A0EC3
:2049400010924B0E10924C0E10924D0E10924E0E10924F0E08952F923F924F925F926F9264
:204960008F929F92AF92BF92CF92DF92EF92FF921F93CF93DF9300D000D000D0CDB7DEB760
:204980009E838D83462E5A83498369019093FF0C8093FE0C662361F08091FD0C811108C0C6
:2049A0001092E50A1092E30A1092E20A1092E10A4092FD0CD6011C9280910501811103C0F0
:2049C000E981FA81108241100FC08091DC0A882359F00E942C1B282F40E06091DD0A80E0BD
:2049E0009DE0EFDB1092DC0A66246394EE24E394F12C90E8292E2D813E812F59374F3C83B8
:204A00002B838D809E8030EA831A37EF930A30902C0D80E1831508F4C9C1E0912A0DF091A2
:204A20002B0D80819181DC01ED91FC910084F185E02D0995892B09F4B9C180914F0E8E7FF8
:204A400080934F0EE0912A0DF0912B0D80819181DC01ED91FC910284F385E02D0995182F9A
:204A60008D3F09F4A3C18091340D9091350D009709F06AC010932F0DA0902D0D8A2DEADED2
:204A8000D9DE882351F017FD08C0A0922F0D1093300DF092350DE092340D10912F0D812F45
:204AA000D9DE813FC1F1B0F4803BE1F140F48039C9F1803AB9F1803809F059C033C0803D17
:204AC00051F118F4803C39F152C0803E59F1803F81F14DC0873F69F130F4833FE1F010F172
:204AE000863F31F044C08D3F18F08E3F08F43FC080933C0D10923B0D10923D0D10923E0D11
:204B000060923F0E1092350D1092340D1092330D1092320D2DC1E2E0F0E0F093330DE09316
:204B2000320D3CC023E030E03093330D2093320D35C0A0E0B1E0B093330DA093320D109295
:204B40002D0D80933F0D2AC017FF8CC01D3F08F059C0183F08F058C0103F09F04FC0209194
:204B60003F0D203F09F45FC0273F09F45CC080914F0E816080934F0EE091020DF091030D1F
:204B8000309709F009951092350D1092340D1092330D1092320D10922D0D08C12091340D96
:204BA0003091350D4091320D5091330D4150510924173507E0F080933C0D812F8F70BB24A5
:204BC000B394B80EB0923B0D8091300D80933D0D10923E0DF092410EE092400E1092350D31
:204BE0001092340D1092330D1092320D19C02F5F3F4F3093350D2093340DD8C0173F09F436
:204C0000AECF30C01E3F70F110933C0D10923D0D10923E0D10923B0DF092410EE092400E29
:204C200060923F0EA5C09C012F5F3F4FFC01E050F34F17AFB0EFB0933C0D20933D0D3093F7
:204C40003E0D10923B0D3093410E2093400E60923F0E1092350D1092340D1092330D109282
:204C6000320D7DC020912F0DFC01E050F34F203F11F0273F11F417AF01C017A7A090320DDD
:204C8000B090330D9501215031098217930708F469C050902F0DE0EF5E1619F0F7EF5F123C
:204CA00023C020913E0E298380EF80933E0E80933C0D10923D0D81E080933E0D10923B0DA9
:204CC00020E031E03093410E2093400E80933F0E80E09DE052DC87EF80933F0D39813093F3
:204CE000400D82E090E03FC0852DB4DD182F80933C0DA0DD882331F0852D8F708F5F8093B5
:204D00003B0D02C010923B0D8091300D80933D0D83E0A816B10419F48091310D01C080E0A1
:204D200080933E0D1092350D1092340D1092330D1092320D60923F0E103B71F038F410392B
:204D400059F0103A49F0103851F406C0103D21F0103E11F0103C19F450922D0D09C01092A7
:204D60002D0D06C001969093350D8093340D1EC080913C0D803929F480913E0D882309F4D1
:204D80005DC080913C0D8058813608F05AC080913B0D381609F455C0332009F452C0B12C03
:204DA000632D80E09DE0AADCB11014C02091F80A3091F90A8091FA0A9091FB0A281739073A
:204DC00009F46CC082E59EE090D0181619060CF449C064C080913C0D883F49F018F4803CC9
:204DE00021F115CE8A3F59F08C3F91F010CE80910501882309F40BCED6016C9208CE80912E
:204E00000501882309F403CEE981FA81608208C080910501882309F4FACDA981BA811C92EB
:204E20008D819E810E94A40AF2CD8091FC0C882371F090913B0D8913EACD09C020923C0D91
:204E4000A0CF80E09DE099DBBB24B394A9CF80913D0D8F70AB81BC818C934110D8CDF40127
:204E60008083D5CDE091F80AF091F90AE450F54F608182E59EE079D08091F80A9091F90AD8
:204E800001969093F90A8093F80A8115924008F48DCF1092F90A1092F80A88CF26960FB65F
:204EA000F894DEBF0FBECDBFDF91CF911F91FF90EF90DF90CF90BF90AF909F908F906F9039
:204EC0005F904F903F902F900C94651C5091860E4091850E852F90E0242F30E0541710F486
:204EE000805C9F4F821B930B089550915C0E40915B0E252F30E0842F90E0821B930B54175E
:204F000010F087960895019708958091860EE091850E8E1751F0EF5FE03408F0E0E0F0E029
:204F2000E957F14F808190E008958FEF9FEF08959091860E8091850E981779F09091850E15
:204F40009F5F903408F090E0E92FF0E0E957F14F80819093850E90E008958FEF9FEF089552
:204F600080915A0E8111FCCF08952091C90023FD06C021E0FC01228380E090E0089580913D
:204F800006018F3F21F080915A0E882399F090915C0E80915B0E981312C08091C80085FF9F
:204FA0000EC08FB7F8946093CE0091E090935A0E8FBF1DC0E0910601F0E0ADD1E8CF8091DB
:204FC0005C0E8F5F8832B0F490915B0E9817E1F3E82FF0E0E35AF14F608391E090935A0ECB
:204FE00080935C0E8091C90080628093C90081E090E0089580E0E8CF1F93CF93DF93EB01A5
:20500000142F409306014F3F29F0842F46D1E12FF0E087D1C0FF08C0C13080E1D80720F4FE
:2050200082E08093C80004C01092C800D695C7952197D093CD00C093CC008091C90083FDDD
:2050400010C01092860E1092850E10925C0E10925B0E10925A0E86E08093CA0088ED809329
:20506000C900DF91CF911F9108951F920F920FB60F9211240BB60F922F938F939F93EF9363
:20508000FF939091CE008091860E8F5F803408F080E02091850E821739F0E82FF0E0E957C3
:2050A000F14F90838093860EFF91EF919F918F912F910F900BBE0F900FBE0F901F90189507
:2050C0001F920F920FB60F9211240BB60F928F939F93EF93FF9390915C0E80915B0E981369
:2050E00006C08091C9008F7D8093C9000FC080915B0E8F5F883208F080E0E82FF0E0E35ABB
:20510000F14F90819093CE0080935B0EFF91EF919F918F910F900BBE0F900FBE0F901F904F
:2051200018951F920F920FB60F9211240BB60F928F93EF93FF9310925A0E809106018F3F4D
:2051400021F0E0910601F0E0ECD0FF91EF918F910F900BBE0F900FBE0F901F901895E2E574
:20516000FEE0128288EE93E0A0E0B0E083839483A583B68317828CEF91E09183808308950D
:20518000CF92DF92EF92FF920F931F93CF93DF936C01EB017B01E40EF51E00E010E0CE1576
:2051A000DF0561F06991D601ED91FC910190F081E02DC6010995080F191FF1CFC801DF9122
:2051C000CF911F910F91FF90EF90DF90CF900895CF92DF92EF92FF926115710581059105BA
:2051E00039F06B017C01D1D5A701960148D503C060E070E0CB01FF90EF90DF90CF90089503
:2052000026D00E940B0E0E94AA12FDCF1DBA109268001CBC10BE1FBA10927A0010926E0027
:2052200010926F0010927000109271001092C9001092BC0011B814B817B81AB81DB810BA9A
:2052400012B815B818B81BB81EB811BA0895F894E1E6F0E020E82083108283E084BD85BD90
:20526000EEE6F0E080818160808391E09093800082E0809381009093B0008093B1009093E1
:2052800090008093910086E880937A0020937B0010927E0089D2789408958E3270F4E8EB96
:2052A000F0E0880FE80FF11D2591E491F0E09FB7F8948181822B81839FBF08958E3238F50A
:2052C0009AED980F983048F4E4E1F1E0990FE90FF11DA591B0E0959103C09FEFA0E0B0E00B
:2052E000E8EBF0E0880FE80FF11D2591E491F0E04FB7F8943181822F8095232F2823218329
:20530000228182238283EC919E239C934FBF0895002039F000C0EE3250F4EE0FE856F64D3D
:205320000994EE3220F4EE0FEC50F64D09940895589AB6C0599AD0C05A9A08955B9A0895D8
:205340005C9A08955D9A08955E9A08955F9A0895709A0895719A0895409A0895419A0895BD
:20536000429A0895439A0895449AC8C0459AC0C0469AB8C0479A0895769A0895779A089544
:20538000289A0895299A08952A9A08952B9A08952C9A9CC02D9A88C02E9A8CC02F9A90C02D
:2053A000109A0895119A0895129A0895139A0895149A0895159A0895169A0895179A089599
:2053C000749A0895759A0895889A0895899A08958A9A08958B9A08958C9A08958D9A0895ED
:2053E0008E9A08958F9A089558985AC0599874C05A9808955B9808955C9808955D980895B1
:205400005E9808955F98089570980895719808954098089541980895429808954398089540
:2054200044986CC0459864C046985CC04798089576980895779808952898089529980895DB
:205440002A9808952B9808952C9840C02D982CC02E9830C02F9834C010980895119808951C
:20546000129808951398089514980895159808951698089517980895749808957598089520
:2054800088980895899808958A9808958B9808958C9808958D9808958E9808958F98089508
:2054A000E4B5EF7DE4BD0895E0918000EF77E09380000895E0918000EF7DE09380000895D5
:2054C000E0918000E77FE09380000895E091B000EF77E093B0000895E091B000EF7DE0939E
:2054E000B0000895E0919000EF77E09390000895E0919000EF7DE09390000895E09190004A
:20550000E77FE09390000895EE3258F4EE0FEE0FFF27EC3718F4EB56F54D0994E956F54D29
:205520000994EE270895E1E00895E9B1E170D9F70895E9B1E270B9F70895E9B1E47099F7AF
:205540000895E9B1E87079F70895E9B1E07159F70895E9B1E07239F70895E9B1E07419F720
:205560000895E9B1E078F9F60895ECB1E170D9F60895ECB1E270B9F60895E6B1E17099F604
:205580000895E6B1E27079F60895E6B1E47059F60895E6B1E87039F60895E6B1E07119F6F0
:2055A0000895E6B1E072E9F50895E6B1E074C9F50895E6B1E078A9F50895ECB1E07489F50B
:2055C0000895ECB1E07869F50895E3B1E17049F50895E3B1E27029F50895E3B1E47009F5F7
:2055E0000895E3B1E870E9F40895E3B1E071C9F40895E3B1E072A9F40895E3B1E07489F4E4
:205600000895E3B1E07869F40895E0B1E17049F40895E0B1E27029F40895E0B1E47009F4CC
:205620000895E1E00895E0B1E870D9F70895E0B1E071B9F70895E0B1E07299F70895E0B149
:20564000E07479F70895E0B1E07859F70895ECB1E07139F70895ECB1E07219F70895EFB11C
:20566000E170F9F60895EFB1E270D9F60895EFB1E470B9F60895EFB1E87099F60895EFB1EB
:20568000E07179F60895EFB1E07259F60895EFB1E07439F60895EFB1E07819F60895F894DF
:2056A00084B7877F84BF809160008061809360001092600080E29EE40197F1F781E08093C7
:2056C000E00080E28093D80080E69AEE0197F1F79DDD0C9400FEFFCFF89498DD80E69AEE5A
:2056E0000197F1F70C940000FFCF8F938FB78F938091C70E8D5F8D37D0F48093C70E8091DF
:20570000C80E8F5F8093C80ED8F08091C90E8F4F8093C90EA8F08091CA0E8F4F8093CA0E1A
:2057200078F08091CB0E8F4F8093CB0E09C08D578093C70E8091C80E8E5F8093C80E28F7DC
:205740008091CC0E8C5F8093CC0E58F08091CD0E8F4F8093CD0E28F08091CE0E8F4F809390
:20576000CE0E8F918FBF8F9118950FB6F89466B515B27091CC0E8091CD0E9091CE0E0FBE4E
:2057800010FE05C06F3F19F07C5F8F4F9F4F11240024660F001C660F001C70290895809116
:2057A000E80080FFFCCF08958091D80087FF02C085FF1BC081E88093D70080EA8093D800E2
:2057C00086E189BD09B400FEFDCF80E98093D8001092E0001092D40E1092D30E1092D20E36
:2057E0001092E1008DE08093E20008951F920F920FB60F9211240BB60F922F933F934F9362
:205800005F936F937F938F939F93AF93BF93EF93FF939091E1001092E10093FF11C01092FC
:20582000E90081E08093EB001092EC0082E28093ED0088E08093F0001092D40E1092D20EBD
:2058400092FF1DC08091D40E8823C9F08091D10E882359F081508093D10E811106C084E020
:205860008093E9008AE38093E8008091D00E882331F081508093D00E811101C010DF90FF76
:205880000CC080E18093E2001092D40E81E08093D30E80EA8093D80019BC8091D30E882346
:2058A00079F094FF0DC086E189BD09B400FEFDCF80E98093D8008DE08093E2001092D30EB2
:2058C000FF91EF91BF91AF919F918F917F916F915F914F913F912F910F900BBE0F900FBE94
:2058E0000F901F9018951F920F920FB60F9211240BB60F92EF92FF920F931F932F933F9364
:205900004F935F936F937F938F939F93AF93BF93CF93EF93FF931092E9008091E80083FF3B
:2059200031C1C091F1008091F1000091F1001091F100E090F100F090F1004091F1005091A8
:20594000F10092EF9093E800863009F03FC086E0E4E2F1E0259135910217130711F03596A4
:2059600015C025913591E216F30611F033960EC02591359184914F3F510519F010F04FEF91
:2059800050E0481708F4842F5EEF08C0815011F7F9C0891B5093E8008823A9F09091E80066
:2059A000492F4570D9F392FDF0C0982F813208F090E2492F442369F3F90125912093F1003C
:2059C0009F014150F7CF903249F3DFC0853041F48EEF8093E800E3DE00680093E300D5C09D
:2059E000893001F5C111CEC00093D40E1092D20E1092D10E8EEF8093E80081E0E7EEF1E0A1
:205A00008093E90095919093EB00992331F095919093EC0095919093ED008F5F853081F7F3
:205A20008EE1ABC0883049F4C03809F0ABC0B7DE8091D40E8093F1007EC0813279F4C13A56
:205A400009F0A0C0ACDEE7E0F1E080818093F100319681E0EE30F807C1F76DC0803209F0F1
:205A600047C0C13209F08EC08091E80082FFFCCFE7E0F1E08091F1008083319681E0EE30BD
:205A8000F807C1F78BEF8093E8008EEF8093E80030910701409108018091090120910A01E8
:205AA00090E0A0E0B0E0DC0199278827942B832BB22B86389105A105B10521F48FE0809389
:205AC000D00E63C086399105A105B10509F05DC084E08093E9009FEF8091EE00837039F0F5
:205AE0009093E8008091E80082FDFCCFF5CFF4DD823231F4C13209F045C00093D20E05C0C1
:205B0000833229F4C13209F03DC049DE14C0811116C045DEC23851F4E092E9008091EB00AE
:205B200085FB882780F91092E90001C080E08093F1001092F1008EEF8093E80026C0982F55
:205B40009D7F9130F9F4C230E9F4012BD9F4CE2DCF779FEF9C0F9630A8F49EEF9093E8003F
:205B6000C093E900833071F089E18093EB0081E090E001C0880FCA95EAF78093EA00109265
:205B8000EA0003C081E28093EB00FF91EF91CF91BF91AF919F918F917F916F915F914F91C7
:205BA0003F912F911F910F91FF90EF900F900BBE0F900FBE0F901F901895991B79E004C057
:205BC000991F961708F0961B881F7A95C9F78095089587FB082E062687FD819567FD6195B7
:205BE000ECDF0EF4919507FC81950895AA1BBB1B51E107C0AA1FBB1FA617B70710F0A61B89
:205C0000B70B881F991F5A95A9F780959095BC01CD01089597FB072E16F4009406D077FDC3
:205C200008D0E4DF07FC05D03EF4909581959F4F0895709561957F4F0895A1E21A2EAA1B03
:205C4000BB1BFD010DC0AA1FBB1FEE1FFF1FA217B307E407F50720F0A21BB30BE40BF50B01
:205C6000661F771F881F991F1A9469F760957095809590959B01AC01BD01CF010895052EC1
:205C800097FB16F400940FD057FD05D0D6DF07FC02D046F408C050954095309521953F4F7D
:205CA0004F4F5F4F089590958095709561957F4F8F4F9F4F0895EE0FFF1F0024001C0BBE6B
:205CC0000790F691E02D099409D0A59F900DB49F900DA49F800D911D11240895A29FB00110
:205CE000B39FC001A39F700D811D1124911DB29F700D811D1124911D08958F929F92AF92D2
:205D0000BF92CF92DF92EF92FF92CF93DF93EC01688179818A819B8161157105810591057B
:205D200021F464E279ED8BE597E02DE133EF41E050E0A5DF49015A019B01AC01A7EAB1E4A2
:205D4000C3DF6B017C01ACEEB4EFA50194019ED0DC01CB018C0D9D1DAE1DBF1DB7FF03C0B6
:205D60000197A109B04888839983AA83BB83BC01CD019F77DF91CF91FF90EF90DF90CF900A
:205D8000BF90AF909F908F9008958F929F92AF92BF92CF92DF92EF92FF92609100017091CF
:205DA00001018091020190910301611571058105910521F464E279ED8BE597E02DE133EFC8
:205DC00041E050E05CDF49015A019B01AC01A7EAB1E47ADF6B017C01ACEEB4EFA501940169
:205DE00055D0DC01CB018C0D9D1DAE1DBF1DB7FF03C00197A109B0488093000190930101EF
:205E0000A0930201B0930301BC01CD019F77FF90EF90DF90CF90BF90AF909F908F9008950F
:205E2000609300017093010180930201909303010895FB01DC0101900D920020E1F70895F1
:205E4000FB01DC014150504030F08D910190801919F40020B9F7881B990B0895F999FECFC0
:205E600092BD81BDF89A992780B50895262FF999FECF1FBA92BD81BD20BD0FB6F894FA9A95
:205E8000F99A0FBE01960895B7FF1ECF1DDF821B930B0895F894FFCF010000000C01FF0090
:205EA000E100000000082A2B2C2D50657750657750657721213300506577506577506577CE
:205EC00021213200000001000200030004000001020304000102030405060700000100021B
:205EE000000300040005000600070000000C0001000D00020003000E0004000F0005001133
:205F000000060007000012011302030C040D050E0607262A0100262B0301262C0502262DBA
:205F20000603272A0804272B0A05272C0C06272D0D07282A0008282B0009282C000A282D64
:205F4000000B292A0212292B0413292C070C292D090D0004001B00050B0E0006001A00072C
:205F600000191415161718191A1B26272829040506070001121308090A0B0C0D0E0F1011F5
:205F80002A2B2C2D262728291415161718191A1B00000000B527C0287527B0276627982776
:025FA000852753
:020000040001F9
:20F000000C944CF80C945EF80C945EF80C945EF80C945EF80C945EF80C945EF80C945EF852
:20F020000C945EF80C945EF80C945EF80C945EF80C945EF80C945EF80C945EF80C945EF820
:20F040000C945EF80C945EF80C945EF80C945EF80C945EF80C945EF80C945EF80C945EF800
:20F060000C945EF80C945EF80C945EF80C945EF80C945EF80C945EF80C945EF80C945EF8E0
:20F080000C945EF80C945EF80C945EF80C945EF80C945EF80C945EF811241FBECFEFD0E22A
:20F0A000DEBFCDBF24E0A0E0B1E001C01D92A430B207E1F70E946BF80C940BFA0C9400F8FB
:20F0C000F8948091000090910100019619F0F0E0E0E0099408954F925F926F927F928F9202
:20F0E0009F92AF92BF92CF92DF92EF92FF920F931F93CF93DF930FB6F894A8958091600042
:20F10000886180936000109260000FBE8FEF80BB14B88AB1806F8AB91092CD008FE18093E0
:20F12000CC001092C80080E18093C90086E08093CA0011BA8FE081BB2FEF33EF41E02150D1
:20F1400030404040E1F700C00000199B4FC18BB1806F8BB984E090E061E070E05FEFA1EEB2
:20F16000B4E05150A040B040E1F700C000004BB19B01082E01C0220F0A94EAF7342F3227F7
:20F180003BB9EFEFF1EE44E0E150F0404040E1F700C000003BB132273BB95FEFA1EEB4E077
:20F1A0005150A040B040E1F700C000003BB132273BB9EFEFF1EE44E0E150F0404040E1F773
:20F1C00000C000003BB123272BB901968830910529F683E0582EC0E0D2E011E095E0B92EC9
:20F1E00001E18091C80087FFFCCF2091CE00203F39F4109303041092020410920104F1CF3F
:20F2000080910304882369F3273F09F0D5C080910104909102048230910508F4C5C0209124
:20F2200001022D3709F0C0C020910202213009F0BEC08A30910508F4B7C02091050250E8BE
:20F24000259F9001112440910602242BA901485F5F4F8417950708F4A7C0A090030260903E
:20F26000040270900702809008028BB14091000291E0940F909300028F7060E1469FA00157
:20F280001124842B8BB9912C50E040E090E080E082179307B0F0B0E17B9EC0011124882A44
:20F2A000891409F443C090EF8BB189278BB9EFEFF3EC29E0E150F0402040E1F700C00000E3
:20F2C000F3CFFC01E75FFD4FE081DC01A65FBD4F6D01BA0160507F4F7B01019670E060E044
:20F2E000F0E028173907A1F20196D6014D906D01DF01062E02C0B595A7950A94E2F7B69555
:20F30000BA2FAA27B795A7954A2AD7014D927D014F5F5F4F94244F3F510511F008F0BBCF87
:20F320006F5F7F4F67307105E1F6B2CF30E8A39EC00111248629B0E0A0E0BA2FA92F982F36
:20F3400088276FB7F894F999FECFFC01A0935B0050925700E89507B600FCFDCF20E031E016
:20F360006C017D01F901518140810A01F601E0925B0010935700E89511242E5F3F4FF2E0AD
:20F38000CF0ED11CE11CF11CC217D30759F7FC01A0935B00B0925700E89507B600FCFDCF70
:20F3A00000935700E8956FBF109203041ACF2230D9F70E9460F8F8CF27FD13CF8091010427
:20F3C000909102048115924008F00BCF8091010490910204AC014F5F5F4F509302044093CA
:20F3E00001048F5F9D4FDC012C93FBCE0E9460F890E080E0DF91CF911F910F91FF90EF90D1
:1AF40000DF90CF90BF90AF909F908F907F906F905F904F900895F894FFCF75
:040000050001F00006
:00000001FF
