:100000000EC1000036C1000034C1000032C1000042
:1000100030C100002EC100002CC100002AC1000028
:1000200028C1000026C100000C941F330C949C339F
:1000300020C100001EC100001CC100001AC1000048
:1000400018C1000016C1000014C1000012C1000058
:1000500010C100000EC100000CC100000C949E32C3
:1000600008C100000C945E2F0C94892F0C94BA2FB9
:1000700000C10000FEC00000FCC00000FAC000008B
:10008000F8C00000F6C00000F4C00000F2C000009C
:10009000F0C00000EEC000003724F2263B240F25FC
:1000A000F226F2261625F2265E257725EF25BF25B6
:1000B000F226F226F226F2262A26F2265826EB2AE5
:1000C000232B0B2B042B3A2B3A2BE22A3A2BE22A36
:1000D0003A2BE22AE22AE22A3A2BE22AE22A0129F0
:1000E0000229042908291029202940298029012CC6
:1000F000022C012602260426082610262026402649
:100100008026402C802C0123022304230823102363
:1001100020234023802301200220042008201020D7
:10012000202040208020102C202C012F022F042F73
:10013000082F102F202F402F802F7EFE7EFD7EFB6C
:100140007EF77EEF7EDF7EBF7E7F00010000FB0139
:100150001200020000B8014300030000B4010401D2
:100160000309049A01180203090482011603030912
:100170000474010C0C0331003200330034003500EC
:100180000000160355005300420020005300650094
:100190007200690061006C000000180354006500E3
:1001A00065006E00730079006400750069006E00E0
:1001B0006F0000000403090409024300020100C0AB
:1001C00032090400000102020100052400100105AB
:1001D000240100010424020605240600010705820B
:1001E0000308004009040100020A0000000705039B
:1001F00002400000070584024000001201000202D4
:10020000000020C01683047202010203010001C134
:10021000020180360181360060205F2BD82F112427
:100220001FBECFEFD0E2DEBFCDBF12E0A0E0B1E055
:10023000EAEEFCE600E00BBF02C007900D92A03191
:10024000B107D9F72EE0A0E1B2E001C01D92A93FAD
:10025000B207E1F711E0CFE0D1E004C02197FE0141
:100260000E948435CC30D107C9F70E9429300C9404
:100270007336C6CE4091170280911E02882319F072
:100280008091200201C080E028E132E061E272E06A
:100290000C947522843310F08F7308956DE00E94E2
:1002A00006352CE0829F900D1124892F08950FB6FA
:1002B000F8944091EF0E5091F00E6091F10E709114
:1002C000F20E0FBEFC014083518362837383089555
:1002D000CF92DF92EF92FF920F931F930FB6F89495
:1002E0000091EF0E1091F00E2091F10E3091F20E70
:1002F0000FBE68017901C41AD50AE60AF70AFC01A3
:10030000C082D182E282F3821F910F91FF90EF9021
:10031000DF90CF9008958091F60A88B91EB8809139
:10032000F30A282F220F9091F40A30E4939FC00122
:100330001124822B81608EB988E281500000E9F798
:100340008091F50A811104C09EB181E089278EB9A0
:100350000895FC0193E0F595E7959A95E1F7FF275D
:100360008770E051F54F21E030E0082E01C0220FE8
:100370000A94EAF7922F90952081922301C0660F8C
:100380008A95EAF7692B608308950F931F93CF93A3
:10039000DF9300D000D0CDB7DEB7009111011091EE
:1003A0001201209113013091140109831A832B83C8
:1003B0003C839FE091BB9CE391500000E9F7E82F5C
:1003C000F0E00E94BA30DE01119680E090E070E02B
:1003D000ED91F0E09B01082E02C0359527950A9417
:1003E000E2F72170022E0E94B1300196843091050F
:1003F00079F70F900F900F900F90DF91CF911F9191
:100400000F910895CF93C62F81FB442740F950E008
:10041000FA01E051F54F608170E0282F217030E043
:10042000220F331F220F331F02C0759567952A953F
:10043000E2F7837090E1899FF0011124E058FE4FAC
:100440008081A3DF4091F20A50E0A1ECB1E080E0AE
:1004500090E0EC91F0E09A01082E02C035952795C6
:100460000A94E2F72170022E0E94B1300196149690
:100470008430910571F7CC2331F01092F00A10927C
:10048000F10A1092F20ACF9108956F927F929F9293
:10049000AF92BF92CF92DF92EF92FF920F931F9392
:1004A000CF93DF932FE021BB8C988D988E988F98F7
:1004B0002CE321500000E9F7DC019096AC014C5D83
:1004C0005F4FC0EDD1E0E991F0E00E94AD312C9199
:1004D00030E0220F331F61E0E11101C060E0262B04
:1004E0002D93A417B50779F708ED11E05C0120E121
:1004F000A20EB11CACE39A2EB8EDCB2EB1E0DB2EF0
:10050000F80121918F0130E0F9010E94BA30492DA4
:1005100041500000E9F7A4EDB1E0EC016096F0ED88
:10052000EF2EF1E0FF2EBC01ED91F0E00E94AD3125
:100530003F01FB01408150E0440F551FF1E0611085
:1005400001C0F0E04F2BFB014193BF01F701419146
:100550007F01E42FF0E00E94AD31488150E0440F6C
:10056000551FF1E0E11101C0F0E04F2B4993CA168D
:10057000DB06D1F6F9010E94B4300496A816B9063C
:1005800009F0BECFDF91CF911F910F91FF90EF90B7
:10059000DF90CF90BF90AF909F907F906F90089525
:1005A000FF920F931F93CF93DF93EC01F62E0881F8
:1005B0001981C8010E945736F81621F06F2DC80125
:1005C0000E945F36CE01DF91CF911F910F91FF9076
:1005D0000895CF92DF92EF92FF920F931F93CF93E4
:1005E000DF9300D0CDB7DEB76C017C0100E010E0F6
:1005F000F70161917F011A830983CE010196D0DF53
:100600000F5F1F4F0031110599F7C6010F900F9032
:10061000DF91CF911F910F91FF90EF90DF90CF90DE
:100620000895262F2F7330E043E0359527954A959E
:10063000E1F7820F931FFC01E05AFF4F808190E0A9
:10064000677002C0959587956A95E2F78170089565
:10065000FC01E058FF4F20813181FC01E20FF11DC8
:1006600040814F3F31F0FC01E20FF31F8081807425
:10067000089580E00895262F30E035952795820F64
:10068000931FFC01E05CFF4F808190E0462F41709A
:1006900050E0440F551F440F551F02C09595879594
:1006A0004A95E2F78F7008959F92AF92BF92CF92D2
:1006B000DF92EF92FF920F931F93CF93DF936350DC
:1006C000623008F44AC0FC01E158FF4F908021E0FD
:1006D000291508F042C0C42F8C013396A080B18048
:1006E0006A2DC9DF8823C9F1F801EB57FF4FD0818C
:1006F000D11133C0E92CF12CC7FD05C0670181E0A1
:10070000C81AD10803C0CC24C394D12CC5018C0DC8
:100710009D1DB7010E941F35C82FB12C6C2FC80139
:10072000AADF8823D9F06C2F70E0813059F4F801EA
:10073000E60FF71F80818F3F89F0D82FDD1FDD275F
:10074000DD1F0CC0CB018C0D9D1DB7010E941F3514
:10075000C82FB3949B10E2CF01C0D0E08D2FDF9162
:10076000CF911F910F91FF90EF90DF90CF90BF90AE
:10077000AF909F9008959F92AF92BF92CF92DF92D9
:10078000EF92FF920F931F93CF93DF93EC01162FFD
:10079000FC01EE57FF4FC080D1806C2D6CDFFE0155
:1007A000823051F5E158FF4F17FD05C0008110E080
:1007B0000150110902C001E010E0E080AE2CB12C24
:1007C000C00ED11EFF24F394FE1480F5C601B501BE
:1007D0000E941F35982E682FCE014DDF882331F1FE
:1007E000C00ED11E813031F4C90DD11D88818F3FDB
:1007F00081F41CC0F394E8CFE058FF4F80819181D1
:10080000FE01E80FF11D20812F3F81F0C80FD91F95
:1008100088818F73DF91CF911F910F91FF90EF909F
:10082000DF90CF90BF90AF909F9034CD8CE0DF9160
:10083000CF911F910F91FF90EF90DF90CF90BF90DD
:10084000AF909F900895FC01EE57FF4F608113CF4A
:100850006F927F928F929F92AF92BF92CF92DF92D0
:10086000EF92FF920F931F93CF93DF93CDB7DEB735
:10087000C054D1090FB6F894DEBF0FBECDBF7C01C6
:10088000762EFC01EE57FF4F80818F73982E682FD4
:10089000C701F1DE21E0721201C020E091E0813059
:1008A00009F090E02913A1C0F701E158FF4F8080C3
:1008B0005701670100E010E00815F9F0091521F073
:1008C000602FC701D8DE01C0872DF60191916F011D
:1008D000813011F09F3F79F081E0810FE12FF0E04E
:1008E0009F3F09F49DE021E030E02C0F3D1FE20F17
:1008F000F31F9083182F0F5FDFCF67013DE7C30E13
:10090000D11CF6018081803448F4D701A80DB11DB7
:10091000912F980F191711F0103418F0912C00E056
:1009200018C08D9121E0210FE12FF0E08F3F09F4F5
:100930008DE041E050E04C0F5D1FE40FF51F808318
:10094000122FE8CF692DC70196DE813009F40F5FC1
:1009500093949810F7CF8DE00AC0103450F4E1E082
:10096000F0E0EC0FFD1FE10FF11D80831F5F1017FA
:10097000A0F3011710F4101B01C010E080E48819E7
:10098000811708F4182F912C712C66246A949814FE
:10099000B9F0692DC7016FDE813059F4E1E0F0E074
:1009A000EC0FFD1FE70DF11D8081F501808373942D
:1009B00002C0F50160829394FFEFAF1ABF0AE7CF40
:1009C000A1E0B0E0AC0FBD1FA00FB11DF701E90D14
:1009D000F11D80E0811721F09D9191938F5FFACFF7
:1009E000803408F08FE3F6018083C05CDF4F0FB6E0
:1009F000F894DEBF0FBECDBFDF91CF911F910F9155
:100A0000FF90EF90DF90CF90BF90AF909F908F902E
:100A10007F906F900895FC01E058FF4F2081318155
:100A2000FC01E20FF11D40814F3F29F4FC01E20F70
:100A3000F31F8DE080830895DC0120E030E04DE07D
:100A40004D93F901F595E795E80FF91FE05CFF4F2D
:100A500010822F5F3F4F2034310591F7FC01E05A9F
:100A6000FF4F9C0128593F4F11922E173F07E1F786
:100A7000FC01E759FF4F9C0127583F4F11922E1759
:100A80003F07E1F7FC01E358FF4F1082329628E060
:100A9000208308950F931F93CF93DF938C01FC0164
:100AA000E158FF4FD081C0E0CD1739F06C2FC8015D
:100AB000E2DD813021F0CF5FF7CF80E001C08C2FE5
:100AC000DF91CF911F910F910895CF93DF93FC0198
:100AD000EC57FF4F2081222369F0EC011082DADF0E
:100AE00090E0FE01E058FF4F91838083CE57DF4FA7
:100AF00099838883DF91CF910895CF93DF93DC01B1
:100B0000AC57BF4F2C91EC01C058DF4FFC01EE57A2
:100B1000FF4F222351F01C921982188211821082F9
:100B2000E254F10980818F7014C09C01DC01AB5745
:100B3000BF4F1C9280819181019616976C9170E055
:100B40000E9433358083918388839983682FC901FC
:100B500092DD91E0811101C090E0892FDF91CF916A
:100B60000895E62FEF73F0E0F595E795262F2170B5
:100B700030E0220F331F220F331F8E0F9F1FFC0107
:100B8000E05CFF4F8FE090E0022E01C0880F0A94D6
:100B9000EAF7809590819823842F8F70482F01C0A9
:100BA000440F2A95EAF7492B408308958F929F922C
:100BB000AF92BF92CF92DF92EF92FF920F931F936B
:100BC000CF93DF93FC01E158FF4FF080FF2009F441
:100BD00050C0EC0110E0612FCE014DDD823079F480
:100BE0001F5FF112F8CFFE01E05CFF4F8081807F34
:100BF0008160808388818F3F11F48DE08883FE01BE
:100C0000E05CFF4F8081982F9F70923041F4807F8D
:100C10008160808388818F3F11F48DE088836E012D
:100C200000E010E08F2C912C8DE0E82E0F1508F5D8
:100C3000602FCE0120DD98012F5F3F4F59018111B8
:100C400013C0C901B4010E941F35682FCE0113DD06
:100C5000823051F441E0602FCE0183DFF6018081C4
:100C60008F3F11F4F601E0828501FFEFCF1ADF0A12
:100C7000DDCFDF91CF911F910F91FF90EF90DF902B
:100C8000CF90BF90AF909F908F9008950F931F9338
:100C9000CF93DF9300D0CDB7DEB78C01FC01608924
:100CA00080E190E09A838983CE01019679DCF80196
:100CB000618981E190E09A838983CE01019670DC9D
:100CC000F801628982E190E09A838983CE010196DE
:100CD00067DCF801638983E190E09A838983CE0120
:100CE00001965EDC0F900F90DF91CF911F910F91D5
:100CF00008958CED9AE0CADFECEDFAE04389618952
:100D000080890C94CD23CF92DF92EF92FF920F93C4
:100D10001F93CF93DF9300D0CDB7DEB77695762FB4
:100D20006627779567956C017B0180E8E80EF11CDA
:100D30008B011395E016F10661F0F60161916F01E8
:100D4000FA82E982CE0101962BDCFFEFEF1AFF0A4F
:100D5000F1CF0F900F90DF91CF911F910F91FF90E6
:100D6000EF90DF90CF9008952F923F924F925F9235
:100D70006F927F928F929F92AF92BF92CF92DF92AB
:100D8000EF92FF920F931F93CF93DF93CDB7DEB710
:100D9000C054D1090FB6F894DEBF0FBECDBF8C0191
:100DA0004CEDC42E4AE0D42EE12CF12CC7010E9458
:100DB0005736F60181936F01FFEFEF1AFF0A80E1CA
:100DC000E816F10499F74CE050E065E171E08CED34
:100DD0009AE00E944936892B91F04CE050E062E2A3
:100DE00071E08CED9AE00E944936892B41F065E173
:100DF00071E08CED9AE00E944236F12C02C0FF2493
:100E0000F3944CE050E062E271E08CED9AE00E94D5
:100E100049362C01FF2009F4CFC05801680120E8B1
:100E2000E22EF12C38E0332E370190E8690E711C68
:100E30004601E614F70451F0C7010E945736F40149
:100E400081934F01FFEFEF1AFF0AF3CFF601E1584C
:100E5000FF4F8081811101C03082C601A7DE86E884
:100E6000C80ED11C730190E8691698E07906E1F686
:100E700080E190E00E945736E82E81E190E00E94E8
:100E80005736D82E82E190E00E945736F82E83E143
:100E900090E00E945736E0E1EE1510F4EE24E39462
:100EA000E092EC0A91E0D11001C090E09093ED0A3D
:100EB000F5E0FF1508F4F12CF092EE0A91E0813094
:100EC00009F090E09093EF0AF801EC59F74F108287
:100ED000452809F0A8C07801C12CD12C8DE0382E0E
:100EE00096E8292E80E4F701DE01119601900D921B
:100EF0008A95E1F780E090E0F701E80FF91F308272
:100F0000019680349105C1F7512C412C37018FE7B0
:100F1000680E711C2C9C40012D9C900C1124800E9D
:100F2000911EF30180815816C0F4652DC701A3DB23
:100F3000813089F4FFE3F41568F0E1E0F0E0EC0FB4
:100F4000FD1FE40DF11D80818F3F21F0F401E50DBF
:100F5000F11D808343945394E4CFC70127DE8FEFC4
:100F6000C81AD80A96E8E90EF11CE0E1CE16D104C1
:100F700009F0B8CF65E171E08CED9AE00E9442364D
:100F80008CED9AE026DB81E0F801E459F74F80838D
:100F9000E12CF12CB701C501B6DEFFEFEF1AFF0A15
:100FA00086E8A80EB11C90E1E916F10499F7F80162
:100FB000E459F74F108237C0E12CF12CC8018E0D97
:100FC0009F1D3ADDE6E8EE0EF11CF0E6EF16F8E0C4
:100FD000FF06A1F7FF24F394F092EC0AF092ED0AD9
:100FE0001092EF0A65E171E08CED9AE00E944236C2
:100FF0008CED9AE0EEDA8CED9AE048DEF801E459E7
:10100000F74FF0826801E12CF12CB701C6017BDEBD
:101010008FEFE81AF80A96E8C90ED11CE0E1EE1647
:10102000F10499F7C4CFC05CDF4F0FB6F894DEBF70
:101030000FBECDBFDF91CF911F910F91FF90EF9029
:10104000DF90CF90BF90AF909F908F907F906F90E8
:101050005F904F903F902F900895CF93DF93DC01E6
:10106000A759B74FFC01EC59F74FEC01C05AD74FC5
:1010700028814C91608136E8239F800D911D1124B9
:10108000DF91CF9111CB5F926F927F928F929F925F
:10109000AF92BF92CF92DF92EF92FF920F931F9386
:1010A000CF93DF93EC016C012CE9C21A27EFD20A2F
:1010B000D6018C91FE01E05AF74F7F0181111EC0CD
:1010C000808116E89E01189F200D311D1124C90151
:1010D00014DD982ED7012C91CE01129F800D911D09
:1010E0001124FC01EE57FF4F40815181452B09F03F
:1010F000D5C1339680818111D1C197C1813049F02A
:10110000823011F0853041F4FE01EB59F74F7080C9
:1011100005C077247A9402C077247394D7019C91F8
:10112000A92EB12C8E01B6E89B9F000D111D112434
:10113000F801EC57FF4F9081992361F010823497AA
:1011400011821082329611821082E254F10980815C
:101150008F70CFC0F801EB57FF4F1082833009F436
:1011600040C028F4813051F08230B1F09AC0843010
:1011700009F446C0853009F469C093C0F801EE5700
:10118000FF4F80819181181619060CF1D801A158E2
:10119000BF4F8C9190E01BC0F801EE57FF4FAE019E
:1011A0004B59574FDA018C9120813181280F311D25
:1011B00087FD3A953183208301581F4FD8018C91C8
:1011C00090E0281739072CF02FEFDA012C930197C4
:1011D0007DC037FF7DC081E0DA018C9311821082DF
:1011E00077C0F801E158FF4F608170E080E090E047
:1011F0000E941130F801EE57FF4F7183608368C081
:1012000062E070E080E090E00E941130F801EE575B
:10121000FF4F4F013397672B682B692B51F060818B
:1012200070E080E090E00E941130D4016D937C93D7
:101230004FC0D4018D919C91119701968D939C93F1
:10124000608170E00E943335F40140C062E070E0DC
:1012500080E090E00E941130672B682B692B11F41D
:101260002FEF01C021E0FE01EB59F74F208386E804
:101270008A9DF0018B9DF00D1124EC0FFD1FDF0105
:10128000A158BF4F6C9170E0EE57FF4F8081918164
:10129000860F971F820F911D27FD9A950E941F357B
:1012A00015C086E88A9D90018B9D300D11242C0F6E
:1012B0003D1FF901EE57FF4F808191810196D901C1
:1012C000A158BF4F6C9170E00E94333591838083A9
:1012D00026E82A9DC0012B9D900D11248C0F9D1F87
:1012E000FC01EE57FF4F608121813297608321839B
:1012F000C2D999249394811101C0912CD6012C91CB
:10130000213049F0223011F0253041F4FE01EB5933
:10131000F74F808005C088248A9402C08824839473
:10132000FE01EA59F74F30813F5F3083D7011C91AE
:10133000CE01B6E81B9F800D911D1124DC01A15840
:10134000BF4F4C91341708F4ADC010825E01E8E93C
:10135000AE1AE7EFBE0AD5013C91332309F440C031
:1013600011977C91F6017083D5011C9261E013976F
:101370006C932230A9F59C012E573F4FAC01405889
:101380005F4FDC01AB57BF4F711115C0F9011182DE
:101390001082FA01118210826C93A554B1098C91CC
:1013A0008F7099249394811101C0912C8824839487
:1013B0007724739415C0713041F4F90111821082C1
:1013C000FA01118210827C930BC0FA011182108203
:1013D000F901118210828C579F4FFC0160836C933E
:1013E000DE01AF59B74F8C91181709F45BC0D701D4
:1013F0008C93FE0126E8829FE00DF11D1124DF0190
:10140000A058BF4F11961C921E92129611961C92D4
:101410001E92129621E02C9311962C93D5011C92CA
:10142000FE01EB59F74F20833DC0FE01E859F74F0D
:101430008081882361F0DE01A959B74F8C91D601D4
:101440008C93108281E0DE01AB59B74F8C93DE01A3
:10145000AF59B74F8C91821709F1D7018C939E0138
:1014600046E8849F200D311D1124C901D901A058DF
:10147000BF4F11961C921E92129611961C921E92AC
:10148000129621E02C9311962C931082FE01EB59B9
:10149000F74F20833196108230DB982E8824839476
:1014A00077247394FE01E759F74F7082992009F46D
:1014B00079C0F6015080D7018C91A82EB12C8E01F5
:1014C000B6E88B9F000D111D11248DEF850D833023
:1014D000D0F0F801E158FF4F60816623A1F0339608
:1014E00070E08081918187FC02C0019603C0860F65
:1014F000971F01970E941F35682FC801BCD866242A
:101500006394823009F0612C26E82A9DC0012B9D4E
:10151000900D11248C0F9D1FFC01EE57FF4FC080D2
:10152000D1803397E080F12CCE14DF042CF46C2DA5
:10153000C801A1D8823081F1712C87FE03C0C70198
:10154000019702C081E090E08C0D9D1DB7010E94C3
:101550001F35682FC8018FD8882399F026E82A9D67
:10156000C0012B9D900D11248C0F9D1FFC01E05894
:10157000FF4F2081FC01E20FF11D808180588F37E1
:1015800020F0611004C0672C02C066246394FE0141
:10159000E559F74F608206C0472D652DC80184D8F4
:1015A000782ECBCFC359D74F81E089258883892DE9
:1015B000DF91CF911F910F91FF90EF90DF90CF902F
:1015C000BF90AF909F908F907F906F905F900895A5
:1015D0009C01DC01A859B74F8C91882339F0F9019F
:1015E000E959F74F8081339780831C92F901E05AC3
:1015F000F74F8081A90166E8869F400D511D112497
:10160000FA01E058FF4F1182108232961182108247
:10161000329641E0408331964083F901E659F74F15
:101620008FEF808331961082329640830E94DE32A3
:1016300031966083718382839383389710823197C8
:101640004083349640830895CF93DF93FC01E359A0
:10165000F74F2081211156C0EC01FFDCDE01A559B6
:10166000B74F882331F02C9121114FC0C659D74F65
:1016700045C0FE01E05AF74F80819E0146E8849FF5
:10168000200D311D1124C901F901EE57FF4F2081B2
:10169000322F3F73369536953F5F830F911DFC01C6
:1016A000E859FF4F808190E02370220F02C095958A
:1016B00087952A95E2F783702C91222311F08823D5
:1016C00021F1C659D74F813019F0823071F016C020
:1016D0003881832F63E00E9406359923A9F02223E5
:1016E000A1F021E0353071F410C0888180FF0CC07A
:1016F000222359F021E0853029F407C021E08881B8
:1017000083301CF020E001C021E0822FDF91CF91D7
:101710000895FC01E759F74FDC01A05AB74F2C910F
:10172000608136E8239F800D911D112424C8FC019F
:10173000E759F74FDC01A05AB74F2C91608136E88A
:10174000239F800D911D112416D88C5D08950F9351
:101750001F93CF93DF938B01EC01CE59D74F4423D6
:1017600031F0288139812617370709F031DF1983D5
:101770000883DF91CF911F910F910895CF92DF924F
:10178000EF92FF920F931F93CF93DF938C01EB01A6
:10179000FC01E05AF74F8081C82ED12C780196E8E1
:1017A000899FE00CF11C1124C70135D9F701E058DD
:1017B000FF4FA081B181F701EA0FFB1F4081542F39
:1017C0005F73852F6DE00E9406359E01280F311D45
:1017D0002430310514F023E030E066E86C9DC00150
:1017E0006D9D900D1124800F911FA80FB91F37FF19
:1017F00002C020E030E03DE0852F632F0E940635D7
:10180000329F900D1124407C492B4C93F801E459F0
:10181000F74F81E08083DF91CF911F910F91FF906F
:10182000EF90DF90CF900895CF93DF93AC01962F88
:10183000FA01E05AF74F8081FA0126E8829FE00D15
:10184000F11D1124EF01CE57DF4F688179819B0193
:1018500035952795A62FA170B0E0AA0FBB1FAA0F40
:10186000BB1FE20FF31FE05CFF4F6FE070E00A2E3A
:1018700001C0660F0A94EAF7609580818623692F7C
:1018800001C0660FAA95EAF7682B6083FA01E45954
:10189000F74F81E08083DF91CF9108959C01FC0197
:1018A000E05AF74F8081A90166E8869F400D511DDF
:1018B0001124CA013296208131812230310521F470
:1018C000FA01EE57FF4F06C02130310531F4FA011D
:1018D000E058FF4F60810C94110380E008959C0153
:1018E000FC01EE59F74F80819181029749F53297BB
:1018F0008081A90196E8899F400D511D1124FA01AC
:10190000EE57FF4F8081982F9F73E92FF0E093E00F
:10191000F595E7959A95E1F7E40FF51FE05AFF4F2B
:10192000482F477081E090E001C0880F4A95EAF7A0
:10193000908189278083F901E459F74F81E0808302
:101940000895A3E7B1E080E0ED91F0E0EE54F54FAB
:1019500090819F7009F08F5F91E0A038B907A1F7DF
:1019600008958091BA0A8F7059F48091BB0A8F70E4
:1019700039F49091BC0A9F7081E019F480E00895D9
:1019800081E008955F926F927F928F929F92AF92C3
:10199000BF92CF92DF92EF92FF920F931F93CF935C
:1019A000DF93182F662339F085E292E077DF8823F2
:1019B00011F080E0A5C18091850A112309F489C046
:1019C000C6E8C89FC00111248B5D9D4F7ED88091D1
:1019D000850AC89FE0011124CB5DDD4FCE010E9436
:1019E0002304813031F78091BC0A8F708130B9F4C3
:1019F0008091870A9091880A019769F4CE010BD8EB
:101A0000FE01E058FF4F80819181C80FD91F988156
:101A100080E48927888381E08093910A01C080E077
:101A20009091BD0A9F709130F1F48091870A909156
:101A3000880A0197A9F4C091850A26E8C29FE001AF
:101A40001124CB5DDD4FCE010E940B05FE01E05855
:101A5000FF4F80819181C80FD91F8881805888836A
:101A600081E08093910A9091BB0A9F70913031F48C
:101A700061E070E085E292E081DE81E09091BA0A57
:101A80009F70913031F46FEF7FEF85E292E076DE68
:101A900002C08823C1F0F090850A36E8F39EE00189
:101AA0001124CB5DDD4FFE01E058FF4F00810F7325
:101AB000CE010E942304C00FD11D282F4881602F22
:101AC0008F2D0E945F23A0E8B1E04CE0E42EF12CC2
:101AD0000EC066E8869FC00111248B5D9D4F0E9459
:101AE0006505F1CF31E0E31AF10808F462CFEE9119
:101AF000F0E0EE54F54FD081DF70D13099F73E2DF4
:101B00000091850A112309F44CC0C6E8C09F8001EA
:101B100011240B5D1D4FC8010E940B05F801E05810
:101B2000FF4F0190F081E02DE00FF11F2081822F07
:101B30008F733DE0632F0E9406359E2D839F900D8D
:101B40001124892F8F73207C282B2083D093910A16
:101B50000091850AC09FE0011124CB5DDD4FFE019D
:101B6000E058FF4F10811F73CE010E942304C10F64
:101B7000D11D282F4881612F802F0E945F2385E28D
:101B800092E0DF91CF911F910F91FF90EF90DF9046
:101B9000CF90BF90AF909F908F907F906F905F900D
:101BA000C6CD8091BA0A8F709091BB0A9F7088232E
:101BB00019F0911108C002C0911107C021E08823DB
:101BC00029F020E003C023E001C022E0402F50E0D4
:101BD00066E8069FC00111248B5D9D4FFC01E05813
:101BE000FF4F0190F081E02D6E2F6F73F62E132FB3
:101BF0006DE0269F100D1124E80FF91F8091BC0A9B
:101C00008F7021E030E011F420E030E0C90136E0CF
:101C1000880F991F3A95E1F76091BD0A6F7021E036
:101C200030E011F420E030E03695322F222737954E
:101C30002795282B207C212B208381E08093910AFB
:101C400026E8D22ED49EE001D59ED00D1124CB5D86
:101C5000DD4FCE010E942304CF0DD11D282F4881D6
:101C60006F2D802F0E945F23812F0E944A0104E282
:101C7000080FE090850AF12CDE9CC001DF9C900DDE
:101C800011249C012B5D3D4F6901F901EB57FF4F7A
:101C90001082359780818F73782E31976080862CE3
:101CA000912C11E0A82EB12C611638F4C5010196D3
:101CB000B4010E941F35EC0111C0C501810F911DB7
:101CC000B4010E941F35EC01682FC6010E943B033E
:101CD000813011F01F5FE8CF7C1641F3DD2786E8E5
:101CE0008E9D90018F9D300D11242B5D3D4FF9018C
:101CF000E058FF4FD183C0833296D183C083802FB9
:101D0000DF91CF911F910F91FF90EF90DF90CF90D7
:101D1000BF90AF909F908F907F906F905F9008954D
:101D2000CF93DF93C82F662329F085E292E0B6DDDA
:101D3000811166C08091BA0A8F708130B9F4C111E7
:101D400008C085E292E09FD98091AF0A8F5F8093AF
:101D5000AF0A8091850AC6E8C89FC00111248B5D37
:101D60009D4F0E942304D82F61E037C08091BB0AA9
:101D70008F708130B9F4C11108C085E292E083D937
:101D80008091AF0A8F5F8093AF0A8091850AC6E881
:101D9000C89FC00111248B5D9D4F0E942304D82F42
:101DA00062E01BC08091BC0A8F70813049F5C1117F
:101DB00008C085E292E067D98091AF0A8F5F809377
:101DC000AF0A8091850AC6E8C89FC00111248B5DC7
:101DD0009D4F0E942304D82F60E085E292E024DD2D
:101DE0008091850AC89FC00111246D2F8B5D9D4F86
:101DF0000E9428048091850ADF91CF910C943A23A8
:101E0000DF91CF910895CF93DF9385E292E00E9416
:101E10000A27C6EFD1E089910E94873081E0CE3F4A
:101E2000D807C9F7CCEDD1E089910E947630E1E086
:101E3000C63FDE07C9F7E6E2F0E00E94B430E7E211
:101E4000F0E00E94B430E8E2F0E00E94B430E9E251
:101E5000F0E00E94B43082EB9AE00E94450280914B
:101E6000D30A8F7019F0E0E0F0EF099585E292E077
:101E70000E94B4064091EF0A6091ED0A8091EC0A4D
:101E8000DF91CF910C94CD238F929F92AF92BF920E
:101E9000CF92DF92EF92FF920F931F93CF93DF9336
:101EA0008091850AE82EF12C26E8829FC00111243A
:101EB0008B5D9D4FFC01E058FF4F20813181422F07
:101EC0004F73FC01E40FF11D40814F3F09F4E6C060
:101ED000FC01E20FF11D40814F3F61F0FC01E20F78
:101EE000F31F80818F7390E06DE070E00E943335C6
:101EF000D82E01C0D12C86E88E9DE0018F9DD00D9B
:101F00001124CB5DDD4FED2DF0E0EE0FFF1FE75A02
:101F1000FE4F61E0808191810E94A901FE01E0589D
:101F2000FF4FA080B180FE01EA0DF11D80818F3F3F
:101F300009F447C0FE01EE57FF4F00811181602F69
:101F4000CE010E943B03FE01823061F5E158FF4F54
:101F50009080A92CB12C0A0D1B1D01501109CC2415
:101F6000C394C91430F5C801B5010E943335882ED9
:101F7000682FCE010E943B038823D9F0015011093C
:101F8000813071F486E88E9DF0018F9DF00D112453
:101F9000EB5DFD4FE80DF11D80818F3F31F409C0ED
:101FA000C394DFCFEA0DFB1D80818F730E944A012D
:101FB00001C08CE06CE00E940635182F882339F0B0
:101FC00001C011E061E0133019F060E001C061E090
:101FD00088E090E00E94A9018CE0D8125BC026E85E
:101FE0002E9DC0012F9D900D11248B5D9D4FFC01F6
:101FF000E058FF4F20813181FC01E20FF11D40814B
:102000004F3F61F0FC01E20FF31F80818F7390E07E
:102010006DE070E00E9433356130E1F560E089E009
:1020200090E00E94A901CE010E9423048130B1F505
:10203000CE010E94280361E0811101C060E08AE0C6
:1020400090E00E94A90126E82E9DC0012F9D900DD1
:1020500011248B5D9D4FFC01E058FF4F2081FC0156
:10206000E20FF11D60816F3F21F0661F6627661F3A
:1020700001C060E08BE090E0DF91CF911F910F9164
:10208000FF90EF90DF90CF90BF90AF909F908F9098
:102090000C94A90161E0123010F6C0CFDF91CF910E
:1020A0001F910F91FF90EF90DF90CF90BF90AF9076
:1020B0009F908F9008958091850A26E8829FC001A5
:1020C00011248B5D9D4F0E94230461E0813009F053
:1020D00060E088E090E00E94A9018091850A26E8EE
:1020E000829FC00111248B5D9D4F0E94230461E0FB
:1020F000823009F060E089E090E00E94A9018091BF
:10210000850A26E8829FC00111248B5D9D4F0E94A5
:10211000230461E0811160E08AE090E00E94A9015F
:102120008091850A26E8829FC00111248B5D9D4F16
:10213000FC01EE57FF4F60810E941103682F8BE076
:1021400090E00C94A901EF92FF920F931F93CF930D
:102150006091DA0A62FB662760F982E190E00E94F2
:10216000A9010FE211E08BE3E82E81E0F82EC0E038
:1021700080918D0A882319F080918C0A02C0809189
:10218000890A8C1306C06091DA0A62FB662760F93F
:1021900001C061E0D8018D919D918D010E94A9013E
:1021A000D701ED917D01F0E0EE54F54F80818F7005
:1021B0008130B1F48093910A90918F0A9F3F49F446
:1021C000C093890A80938A0A10928B0A10928D0A12
:1021D00004C0C0938C0A80938D0A8C2F0E94232305
:1021E000CF5FC63029F6CF911F910F91FF90EF90EE
:1021F0000895CF92DF92EF92FF920F931F93CF93A8
:10220000DF93EC01162F8091870A9091880A813024
:10221000910519F00297A9F158C08881882379F1B6
:1022200081E0B0DB11112BC0882349F10091070137
:10223000E02EF12CE80EF11C20E8E216F10418F073
:102240005FE7E52EF12C8091850A36E8839FC00177
:1022500011248B5D9D4F0E942803811103C040E52E
:10226000D42E02C03FE7D32E85E292E052DA0C5F13
:10227000800F8093AD0A6D2D8E2D0E94DA2704DE2B
:1022800024C08881882301F18091BD0A8F7081303C
:10229000C1F485E292E023DBF090850A26E8F29E05
:1022A000C00111248B5D9D4FFC01EE57FF4F008153
:1022B0000F73602F0E941103482F602F8F2D0E94F3
:1022C0003C23612F81E02CDDF6DE8091C10A8F7006
:1022D000813009F045C08091850A682F70E096E84A
:1022E000899F900111242B5D3D4FF901EC57FF4F61
:1022F0009081911189C034974081518141155105D8
:1023000031F4329620813181232B71F47DC0141673
:10231000150654F44150510951834083F901EE5799
:10232000FF4F5183408310C096E8969F9001979F7E
:10233000300D11242B5D3D4FF901E058FF4F118204
:10234000108232961182108291E09093910A1111BD
:1023500007C02091870A3091880A21303105F1F0B9
:102360008091C10A8F70883009F051C08881811135
:102370004EC011114CC08091870A9091880A019734
:1023800009F045C01092AC0ADF91CF911F910F91D7
:10239000FF90EF90DF90CF900C94B32726E8829FB8
:1023A000C00111249C012B5D3D4F6901C9010E94B0
:1023B00023048823A9F285E292E0B9D900910701AC
:1023C000E02EF12CE80EF11C30E8E316F10418F0D1
:1023D0008FE7E82EF12CC6010E942803811103C06B
:1023E00020E5D22E02C09FE7D92E85E292E091D956
:1023F0000C5F800F8093AB0A81E08093AC0A6D2D57
:102400008E2D0E94DA27ACCF112309F4A2CFDF91E1
:10241000CF911F910F91FF90EF90DF90CF90089593
:102420006F927F928F929F92AF92BF92CF92DF92E4
:10243000EF92FF920F931F93CF93DF935C01EB0119
:102440008A018091870A9091880A8130910521F054
:10245000B0F0029771F017C2FA018081811114DD8A
:10246000F501808181110FC21092880A1092870AAB
:102470000AC2FA018081882399F31DDEF1CFE09032
:10248000850AF12C43E0F594E7944A95E1F7DE2CB8
:10249000C12C80911702C81660F4EC2DF0E0E85EC4
:1024A000FD4F8081877061E090E00E94A901C39494
:1024B000F0CF80911E028823B1F070902002F1E0ED
:1024C000F71588F431E2832E32E0932EC12CF4010B
:1024D00081914F01877061E090E00E94A901C3944F
:1024E0007C10F5CF20C0809106018F3F89F0C12C70
:1024F00080912002C816B8F4EC2DF0E0EF5DFD4F9E
:102500008081877061E090E00E94A901C394F0CFC0
:102510008091860A9091850A981729F0877061E06A
:1025200090E00E94A90161E08091DA0A8C3008F005
:1025300060E08091850A877090E00E94A90161E0C7
:10254000D11060E08AE090E00E94A90161E0D11022
:1025500001C060E08BE090E00E94A901F801808159
:10256000882339F1F5018081882319F1E091850AEA
:1025700086E8C82ECE9EF0011124E955FD4F8081DA
:10258000918161E0877099270E94A901E091850AF5
:10259000CE9EF0011124E955FD4F8081918199274C
:1025A00023E0959587952A95E1F761E00C960E94C6
:1025B000A901F8018081882309F49DC00FB6F89421
:1025C0008090EF0E9090F00EA090F10EB090F20E71
:1025D0000FBEEE0CEE0CEE0CC2EBDAE06E01F12C4D
:1025E00077247A9466246394F60181916F018F7049
:1025F000813061F4E2EBFAE090E0F91619F08081A5
:1026000080FDACC19F5F31969830B9F780E0F394BC
:10261000F8E0FF1619F0882339F361C081115FC01B
:10262000809104018F3F91F4E2EBFAE080E0919118
:102630009F70913041F490E0891709F4D8C1288146
:1026400020FFD5C103C08F5F883089F780910401D6
:102650008F3F09F44CC09091120291111AC0409121
:102660001302509114026091150270911602841A9F
:10267000950AA60AB70A2CE2821621E09206A10466
:10268000B10438F091E0909312029E2D980F909330
:102690000501E82FF0E0EE54F54F90819F709830DF
:1026A00011F590911202911113C090911E022E2DDE
:1026B000280F992309F4ADC180912002823008F4DB
:1026C000A8C181E080931702209318020E943A016A
:1026D0008FEF809304011092120280930501809184
:1026E00004018F3F21F080911202811101C080E02E
:1026F00080931C0289C08FEF80930401E091060152
:10270000EF3F09F04AC0E2EBFAE080E091919F7060
:10271000D92E91E0D9123CC09881CE2DCC0FCC0F90
:10272000CC0F992311F1C80FE6E8CE9FC001112408
:102730008B5D9D4F0E941C05D092910A8091850A65
:10274000C81308C085E292E00E94E80A1092880A45
:102750001092870A40E050E0BA0187EA9AE00E94AE
:1027600068018C2F0E943A234FC080930601E092AB
:102770001D028C0F80932102D092200210921E0223
:1027800010921C028F708093860A8093850A3CC049
:102790008F5F883009F0BACF37C060911D028091F9
:1027A0002002EE0CEE0CEE0CA2EBBAE090E071E031
:1027B000E91739F02C912F70213019F4D61609F44D
:1027C0002DC19F5F1196983099F780932002F0E019
:1027D000EE54F54F90819F709830B1F4823068F0DC
:1027E00081E080931E0210921F02809121028F705F
:1027F0008093860A8093850A02C010921E028FEF92
:10280000809306010E943A018091BC0A8F7081304A
:10281000D1F410921E0210922002109217028FEF34
:10282000809306018093040180930501F801908153
:102830008091850A87708093860A911102C08093E7
:10284000850A0E943A018091BD0A8F708130D9F4C7
:1028500010921E0210922002109217028FEF8093A6
:1028600006018093040180930501F8019081809115
:10287000850A8770885F8093860A911102C08093D1
:10288000850A0E943A010FB6F894C090EF0ED090DE
:10289000F00EE090F10EF090F20E0FBE8091A70ABC
:1028A0009091A80AA091A90AB091AA0AC81AD90AB7
:1028B000EA0AFB0A8091870A9091880A61E00297F0
:1028C00041F0F0E9CF16F1E0DF06E104F10408F091
:1028D00060E080E190E00E94A9018091870A9091D8
:1028E000880A61E0019741F020E9C21621E0D20692
:1028F000E104F10408F060E082E190E00E94A901A7
:102900008091870A9091880A892B41F461E080E9DF
:10291000C81681E0D806E104F10408F460E083E120
:1029200090E00E94A90190E9C91691E0D906E1045E
:10293000F10408F093C061E081E190E0DF91CF9174
:102940001F910F91FF90EF90DF90CF90BF90AF90CD
:102950009F908F907F906F900C94A9018F2D9F1561
:1029600008F4892F2F2DF91608F4292F422F50E053
:10297000481B51094430510514F023E0280F281B4F
:1029800031E0320F70920401109212027092050130
:1029900090911E029923A1F090912002923080F034
:1029A0009091170291111FC0309317028E0DE8E12C
:1029B000F2E09317C0F4292F280F21939F5FF9CFDE
:1029C00060921E02309320028E0DE1E2F2E090E070
:1029D000931728F4492F480F41939F5FF9CF209315
:1029E0001F02109217020E943A0181E010CE9F5FF1
:1029F0002196983009F020CE809304018092130232
:102A000090921402A0921502B09216021092120235
:102A10001DCE822F8F708093860A58CE2E2F9E1740
:102A200008F4292F8E2FE91708F4892F482F50E03A
:102A3000421B51094430510514F083E0820F372FB7
:102A4000321B830F2E0DC1E2D2E030E0381709F4BB
:102A5000B8CE432F420F49933F5FF8CFDF91CF911C
:102A60001F910F91FF90EF90DF90CF90BF90AF90AC
:102A70009F908F907F906F900895CF936091DA0A26
:102A800062FB662760F982E190E00E94A901C09193
:102A900007018C2F6CE00E940635E92FF0E0EE0F65
:102AA000FF1FE75AFE4F61E0808191810E94A901DA
:102AB00061E0CC3028F08CED8C0F8C3008F060E0B9
:102AC00088E090E00E94A90161E0C83108F460E06C
:102AD00089E090E00E94A901A3E7B1E020E03CE09A
:102AE000ED91F0E0EE54F54F80818F70813041F42C
:102AF0008C2F632F0E940635C22F839FC00D112497
:102B00002F5F2D3069F7C09307018091BA0A8F704B
:102B10008130D9F48C2F6CE00E940635282F30E0EC
:102B2000882331F0253031052CF42FEF280F03C016
:102B300020E001C023E03CE08C2F632F0E9406358B
:102B4000239F900D1124909307018091BB0A8F70F1
:102B50008130B1F440910701842F6CE00E9406356A
:102B6000833018F421E0280F01C023E03CE0842FDB
:102B7000632F0E940635239F900D11249093070127
:102B8000CF9108952F923F924F925F926F927F92D2
:102B90008F929F92AF92BF92CF92DF92EF92FF926D
:102BA0000F931F93CF93DF93CDB7DEB7CF54D109E7
:102BB0000FB6F894DEBF0FBECDBF82EB9AE00E9445
:102BC00045028091C30A8F702E968FAF2E97809109
:102BD000C20A8F7091E009F490E02B969FAF2B977B
:102BE0008091CA0A8F7091E009F490E02A969FAF15
:102BF0002A979091D30A9F702D969FAF2D97909111
:102C0000CB0A9F70392E9091CC0A9F70292ED090BC
:102C1000CD0A9091110291110AC02D962FAD2D97DA
:102C2000211105C0332019F0813009F40BC78091C0
:102C3000D20A8F7039F46091B00A662321F0609156
:102C4000ED0A01C061E029966FAF299728961FAE63
:102C500028979E01295B3F4F40EB5AE085E292E0C6
:102C60000E94D22B28963FAD28972C963FAF2C97E9
:102C7000311110C08091B00A81110CC08091D50A29
:102C80008F7041E02C964FAF2C97813019F02C9625
:102C90001FAE2C97552453942C968FAD2C978111F1
:102CA00001C0512C8091C20A8F70883029F4299676
:102CB0008FAD2997882349F08091D20A8F70883090
:102CC000E1F48091B00A811118C08091910A8823A3
:102CD000A1F015E2E12E12E0F12E00E010E0B801C3
:102CE000C7010E9483060F5F1F4F96E8E90EF11C93
:102CF00000311105A1F71092910A8091C20A8F70DC
:102D0000883021F41092990A1092970A8E010F5B75
:102D10001F4FDE0111967D019D01AE014B5B5F4FA0
:102D2000B801CE018A5B9F4F0E94C022882309F41C
:102D30004BC027968FAD27978F3F19F40E943A0119
:102D400043C0823090F091E090931E028093200265
:102D5000A1E2B2E0F80191919D939E2F901B9817EC
:102D6000D0F3815080931F0217C010921E02813051
:102D700089F480932002F8018081809321022996B2
:102D80009FAD29978F708093860A911105C080931B
:102D9000850A02C01092200226968FAD2697809356
:102DA0001702A8E1B2E0F7019E2F9E19981718F4B8
:102DB00091919D93F9CF8FEF809306018093040149
:102DC00010921C02809305018091D20A8F7081308D
:102DD000C9F485E292E00E94E80A80911E028823ED
:102DE00079F080912002823058F010921F021092E8
:102DF0001702809121028F708093860A8093850A42
:102E00000E943A0180911102882309F4DAC08330CC
:102E100009F47EC028F4813051F08230A1F1F8C06D
:102E2000843009F49FC0853009F4BAC0F1C061E074
:102E300083E190E00E94A9018091CA0A8F708130DD
:102E400051F480911002882319F01092100203C0EF
:102E500010921102DDC08091B20A8F70813019F496
:102E600082E0809311028091B30A8F70813019F44F
:102E700084E0809311028091B40A8F70813009F050
:102E8000C7C085E08AC061E08CE090E00E94A901A3
:102E9000E091EC0A8FEF8E0F803118F4E93040F4A6
:102EA00001C0E1E0F0E0EE0FFF1FE95BFE4F05C05F
:102EB000F0E0EE0FFF1FE95CFE4F61E08081918141
:102EC0000E94A9018091C50A8F70813019F483E0B6
:102ED000809311028091CA0A8F70813011F480931F
:102EE000110201E411E0DD24D394D801ED918D01AC
:102EF000F0E0EE54F54F80818F70813021F4D09254
:102F0000EC0A0E947906D394B9E0DB12EECF80C0C0
:102F10008091CA0A8F70813011F4809311028091E0
:102F2000C50A8F70813019F482E08093110201E4A8
:102F300011E069E0D62E72E0C72ED801ED918D0127
:102F4000F0E0EE54F54F80818F70813031F4D092F3
:102F5000EC0A0E947906C0921102D394B1E1DB120F
:102F6000ECCF56C06091ED0A81E0682780E190E0E7
:102F70000E94A9018091CD0A8F70813039F490911F
:102F8000ED0A89278093ED0A0E9479068091CA0A8A
:102F90008F70813009F03CC081E08093110238C00D
:102FA0006091EF0A8BE090E00E94A9018091BD0A38
:102FB0008F70813059F79091EF0A89278093EF0A3B
:102FC000E3CF2D96EFAD2D97EE2351F0311008C0D1
:102FD00029966FAD2997CE01865B9F4F0AD918C0FD
:102FE00070909A0A772011F0AED812C08D2D8F7094
:102FF0002B969FAD2B9791112AC5332009F494C6C7
:103000009091CC0A9F70913009F027C590939A0A4D
:1030100080911E02882309F46CC0809120028230C6
:1030200008F467C029968FAD2997882309F461C0F9
:103030008091850A909117029923E9F02091180256
:10304000281319C0923078F0A8E1B2E0E1E2F2E092
:1030500020E03D9131932F5F9213FBCF909320029C
:1030600010921F0204C010921E02109220021092B1
:10307000170221E001C020E090911E029923B1F1D6
:1030800060912002623090F1E1E2F2E090E0319153
:10309000381303C090931F0203C09F5F6913F7CFDB
:1030A00090911C02992331F0909105019F3FD9F036
:1030B0009817C9F09091170280911F0270E0992330
:1030C00051F0482F50E0FB0131974E175F0719F47C
:1030D0008091180208C090E001960E943335FC01EF
:1030E000EF5DFD4F80818F708093860A21110E94D1
:1030F0003A0180911102811128C040E8C42E41E0BC
:10310000D42E00E010E0F6019381E92FF0E0EE54B8
:10311000F54F80818F7041F0993009F015C680918C
:10312000B90A8F7009F410C60F5F1F4FF4E0CF0E7D
:10313000D11C0031110539F78091C00A8F7029F038
:1031400061E081E190E00E94A9018091A60A8823B4
:1031500071F029968FAD2997882329F02B968FAD92
:103160002B97811104C01092A60A0E94C2270091D9
:10317000A60A002341F08091D30A8F70883019F499
:1031800081E08093A50A61E08091DB0A0E9402023F
:103190004091CB0A4F704130D1F480919A0A882334
:1031A00019F010929A0A13C080911102813019F41B
:1031B000109211020CC081110AC029968FAD299777
:1031C000482760E070E085E292E00E94A70B8091C2
:1031D000110281117CC04091CD0A4F70413029F419
:1031E0002B968FAD2B978111B4C54091CC0A4F70AF
:1031F000413041F42B968FAD2B97882319F0332063
:1032000009F4B4C58091CA0A8F70813009F054C0A6
:10321000311052C0E2EBFAE080E091919F7039F0FA
:103220001091850A187F180F1F3F29F424C08F5F63
:10323000883099F720C026E8129FC00111248B5DC9
:103240009D4F0E941C0581E08093910A8091850A20
:10325000181308C085E292E00E94E80A1092880ADA
:103260001092870A40E050E0BA0187EA9AE00E9493
:103270006801812F1FC029968FAD29978823E1F01F
:103280002B968FAD2B978823B9F08091870A909168
:10329000880A892B09F475C50FC0103408F01FE3A4
:1032A0006096EEADFFAD6097108381E08093910A48
:1032B0008091850A0E943A238091CB0A8F708830D2
:1032C00031F41092B10A1092970A1092990A8091E3
:1032D000D20A8F7001E0883009F000E021E08130EF
:1032E00009F020E04091B00A29966FAD2997852D0D
:1032F0000E944C27A12C36E8C32EBB24B3949924FA
:103300009A942C96FFAD2C97FA1509F413C180916D
:10331000DA0A8F5F68E10E9406359093DA0A2996EF
:103320008FAD2997882309F403C180918F0A8F5F9D
:1033300066E00E941235192F90938F0A9111EDC00B
:1033400085E292E00E9443080E94DE326093930A75
:103350007093940A8093950A9093960A609107015E
:1033600085E292E00E9411298091850AC89EF001B1
:103370001124E955FD4F60810E94EF228091A60A39
:10338000882309F4D5C08090850A482C512CC49C10
:10339000C001C59C900D11248B5D9D4FFC01E1582F
:1033A000FF4FE080F12C339680819701280F311D6B
:1033B000C9010197B7010E9433353C018091D30ABE
:1033C0008F70D82E79F08091A50A9091A40A992344
:1033D00029F0811103C022E0D22E02C0DD24D39453
:1033E000B092A30A81E0D11001C080E08093A40ACA
:1033F0001092A50AC49C8001C59C100D11240B5D80
:103400001D4F4D2D662DC8010E94B1059301332734
:1034100041E0F801E20FF31FD4123BC080818F3FDF
:10342000C9F5B80163587F4FDB019C91890F8F3339
:1034300068F5D801AE0DBF1D4C914083D701E6E879
:103440008E9EA00DB11D112440E050E04F5F5F4FF4
:10345000491748F4FD01E40FF51FEB5DFD4F1081A6
:1034600031971083F3CFC49CF001C59CF00D11245B
:10347000EB5DFD4FEE0DFF1DE90FF11D31979082C1
:10348000803408F08FE3DB018C9304C0BDE0B0838F
:1034900001C09082B092910A8091850AC89E200D49
:1034A000311D1124F901EB5DFD4F2D2D4081662D5D
:1034B0000E945F23B092A20A40E050E0BA018CE97A
:1034C0009AE00E946801E091850ACE9EF0011124E5
:1034D000E955FD4F208131812770332781E0211587
:1034E000310509F080E08093A10A232B11F098E3C5
:1034F00001C09CE29093A00A0E940628E091850AF0
:10350000CE9EF0011124E955FD4F8081811110C03C
:103510008091A30A8111F8C40BC08091920A811195
:1035200007C085E292E00E942D08882309F4B7C401
:10353000A394E7CE8091110281116CC12091BA0A47
:103540002F70213039F5332029F18091B10AE091B3
:10355000850A8111DEC42093B10A1092990AF6E817
:10356000EF9FC00111248B5D9D4FFC01E058FF4F80
:10357000118210823197208381E08093910A80919B
:10358000850A96E8899FF0011124EC55FD4F608172
:103590000E9409238091D30A8F70813009F091C075
:1035A0002B968FAD2B97882309F44AC029968FADAF
:1035B00029978111BCC08091870A9091880A813037
:1035C000910561F58091850A16E8189FC0011124C4
:1035D0008B5D9D4F0E9465058091850A189FC001F3
:1035E0001124DC01AB5DBD4F6D01CD010E942304B0
:1035F000813009F066C085E292E00E94970B10913D
:103600000701E12EF12CE80EF11CB0E8EB16F104F5
:1036100018F09FE7E92EF12CC60136C0029709F099
:1036200086C085E292E00E9443080E94DE326093E9
:10363000930A7093940A8093950A9093960A41C0D6
:1036400029968FAD2997811136C085E292E00E94BC
:1036500043088823B1F185E292E00E94970B109114
:103660000701E12EF12CE80EF11CE0E8EE16F10462
:1036700018F08FE7E82EF12C8091850AF6E88F9FED
:10368000C00111248B5D9D4F0E942803882311F0F7
:103690000FE701C000E585E292E00E94890B1C5F04
:1036A000810F8093AD0A81E08093AE0A602F8E2D4A
:1036B0000E94DA2706C085E292E00E9443088093C8
:1036C000F30A8091D30A8F70883089F51092AE0A80
:1036D0000E94B32729968FAD2997811128C02B9678
:1036E0008FAD2B97882339F08091870A9091880AB3
:1036F000019709F429C48091870A9091880A02975A
:10370000B1F48091850A26E8829FC00111248B5D67
:103710009D4FFC01EE57FF4F2081318133273397B6
:10372000808190E00197281739070CF038C4809108
:10373000110281116FC02D963FAD2D9731116AC0D6
:103740002B968FAD2B97882309F464C02E964FAD2E
:103750002E9741115FC08091870A9091880A029745
:10376000F9F48091BD0A8F70813009F420C4299644
:103770001FAD2997111134C4311004C00E94B10C3F
:1037800081112EC4E091850A86E8E89FF00111249A
:10379000EC55FD4F9091AF0A8081981708F025C431
:1037A0008091870A9091880A019711F5211020C015
:1037B0000E94A10C182F29968FAD2997811103C063
:1037C000112309F43DC4682F0E94C20C29969FADB5
:1037D0002997992309F411C429968FAD2997882335
:1037E00009F42CC429968FAD2997882309F42CC499
:1037F00029968FAD2997811113C08091AE0A882335
:1038000009F474C00E94A10C811170C01092AE0A1C
:103810000E94B32729968FAD2997882309F466C0A3
:103820008091A20A8823E1F00FB6F8948091EF0E00
:103830009091F00EA091F10EB091F20E0FBE40915A
:103840009C0A50919D0A60919E0A70919F0A841B68
:10385000950BA60BB70B4A97A105B10508F017C445
:103860001091A20A112319F08091A00A08C085E2E4
:1038700092E00E94890B909107019C5F890F803430
:1038800008F08FE38093F60A85E292E00E942D080B
:103890008093F50A8091920A8111FCC385E292E03F
:1038A0000E942D088111F6C38091850AA6E88A9F9F
:1038B000C00111248B5D9D4F0E942803882309F4C9
:1038C000E9C381E08093F40A80919B0A811108C0CA
:1038D00085E292E00E94240B882319F0182F01C082
:1038E00010E01093F30A10929B0A81C085E292E0E7
:1038F0000E94890B109107011C5F180F6AD6082FD0
:103900008091AE0A882319F01091AD0A23C08091EE
:10391000AC0A882319F01091AB0A1CC02B968FAD0E
:103920002B978823C1F02E96BFAD2E97B11113C0EF
:103930008091110281110FC02D96EFAD2D97E111ED
:103940000AC08091870A9091880A019721F40E9409
:10395000A10C811101E08091BD0A8F7019F43CD651
:10396000F82E02C0FF24F394002379F18091AE0A6F
:10397000811113C08091AC0A81110FC02B968FADBD
:103980002B97882311F18091870A9091880A0197DB
:10399000E1F40E94A10C8823C1F0F11016C08091BF
:1039A000850AF6E88F9FC00111248B5D9D4FFC01B5
:1039B000E058FF4F2081FC01E20FF11D80818F3F15
:1039C00021F0F82EFF1CFF24FF1C103408F01FE329
:1039D0001093F60AF092F50A8091BC0A8F7011F4E8
:1039E000F5D501C081E08093F40A0093F30A809139
:1039F000D20A8F70883029F48091B00A882309F4A4
:103A000050C38091DB0A8F5F8093DB0A0E948B0199
:103A1000C15BDF4F0FB6F894DEBF0FBECDBFDF91A5
:103A2000CF911F910F91FF90EF90DF90CF90BF90BB
:103A3000AF909F908F907F906F905F904F903F904E
:103A40002F9008958093110280931002F0C82220D5
:103A500031F0311031C311D8DBCA21102DC38823B6
:103A600051F06091DA0A62FB662760F980E190E02C
:103A70000E94A901CDCA332009F45AC16091DA0A23
:103A800062FB662760F983E190E00E94A9012B9612
:103A9000DFAC2B97D11063C0E091850A26E8E29F46
:103AA000F0011124EC55FD4F10810FB6F894809071
:103AB000EF0E9090F00EA090F10EB090F20E0FBEAF
:103AC000812F90E0019761E0877099270E94A901FA
:103AD000113218F1092D0170602F81E190E00E94F0
:103AE000A901602F8CE090E00E94A901193210F426
:103AF00060E001C0602F8DE090E00E94A9011133C9
:103B000010F460E001C0602F8EE090E00E94A901F7
:103B1000193308F0D02E6D2D1EC060E081E190E0D9
:103B20000E94A90161E08CE090E00E94A90161E09F
:103B3000193008F460E08DE090E00E94A90161E096
:103B4000113108F460E08EE090E00E94A90161E08C
:103B5000193108F460E08FE090E00E94A9012B96F3
:103B60008FAD2B97882309F453CAE091850A36E874
:103B7000E39FF0011124EC55FD4F00810FB6F8943E
:103B80008091EF0E9091F00EA091F10EB091F20E97
:103B90000FBE492F4170D42E802F90E0019761E035
:103BA000877099270E94A901C090990AC11002C08C
:103BB000013228F16D2D81E190E00E94A9010132CE
:103BC00010F460E001C06D2D8CE090E00E94A9012E
:103BD000093210F460E001C06D2D8DE090E00E948C
:103BE000A901013310F460E001C06D2D8EE090E07A
:103BF0000E94A901093308F07D2C672D1EC060E0EA
:103C000081E190E00E94A90161E08CE090E00E94D7
:103C1000A90161E0093008F460E08DE090E00E94C5
:103C2000A90161E0013108F460E08EE090E00E94BB
:103C3000A90161E0093108F460E08FE090E00E94A2
:103C4000A9018091C00A8F70813019F48C2580936E
:103C5000990A8091990A882311F080E201C080E0DE
:103C60009091C40A9F70913021F48093980A9093A8
:103C7000970A9091C50A9F70913031F428E0280F7F
:103C80002093980A9093970A9091BE0A9F70913062
:103C900031F420E1280F2093980A9093970A90918D
:103CA000BF0A9F70913029F4885E8093980A9093A0
:103CB000970A01E411E0DD24D39456E8C52EBB2415
:103CC000B394D801ED918D01F0E0EE54F54F808171
:103CD0008F70813021F59091970A992319F0909176
:103CE000980A01C090E09D0DE091850ACE9EF001FA
:103CF0001124EB5DFD4F992321F0892F913408F0B9
:103D000080E4E158FF4F8083B092910A8091850A48
:103D1000C89EF0011124EC55FD4F60817AD4D394F4
:103D2000B9E0DB12CECF74C9211095CE811199CEA6
:103D3000AE01485B5F4FBE01675B7F4FCE01865B84
:103D40009F4F0E94101264C961E0C8010E94A9013E
:103D5000EBC929968FAD2997482762E070E085E28C
:103D600092E00E94A70B1092AF0A3FCA29968FAD2E
:103D70002997482761E070E085E292E00E94A70B56
:103D800041CA81E008270093A60A011103C00E94DE
:103D9000C22792CA1092A40A1092A30AC090850A60
:103DA00036E8C39EC0011124DC01AB5DBD4F5D014F
:103DB000FD01E158FF4F008180E4482E401AB6E82B
:103DC000CB9E600111244501612C712C10E060161E
:103DD00098F4141588F4662DC5010E943B038130C8
:103DE00039F4F401E60DF71D80818F3F09F051C0D1
:103DF000FFEF6F1A7F0AEBCF950123583F4F609674
:103E00003FAF2EAF6097D9019C91903448F4B60132
:103E1000600F711D20E030E0291710F4141528F010
:103E2000612C712C44244A9421C0F901E60FF71F3C
:103E3000EB5DFD4F8081E1E0E10F412F50E08F3FCE
:103E400009F48DE0D701A40FB51F8C932F5F3F4F6E
:103E50001E2FE2CF40E0662DC5010E94B105F4019E
:103E6000E60DF71D4082BFEF6B1A7B0A601690F3D8
:103E7000D701C00ED11C80E090E0811708F00DCA78
:103E80002D91FC01EC0DFD1DEB5DFD4F2083019696
:103E9000F4CFF701E10FF11D80831F5FA9CF80915F
:103EA000850AC89EC00111248B5D9D4FFC01EE5711
:103EB000FF4F2081322F3F73369536953F5F830F3A
:103EC000911DFC01E859FF4F808190E02370220F83
:103ED00002C0959587952A95E2F78370813019F095
:103EE000823021F025CB133031F022CB123019F083
:103EF000143009F01DCBB0929B0A6091070185E256
:103F000092E00E949A2914CB1092A60A0E94C2271E
:103F10000FCB2E2F30E046E8E49FF0011124EC5542
:103F2000FD4F8081803410F48F5F01C080E496E8FB
:103F3000929FF001939FF00D1124EC55FD4F8134B9
:103F400008F080E4808318CB2091850A46E8249FFE
:103F5000900111242B5D3D4FF901E158FF4F608125
:103F600036961082359780819181019670E00E948B
:103F70001F3591838083329691838083892B09F04A
:103F8000BACB41E060E070E085E292E00E94A70BCE
:103F900029968FAD2997882309F4ADCBC8CB41E092
:103FA00060E070E085E292E00E94A70BC0CB85E262
:103FB00092E00E946F0C0091850AA6E80A9FC0015A
:103FC00011248B5D9D4FFC01EE57FF4F10811F7335
:103FD000612F0E941103482F612F802F4DD3C7CB33
:103FE000612F812F0E94900EDBCB41E060E070E0FA
:103FF00085E292E00E94A70BD3CB112309F188231D
:1040000009F4EACB90910701292F30E0280F311DE8
:104010002038310510F02FE730E04091BC0A4F7096
:1040200011F06FE701C060E59052890F8093AD0AEF
:1040300081E08093AE0A822FBDD7CECB1111D2CBB7
:104040001092AE0A90D7CECB0091850A96E8099FD0
:10405000800111240B5D1D4FF801EB57FF4F80814C
:104060008111CBCBC8010E944A05F801E058FF4FEF
:1040700090E0208131812817390709F0BECB41E05B
:1040800060E070E085E292E00E94A70BB1CB109255
:10409000A20AE6CB112319F08091A10A13CC80E08B
:1040A00011CC1092F30A85E292E00E94E80A60E0E7
:1040B0008091850A94D2A5CC882309F4DFCCD1CC99
:1040C00081E08093EC0A8093ED0A1092EE0A109240
:1040D000EF0A87EA9AE00E9457018CE99AE00E9471
:1040E0005701E4EAF2E020E191E0208381E0968349
:1040F000EA57FF4F3BE0E430F307B9F71092850A27
:104100001092860A1092880A1092870A1092890AE1
:1041100080938A0A10928B0A10928C0A10928D0A50
:1041200080938E0A8FEF80938F0A1092900A1092DC
:10413000910A1092920A1092930A1092940A109285
:10414000950A1092960A08958091230D811101C05D
:1041500081E008954091200B5091210B9A012F5F2F
:104160003F4F211592E0390710F020E030E06091D8
:104170001E0B70911F0B2617370751F0FA01EE5DE9
:10418000F44F80833093210B2093200B81E008951E
:1041900080E008954091000BE9E0FBE090E0941787
:1041A00031F12191281321C0E42FF0E03197292F1C
:1041B00030E02E173F07ACF4B9016F5F7F4FDB0192
:1041C000A75FB44F8C91D901A75FB44F8C93DB01EB
:1041D000AF5FB44F8C91D901AF5FB44F8C939F5FA9
:1041E000E6CF41504093000B08959F5FD8CF0895CC
:1041F000EF92FF920F931F93CF93DF937C018B017C
:1042000080EFA8DF882399F0E7010E0D1F1DC0176E
:10421000D10729F089919EDF8111F9CF08C087EF7E
:10422000DF91CF911F910F91FF90EF9093CF80E09E
:10423000DF91CF911F910F91FF90EF900895CF9351
:10424000DF9300D01F92CDB7DEB79DE7998394E14D
:104250009A838B8363E070E0CE010196C9DF0F90F3
:104260000F900F90DF91CF910895AF92BF92CF92B0
:10427000DF92EF92FF920F931F93CF93DF93CDB70F
:10428000DEB7C851D1400FB6F894DEBF0FBECDBF28
:10429000E091250DF091260D309709F47CC08F70C8
:1042A00066E8869FE00DF11D112490E8DE01A75617
:1042B000BF4F01900D929A95E1F79E0127563F4F0F
:1042C000AE01475E5E4FF90190E0619196274E176F
:1042D0005F07D9F74DE7498341E14A838B83892FF3
:1042E0008F778C83991F9927991F9D8340E050E019
:1042F000E0E8F0E087E001E010E0D90160E070E084
:1043000090E0FD90F7FE07C07801062E01C0EE0C8C
:104310000A94EAF79E296F5F7F4F681790F37A013E
:104320007FEFE71AF70AA6E0B0E0AC0FBD1FA40FBD
:10433000B51F9C93DA011696AA24A394B12CAC0E57
:10434000BD1EAA0EBB1E690190E0D6016D916D01E4
:104350006F77D5016D935D019F5F8913F6CF815013
:10436000682F70E04E5F5F4F460F571F6E0D7F1D29
:104370003797295F3F4FEB3FBFEFFB0739F0E7303F
:10438000F10510F48E2FB9CF87E0B7CF6A5F7F4F6A
:10439000CE0101962DDFC85EDE4F0FB6F894DEBF6A
:1043A0000FBECDBFDF91CF911F910F91FF90EF9086
:1043B000DF90CF90BF90AF9008958091120B88232B
:1043C000B9F020911E0B30911F0B8091200B909122
:1043D000210B2817390761F48091110B803118F0F7
:1043E0001092120B089591E0980F9093110B3DCF0E
:1043F0000895CF93DF93FC01E05AF74F2081DC0151
:10440000A759B74F3496EC0136E8239FC00DD11D54
:1044100011244C916081CE010E945403811112C07D
:10442000FE01E058FF4F20813181FE01E20FF11DB6
:1044300090819F3F41F0C20FD31F888186FB882760
:1044400080F901C080E0DF91CF910895CF93DF9391
:10445000FC012CED260F213308F044C0822F6CE0C4
:104460000E940635843009F483E09CE0899F20197E
:1044700011242D3008F02CE09DE0899F200D11249F
:10448000443610F460E001C060E4DF01A05AB74F89
:104490008C91A82FB0E0AF0196E8899F400D511D87
:1044A0001124EA01C058DF4F88818F7390E0EA0140
:1044B000C80FD91F38813F3F11F0307801C030E07C
:1044C00076E87A9FA0017B9F500D11244E0F5F1F4D
:1044D000DA01A80FB91F262B232B2C93E459F74F91
:1044E00081E08083DF91CF9108950F931F93CF9345
:1044F000DF93CDB7DEB72C970FB6F894DEBF0FBEB3
:10450000CDBF89019DE799839AE19A83982F97708F
:104510009B83DE011496FB0130E06115710529F0E3
:10452000381718F490819F7001C090E09D933F5F11
:104530003196343091F7842F87708887DE01199681
:10454000F80190E00115110529F0941718F4808105
:104550008F7001C080E08D939F5F3196943091F70A
:104560006CE070E0CE01019643DE2C960FB6F89415
:10457000DEBF0FBECDBFDF91CF911F910F91089588
:10458000FC0180911D0B882301F110921D0B90916D
:104590001C0B90839F3F19F4FA0110820895A8E143
:1045A000BBE0FB019D9191939BE0AC31B907D1F742
:1045B0009091170BFA019083A3E1BBE0F9019D9163
:1045C00091939BE0A731B907D1F708958091FF0A35
:1045D00008958091FE0A08958091FD0A0895CF9371
:1045E000DF9300D000D0CDB7DEB79DE7998395E18A
:1045F0009A838F708B836F736C8364E070E0CE015D
:104600000196F6DD0F900F900F900F90DF91CF91F4
:104610000895CF93DF9300D000D0CDB7DEB79DE7EC
:10462000998398E19A838F708B836F736C8364E0B6
:1046300070E0CE010196DCDD0F900F900F900F908F
:10464000DF91CF910895CF93DF9300D01F92CDB724
:10465000DEB79DE7998397E19A8387708B8363E048
:1046600070E0CE010196C4DD0F900F900F90DF91A6
:10467000CF9108958F70F9CDCF93DF9300D000D004
:104680001F92CDB7DEB7FE01319695E0DF011D9296
:104690009A95E9F79DE7998399E19A838F708B83C7
:1046A0006F736C834D8365E070E0CF01A1DD0F90E7
:1046B0000F900F900F900F90DF91CF910895CF93AF
:1046C000DF93CDB7DEB727970FB6F894DEBF0FBEE6
:1046D000CDBFFE01319697E0DF011D929A95E9F773
:1046E0009DE7998396E19A838F708B836F736C83B8
:1046F000842F8F778D83441F4427441F4E832F7050
:104700002F8367E070E0CF0173DD27960FB6F89432
:10471000DEBF0FBECDBFDF91CF9108951F93CF9322
:10472000DF93EC01162FEAA5FBA54FEF60E470E0E4
:10473000808191810E94252F1CA71EA61DA61DAA5F
:104740001CAA1BAA1AAA8FEF9FEF9FAB8EAB99AF43
:1047500088AF0FB6F8948091EF0E9091F00EA09173
:10476000F10EB091F20E0FBEFE01EE5BFE4F8083A4
:104770009183A283B383339710821CAE1BAE1DAE10
:104780001EAE3196118210828AAD81708260816086
:104790008AAFDF91CF911F910895813108F081E0B8
:1047A0008093230D609308014093220D811102C074
:1047B00060E001C0682F87E29DE0B0DF8091220DAC
:1047C000882321F083E08093610D08951092610D9C
:1047D00008954F925F926F927F928F929F92AF92C5
:1047E000BF92CF92DF92EF92FF920F931F93CF93DE
:1047F000DF93CDB7DEB7C258D1090FB6F894DEBF4C
:104800000FBECDBFDC016430710508F4EBC28C91A2
:10481000803F09F0E7C2FD01E60FF71F3197808165
:10482000873F09F0DFC2AB01425051090091250DCD
:104830001091260D0115110509F4D4C2423051051D
:1048400009F4D0C211968C9111978D3709F0CAC224
:104850001296EC911297CE2ED12CF6017097E3317F
:10486000F10508F0BFC2E45BFF4F0C94843513964A
:104870008C918F70D2C04839510510F481E0B1C2DB
:1048800013967C90139715968C91159720E8829F2C
:10489000C001112414969C911497892B67507109BB
:1048A0009D012A5F3F4FE0E0F0E040E050E05A0118
:1048B0009FEFA91AB90A420F531FDA018C90EE2418
:1048C000E394F12CEC0EFD1EEE0EFF1E6901CA0CE6
:1048D000DB1CA501412C512C912CE038F10538F559
:1048E0004617570758F64F5F5F4FD6016D906D0121
:1048F0005401042C02C0B694A7940A94E2F7A0FCD9
:1049000002C090E001C090E89629D7019D937D01F7
:104910003196BFEF4B1A5B0A97E049165104E9F64E
:10492000E038F10521F04617570708F2A7CFFE013E
:1049300031965E01A1E8AA0EB11C90E02191922768
:10494000EA15FB05D9F7891399CFC058DF4F888145
:10495000C058D0408150803408F042C2B72DBF709B
:104960009B2E8090240DCB2ED12C7801E6E8BE9FA3
:10497000E00CF11C112480E8FE013196D701019072
:104980000D928A95E1F7C7010E94D605F701E0581C
:10499000FF4FD701A158BF4F8C9190E0208131810A
:1049A0002817390714F01182108226E82C9DC001C7
:1049B0002D9D900D1124080F191FF801EE57FF4F80
:1049C000D801A158BF4F8C9190E0208131812817E8
:1049D000390714F01182108281E08826C1F0D69444
:1049E000DC2CCC24D794C794860100581F4FD39455
:1049F0000C151D0561F0D7016D917D01F501118345
:104A00000083C5010E94D0020F5F1F4FF1CF80E0ED
:104A100016DC882009F4E6C1892D27DCE3C1109259
:104A2000110B81E08093120BC8DCDCC147305105CB
:104A300008F4D8C114962C911497922F9F73139653
:104A40008C9113978F707801F6E88F9FE00CF11C22
:104A50001124A70141585F4FFA018081981708F08F
:104A6000C1C117966C911797892F90E0A701480F45
:104A7000591F15963C91159716967C9170FB37F946
:104A8000DA013C93959587952170220F220FF7014B
:104A9000E80FF91FE05CFF4F4FE050E0022E01C02D
:104AA000440F0A94EAF7942F909530819323862F30
:104AB0008F7001C0880F2A95EAF749C0433051052D
:104AC00009F490C114968C9114978F779FEF980FEB
:104AD000903408F087C113969C919F70F801B6E856
:104AE0009B9FE00DF11D1124E158FF4F41C045305F
:104AF000510508F477C114968C911497E82FEF7341
:104B000013962C9113972F7030E0877041E050E09E
:104B1000BA0102C0660F771F8A95E2F7CB0115969E
:104B20004C91F0E093E0F595E7959A95E1F796E8DA
:104B300040FF0FC0929FA001939F500D1124980138
:104B4000240F351FE20FF31FE05AFF4F9081892B8E
:104B50000FC0929FA001939F500D11249801240F24
:104B6000351FE20FF31FE05AFF4F80959081892394
:104B70008083F801E459F74F81E0808333C14530E9
:104B8000510508F42FC114968C91149713962C910B
:104B900013972F70982F9F73969596959F5F8370AC
:104BA000880FF80176E8279FE00DF11D1124E90F29
:104BB000F11DE859FF4F23E030E0082E01C0220F1D
:104BC0000A94EAF7922F90952081922315962C91C2
:104BD000237001C0220F8A95EAF7822FB8CF4C309C
:104BE000510508F4FFC013968C9113978770853098
:104BF00008F084E080931C0BBD016C5F7F4F28E1BF
:104C00003BE0AD01485F5F4FFB018191BF018F70B9
:104C1000F90181939F0164177507B1F718968C917C
:104C200018978770853008F084E08093170BFD019A
:104C3000399643E15BE09D01235F3F4F91919F7067
:104C4000DA019D93AD01E217F307C1F781E080938C
:104C50001D0BC8C09091ED0A8091EF0A811182E08E
:104C6000982BF801E859F74F8081882311F031978C
:104C700003C0F801EC59F74F8081FE01319625E021
:104C8000DF011D922A95E9F72DE7298321E22A8386
:104C90002091EC0A2B839C838D8365E070E0CF012B
:104CA000A7DA81E080931D0B8FEF80931C0B9AC0D5
:104CB0004330510509F496C013969C9113971496AE
:104CC0008C911497913110F49093EC0A982F917075
:104CD0009093ED0A869581708093EF0A44305105D8
:104CE000F1F015968C91877091E0F801E459F74F37
:104CF000908332972081D801A859B74F2F3F41F4B4
:104D00003697808331969083319610821C9205C02D
:104D1000F801E959F74F80839C938093EE0A6091E4
:104D2000EC0A80E190E09A8389838E010F5F1F4F28
:104D3000C8010E94D0026091ED0A81E190E09A835F
:104D40008983C8010E94D0026091EE0A82E190E05E
:104D50009A838983C8010E94D0026091EF0A83E19F
:104D600090E09A838983C8010E94D0024091EF0AA3
:104D70006091ED0A8091EC0A10DD80E060DA8091AC
:104D8000ED0A9091EF0A911102C020E001C022E0EB
:104D9000282B8091250D9091260D009769F0FC013C
:104DA000E859F74F3081332311F0319703C0FC01EC
:104DB000EC59F74F808101C080E095E0F801119235
:104DC0009A95E9F79DE7998391E29A839091EC0A8D
:104DD0009B832C838D8365E070E0C80109DA02C0F3
:104DE00082E02DDACE57DF4F0FB6F894DEBF0FBE4C
:104DF000CDBFDF91CF911F910F91FF90EF90DF908A
:104E0000CF90BF90AF909F908F907F906F905F906A
:104E10004F9008959093260D8093250D4FEF60E4F9
:104E200070E089E79EE00E94252F60E087E29DE028
:104E300075DC1092610DE7E2FDE089EE93E2938B61
:104E4000828B86E998E29783868388E298E295834D
:104E5000848310921F0B10921E0B1092210B109244
:104E6000200B1092120B0895DC018D919C91DC01B6
:104E7000ED91FC910190F081E02D09946D3F28F4B3
:104E80006A3F28F4683F39F402C06E3F20F0FC010D
:104E900080819181E9CF08950F93CF93DF934111E2
:104EA00019C0C62FD82F222321F06AEF81E59DE09B
:104EB000E5DF002321F06CEF81E59DE0DFDFDD23FE
:104EC00049F0CC2339F068EF81E59DE0DF91CF9187
:104ED0000F91D4CFDF91CF910F910895EF92FF9270
:104EE0000F931F93CF93DF930150003108F567FFB5
:104EF0001FC0D22F142FC62F7C01602F6C2BFC01FA
:104F000082A593A5B1DF612F6F77F70182A593A5E5
:104F1000ABDFCF7EC03C61F06D2F6F77F70182A5CC
:104F200093A5DF91CF911F910F91FF90EF909CCFB0
:104F3000DF91CF911F910F91FF90EF9008950F9304
:104F4000613E10F4CBDF05C0683F18F08A960F91E0
:104F500095CF0F9108950F93022F242F462F60E8CD
:104F6000BDDF0F9108958091FA0A882351F0ECD8A3
:104F7000282F40E06091FB0A87E29DE0ECDF109271
:104F8000FA0A0895CF93C091F90ACC2349F0DCD8EE
:104F9000282F40E06C2F87E29DE0DDDF1092F90AB8
:104FA000CF9108950F93022F242F462F60E996DFAB
:104FB0000F9108951F93CF93DF93C82F162F8091E1
:104FC000FA0A882359F0D091FB0ADC1739F0BCD8D3
:104FD000282F40E06D2F87E29DE0BDDF8091FA0A27
:104FE000882321F08091FB0AC81761F0ADD8282FE3
:104FF000412F6C2F87E29DE0D5DFC093FB0A81E053
:105000008093FA0ADF91CF911F9108951F93CF9358
:10501000DF93882319F0CCE4DFE702C0C8E5D0E5D0
:105020001091F90A112339F08FD8282F40E0612F11
:1050300087E29DE090DF88D8282F4D2F6C2F87E2E4
:105040009DE0B0DFC093F90ADF91CF911F910895E1
:105050000F931F93CF93DF939091230D992311F01A
:1050600098135FC09091240D91114EC0C62FD82F78
:105070001091FC0A862F8ED8C11333C04091000BCB
:10508000442379F150E041505109FA01E75FF44FB0
:105090001081FA01EF5FF44F00812D2F402F612F17
:1050A00087E29DE07FDF8091220D811106C02D2FC8
:1050B00040E06C2F87E29DE04EDF1093FC0A81E018
:1050C0008093FD0A8093FE0A8091250D9091260D14
:1050D000009739F1402F612FDF91CF911F910F91F0
:1050E000B5C98091220D811106C02D2F40E06C2F93
:1050F00087E29DE030DFC11314C01092FE0A1092C7
:10510000FD0A1092FC0A0DC09091220D911109C068
:10511000282F40E087E29DE0DF91CF911F910F9112
:105120001ACFDF91CF911F910F910895EF92FF92C7
:105130000F931F93CF93DF93442309F46BC0909197
:10514000230D992311F0981365C0D42FC62F182F63
:105150000091240D011147C0F090FC0AE090FE0A76
:10516000862F18D88091000B883068F4282F30E003
:10517000F901E75FF44FC083F901EF5FF44FD0838B
:105180008F5F8093000B8091220D811118C0212F19
:105190004D2F6C2F87E29DE0EE2069F0CF1559F07E
:1051A00001DF212F40E06F2D87E29DE0D4DE81E01A
:1051B0008093FD0A0CC0F6DE1092FD0A08C0EE20B6
:1051C00021F001E0CF1101C000E00093FD0A81E071
:1051D000D43608F480E08093FF0A81E08093FE0AD1
:1051E000C093FC0A08C08091220D811104C0212FB8
:1051F00087E29DE0D7DE8091250D9091260D0097E6
:1052000049F04D2F6C2FDF91CF911F910F91FF909F
:10521000EF901CC9DF91CF911F910F91FF90EF90FC
:105220000895AF92BF92CF92DF92EF92FF920F93C9
:105230001F93CF93DF936C01C62F0E94A420182FD9
:10524000F601E359F74F8081B090F70A882369F09F
:10525000BB2009F464C0212F40E06091F80A87E286
:105260009DE079DE1092F70A5AC0F601E759F74F30
:10527000A08039978081760196E8899FE00CF11C27
:1052800011246A2DC7010E94BB038C5DD0E0C80FBA
:10529000D11DC038D10510F0CFE7D0E0C601A9D8A4
:1052A000811102C000E501C00FE7BB2069F1B09099
:1052B000F80A8B2D90E08C179D0789F1F601EC59C7
:1052C000F74F4A2D6081C7010E945403212F882384
:1052D00069F0402F6C2F87E29DE064DE212F40E0D3
:1052E0006091F80A87E29DE036DE0BC040E06B2D4E
:1052F00087E29DE030DE212F402F6C2F87E29DE07A
:1053000051DEC093F80A0BC0212F402F6C2F87E28B
:105310009DE048DEC093F80A81E08093F70ADF91B0
:10532000CF911F910F91FF90EF90DF90CF90BF90A2
:10533000AF900895FF920F931F93CF93DF93209127
:10534000F70A2223D9F1FC01E359F74F20812111FB
:1053500035C0C62F8C010E94A420F82EF801E75911
:10536000F74FD801A05AB74F8C916081980146E859
:10537000849F200D311D1124C9010E94BB038C5D47
:10538000D0E0C80FD11DC038D10510F0CFE7D0E074
:10539000C8012FD8811102C010E501C01FE72F2DD1
:1053A00040E06091F80A87E29DE0D5DD2F2D412F86
:1053B0006C2F87E29DE0F6DDC093F80ADF91CF9174
:1053C0001F910F91FF900895CF93DF93EC01E88137
:1053D000F981309711F0CB9609958CAD823F09F495
:1053E00094C050F5803C09F476C098F4803909F4F3
:1053F00043C030F4803809F0A5C0EC81FD8163C062
:10540000803A09F45EC0803B09F09CC0EA85FB85C8
:105410005AC0803E09F442C030F4803D09F092C089
:10542000EE85FF855AC0803F09F45EC0813F09F0D8
:1054300089C0EC89FD8979C08A3F21F190F4863FCB
:1054400009F479C030F4833F09F07CC0E88DF98D10
:105450006CC0883FA1F0893F09F074C0E8A1F9A1B0
:105460006CC08C3FA9F088F08E3FA9F08F3F09F007
:1054700069C0E8A5F9A561C0EE81FF8124C0EC8D6B
:10548000FD8D5BC0EE8DFF8D58C0EAA1FBA155C01C
:10549000ECA1FDA152C0EEA1FFA14FC0E889F9899E
:1054A000309709F44FC06EAD6F7720E8629FB0016E
:1054B00011248DAD8F77682B70528BADDF91CF911A
:1054C0000994E885F9853097E9F14EAD6DAD8BAD66
:1054D000DF91CF910994EC85FD85309799F16DAD01
:1054E0008BADDF91CF910994EA89FB89309751F117
:1054F0006DAD7EAD613081E0780710F060E071E065
:10550000CE01CF96DF91CF910994EE89FF89309734
:10551000C9F08EAD8F7720E8829FC00111242DAD98
:105520002F77822BDF91CF910994309759F08DAD71
:10553000DF91CF910994EA8DFB8D309719F0DF91BF
:10554000CF910994DF91CF910895EF92FF920F933D
:105550001F93CF93DF93EC019AAD292F217090FF19
:1055600089C0892F8E7F09F485C0362F6CAD80E805
:10557000860F8136D0F40BAD031719F021E03111FD
:1055800020E09695923031F0933041F0913009F05F
:1055900071C006C0222309F46DC002C021116AC087
:1055A0002EAD4DADCE01CBDC65C0862F90E0FC0169
:1055B000E05FF109E031F10508F05CC0E15AFF4F0E
:1055C0000C948435CE018A96DF91CF911F910F9173
:1055D000FF90EF9053CC8E01015C1F4F78018DAD91
:1055E0009EAD813021E0920710F080E091E0080F3D
:1055F000191F0E151F0509F43DC0F70161917F01C8
:105600008AA59BA531DCF5CF1DAD63EF8AA59BA5CF
:105610002BDC612F16C00EADF0E80F9F8001112426
:105620008DAD082B62EF8AA59BA51EDC602F6F77DE
:105630008AA59BA519DC000F012F001F110B1195E6
:10564000602F6F770EC08DAD877020E1829FC00103
:1056500011241EAD1F70182B61EF8AA59BA504DCD9
:10566000612F8AA59BA5DF91CF911F910F91FF908C
:10567000EF90FACBDF91CF911F910F91FF90EF90B8
:105680000895982F8F7C803849F0903D39F081E063
:10569000903E31F0903C21F080E0089581E0089543
:1056A000089587FF0AC09CE0980F923030F08D3F3C
:1056B00021F0803F18F4807F089580E0089589E705
:1056C0009EE09093780E8093770EE7E2FDE01182E2
:1056D000108213821282158214821782168211861A
:1056E0001086138612861586148617861686118AEA
:1056F000108A138A128A158A148A178A168A118EBA
:10570000108E138E128E158E148E178E168E11A279
:1057100010A213A212A215A214A217A216A211A6D9
:1057200010A687E79EE093A782A714A615A616A643
:1057300013AA12AA15AA14AA8FEF9FEF97AB86ABF4
:1057400091AF80AF83E08093610D13AE14AE15AEC0
:1057500016AE1092660E80E091E0E6E6FDE0DF0115
:105760009C011D9221503040E1F71092690E109279
:105770006A0E10926B0E10926C0E10926D0E1092BB
:105780006E0E10926F0E1092700E1092710E10929B
:10579000720E1092730E1092740E1092750E10927B
:1057A000760E08952F923F924F925F926F928F9252
:1057B0009F92AF92BF92CF92DF92EF92FF921F9390
:1057C000CF93DF9300D000D000D0CDB7DEB79E835B
:1057D0008D83462E5A83498379019093260D8093B9
:1057E000250D662361F08091240D811108C010926F
:1057F000000B1092FE0A1092FD0A1092FC0A4092D1
:10580000240DD7011C9280910801811103C0E98108
:10581000FA81108241100FC08091F70A882359F055
:105820000E94A420282F40E06091F80A87E29DE0C2
:1058300092DB1092F70A66246394CC24C394D12C93
:1058400090E8292E2D813E812F59374F3C832B83A1
:105850008D809E8030EA831A37EF930A3090530D83
:1058600080E1831508F4C9C1E091510DF091520D0A
:1058700080819181DC01ED91FC910084F185E02D26
:105880000995892B09F4B9C18091760E8E7F80939A
:10589000760EE091510DF091520D80819181DC01E5
:1058A000ED91FC910284F385E02D0995182F8D3F31
:1058B00009F4A3C180915B0D90915C0D009709F0F4
:1058C0006AC01093560DA090540D8A2DEADED9DEE1
:1058D000882351F017FD08C0A092560D1093570D64
:1058E000D0925C0DC0925B0D1091560D812FD9DEC8
:1058F000813FC1F1B0F4803BE1F140F48039C9F15E
:10590000803AB9F1803809F059C033C0803D51F177
:1059100018F4803C39F152C0803E59F1803F81F14A
:105920004DC0873F69F130F4833FE1F010F1863FCD
:1059300031F044C08D3F18F08E3F08F43FC0809393
:10594000630D1092620D1092640D1092650D6092BD
:10595000660E10925C0D10925B0D10925A0D109213
:10596000590D2DC1E2E0F0E0F0935A0DE093590D8E
:105970003CC023E030E030935A0D2093590D35C0E0
:10598000A0E0B1E0B0935A0DA093590D1092540DC0
:105990008093660D2AC017FF8CC01D3F08F059C0C8
:1059A000183F08F058C0103F09F04FC02091660D15
:1059B000203F09F45FC0273F09F45CC08091760E58
:1059C00081608093760EE091290DF0912A0D309739
:1059D00009F0099510925C0D10925B0D10925A0D12
:1059E0001092590D1092540D08C120915B0D309109
:1059F0005C0D4091590D50915A0D41505109241799
:105A00003507E0F08093630D812F8F70BB24B39432
:105A1000B80EB092620D8091570D8093640D109274
:105A2000650DD092680EC092670E10925C0D1092B8
:105A30005B0D10925A0D1092590D19C02F5F3F4FF8
:105A400030935C0D20935B0DD8C0173F09F4AECFA7
:105A500030C01E3F70F11093630D1092640D1092D0
:105A6000650D1092620DD092680EC092670E609222
:105A7000660EA5C09C012F5F3F4FFC01E95DF24F10
:105A800017AFB0EFB093630D2093640D3093650DA5
:105A90001092620D3093680E2093670E6092660E2E
:105AA00010925C0D10925B0D10925A0D1092590DD0
:105AB0007DC02091560DFC01E95DF24F203F11F0B1
:105AC000273F11F417AF01C017A7A090590DB09050
:105AD0005A0D9501215031098217930708F469C0C6
