:020000040000FA
:20000000FBC0000023C1000021C100001FC100001DC100001BC1000019C1000017C1000013
:2000200015C1000013C100000C94E2240C945F250DC100000BC1000009C1000007C1000020
:2000400005C1000003C1000001C10000FFC00000FDC00000FBC00000F9C000000C9461243F
:20006000F5C000000C9439210C9464210C949521EDC00000EBC00000E9C00000E7C00000AE
:20008000E5C00000E3C00000E1C00000DFC00000DDC00000DBC00000581C901C781C711C5F
:2000A000A71CA71C4F1CA71C4F1CA71C4F1C4F1C4F1CA71C4F1C4F1C0129022904290829D1
:2000C0001029202940298029012C022C01260226042608261026202640268026402C802CEA
:2000E0000123022304230823102320234023802301200220042008201020202040208020EA
:20010000102C202C012F022F042F082F102F202F402F802F7EFE7EFD7EFB7EF77EEF7EDF31
:200120007EBF7E7F00010000D5011200020000920143000300008E01040103090474011890
:20014000020309045C0116030309044E010C0C033100320033003400350000001603550030
:20016000530042002000530065007200690061006C00000018035400650065006E00730050
:2001800079006400750069006E006F0000000403090409024300020100C032090400000162
:2001A00002020100052400100105240100010424020605240600010705820308004009048F
:2001C0000100020A00000007050302400000070584024000001201000202000020C016835F
:2001E000047202010203010001C102018036018136008714CC1CB32111241FBECFEFD0E274
:20020000DEBFCDBF11E0A0E0B1E0EEE7FEE400E00BBF02C007900D92A83FB107D9F72EE0DD
:20022000A8EFB1E001C01D92A83AB207E1F710E0CCEFD0E004C02197FE010E940927C93F03
:20024000D107C9F70E94EC210C943D27D9CE8091B20A88B91EB88091AF0A282F220F909155
:20026000B00A30E4939FC0011124822B81608EB988E281500000E9F78091B10A811104C076
:200280009EB181E089278EB90895FC0193E0F595E7959A95E1F7FF278770E455F54F21E002
:2002A00030E0082E01C0220F0A94EAF7922F90952081922301C0660F8A95EAF7692B60839E
:2002C00008950F931F93CF93DF9300D000D0CDB7DEB700910A0110910B0120910C013091D8
:2002E0000D0109831A832B833C839FE091BB9CE391500000E9F7E82FF0E00E947D22DE0148
:20030000119680E090E070E0ED91F0E09B01082E02C0359527950A94E2F72170022E0E94D4
:20032000742201968430910579F70F900F900F900F90DF91CF911F910F910895CF93C62F46
:2003400081FB442740F950E0FA01E455F54F608170E0282F217030E0220F331F220F331FA6
:2003600002C0759567952A95E2F7837090E1899FF0011124E959FE4F8081A3DF4091AE0AD0
:2003800050E0A8EAB1E080E090E0EC91F0E09A01082E02C0359527950A94E2F72170022E9C
:2003A0000E947422019614968430910571F7CC2331F01092AC0A1092AD0A1092AE0ACF9197
:2003C00008956F927F929F92AF92BF92CF92DF92EF92FF920F931F93CF93DF932FE021BBB4
:2003E0008C988D988E988F982CE321500000E9F7DC019096AC014C5D5F4FC7EBD1E0E99123
:20040000F0E00E9470232C9130E0220F331F61E0E11101C060E0262B2D93A417B50779F75B
:200420000FEB11E05C0120E1A20EB11CACE39A2EBFEBCB2EB1E0DB2EF80121918F0130E017
:20044000F9010E947D22492D41500000E9F7ABEBB1E0EC016096F7EBEF2EF1E0FF2EBC01B6
:20046000ED91F0E00E9470233F01FB01408150E0440F551FF1E0611001C0F0E04F2BFB01BC
:200480004193BF01F70141917F01E42FF0E00E947023488150E0440F551FF1E0E11101C022
:2004A000F0E04F2B4993CA16DB06D1F6F9010E9477220496A816B90609F0BECFDF91CF91EC
:2004C0001F910F91FF90EF90DF90CF90BF90AF909F907F906F900895FF920F931F93CF9341
:2004E000DF93EC01F62E08811981C8010E942727F81621F06F2DC8010E942F27CE01DF91E2
:20050000CF911F910F91FF900895CF92DF92EF92FF920F931F93CF93DF9300D0CDB7DEB70A
:200520006C017C0100E010E0F70161917F011A830983CE010196D0DF0F5F1F4F0031110536
:2005400099F7C6010F900F90DF91CF911F910F91FF90EF90DF90CF900895262F2F7330E066
:2005600043E0359527954A95E1F7820F931FFC01E05AFF4F808190E0677002C09595879503
:200580006A95E2F781700895FC01E058FF4F20813181FC01E20FF11D40814F3F31F0FC01B6
:2005A000E20FF31F80818074089580E00895262F30E035952795820F931FFC01E05CFF4FF4
:2005C000808190E0462F417050E0440F551F440F551F02C0959587954A95E2F78F7008956A
:2005E000BF92CF92DF92EF92FF920F931F93CF93DF93EC01FC01EE57FF4F00811181602F7F
:20060000D6DFFE01823019F5E158FF4FE080CE2CD12C0C0D1D1D01501109FF24F394FE140E
:2006200078F5C801B6010E94F626B82E682FCE01BEDF882329F101501109813031F4CB0D48
:20064000D11D88818F3F81F41BC0F394E8CFE058FF4F80819181FE01E80FF11D20812F3F9B
:2006600079F0C80FD91F88818F73843350F46DE00E94C9262CE0829F900D1124892F01C0E6
:200680008CE0DF91CF911F910F91FF90EF90DF90CF90BF900895FC01EE57FF4F608187CF3F
:2006A000FC01962FDF01AE57BF4F6D917C919B0135952795462F417050E0440F551F440FE8
:2006C000551FE20FF31FE05CFF4F6FE070E0042E01C0660F0A94EAF7609580818623692F5C
:2006E00001C0660F4A95EAF7682B60830895FC01E058FF4F20813181FC01E20FF11D40815E
:200700004F3F29F4FC01E20FF31F8DE080830895DC0120E030E04DE04D93F901F595E79527
:20072000E80FF91FE05CFF4F10822F5F3F4F2034310591F7FC01E05AFF4F9C0128593F4F2F
:200740001192E217F307E1F7FC01E158FF4F28E0208308950F931F93CF93DF938C01FC01AD
:20076000E158FF4FD081C0E0CD1739F06C2FC8011EDF813021F0CF5FF7CF80E001C08C2F01
:20078000DF91CF911F910F910895AF92BF92CF92DF92EF92FF920F931F93CF93DF937C0181
:2007A000162FFC01E158FF4F0081C02ED12CD1E0A62EB12C0D1770F0C5018D0F911DB60157
:2007C0000E94E226C82F682FC701F1DE813021F0DF5FF0CF812F01C08C2FDF91CF911F91DF
:2007E0000F91FF90EF90DF90CF90BF90AF900895EF92FF921F93CF93DF93EC01FC01EC578D
:20080000FF4F80819E0120583F4F7901882351F01082CE019FDF90E0F70191838083329658
:2008200091838083F70110811F73612FCE01BFDE813059F0612FCE01A8DF90E0F70191832E
:200840008083CE57DF4F99838883DF91CF911F91FF90EF900895CF93DF93DC01AC57BF4F2E
:200860002C91EC01C058DF4FFC01EE57FF4F222351F01C921982188211821082E254F1093A
:2008800080818F7014C09C01DC01AB57BF4F1C9280819181019616976C9170E00E94F626EA
:2008A0008083918388839983682FC90180DE91E0811101C090E0892FDF91CF9108953F9211
:2008C0004F925F926F927F928F929F92AF92BF92CF92DF92EF92FF920F931F93CF93DF9344
:2008E000FC01E158FF4F5080552009F475C0EC0110E0612FCE015BDE823079F41F5F511288
:20090000F8CFFE01E05CFF4F8081807F8160808388818F3F11F48DE08883FE01E05CFF4FC6
:200920008081982F9F70923041F4807F8160808388818F3F11F48DE088838E01812C912CB9
:20094000E52CF12C2FE0C22ED12CAA24A394B12C4DE0342E482C851408F03EC0682DCE0195
:2009600026DE94012F5F3F4F4901811132C0C901B7010E94E226682FCE0119DE823049F57B
:20098000E42DEF73F0E0F595E79540FA662460F8712CA301440F551F440F551FEC0FFD1F0C
:2009A000E05CFF4FC601042E01C0880F0A94EAF780959081282F2923C50101C0880F4A9517
:2009C000EAF7822B8083F80180818F3F11F4F80130820F5F1F4FBECFDF91CF911F910F9185
:2009E000FF90EF90DF90CF90BF90AF909F908F907F906F905F904F903F9008950F931F93A3
:200A0000CF93DF9300D0CDB7DEB78C01FC01608980E190E09A838983CE0101965DDDF80113
:200A2000618981E190E09A838983CE01019654DD0F900F90DF91CF911F910F9108958AE9CC
:200A40009AE0DCDFEAE9FAE0618980890C94C516CF92DF92EF92FF920F931F93CF93DF933A
:200A600000D0CDB7DEB77695762F6627779567956C017B0180E8E80EF11C8B011395E016CA
:200A8000F10661F0F60161916F01FA82E982CE01019622DDFFEFEF1AFF0AF1CF0F900F906B
:200AA000DF91CF911F910F91FF90EF90DF90CF9008952F923F924F925F926F927F928F9206
:200AC0009F92AF92BF92CF92DF92EF92FF920F931F93CF93DF93CDB7DEB7C054D1090FB67B
:200AE000F894DEBF0FBECDBF8C014AE9C42E4AE0D42EE12CF12CC7010E942727F6018193A9
:200B00006F01FFEFEF1AFF0A80E1E816F10499F74CE050E06EE071E08AE99AE00E941927B7
:200B2000892B91F04CE050E06BE171E08AE99AE00E941927892B41F06EE071E08AE99AE047
:200B40000E941227F12C02C0FF24F3944CE050E06BE171E08AE99AE00E9419272C01FF201D
:200B600009F4B8C05801680120E8E22EF12C38E0332E370190E8690E711C4601E614F704A0
:200B800051F0C7010E942727F40181934F01FFEFEF1AFF0AF3CFF601E158FF4F8081811130
:200BA00001C03082C6018BDE86E8C80ED11C730190E8691698E07906E1F680E190E00E94B5
:200BC0002727F82E81E190E00E942727E0E1EF1518F0F092AA0A03C091E09093AA0A82301F
:200BE00010F4817001C081E08093AB0A452809F0A6C07801C12CD12C8DE0382E96E8292E3F
:200C000080E4F701DE01119601900D928A95E1F780E090E0F701E80FF91F308201968034F7
:200C20009105C1F7512C412C3701FFE76F0E711C2C9C40012D9C900C1124800E911EF30180
:200C400080815816C0F4652DC701B1DC813089F4FFE3F41568F0E1E0F0E0EC0FFD1FE40D80
:200C6000F11D80818F3F21F0F401E50DF11D808343945394E4CFC70122DE8FEFC81AD80A13
:200C800096E8E90EF11CE0E1CE16D10409F0B8CF6EE071E08AE99AE00E9412278AE99AE084
:200CA00034DC81E0F801EA59F74F8083E12CF12CB701C501CDDEFFEFEF1AFF0A86E8A80EC7
:200CC000B11C90E1E916F10499F7F801EA59F74F108235C0E12CF12CC8018E0D9F1D18DD0A
:200CE000E6E8EE0EF11CF0E6EF16F8E0FF06A1F7FF24F394F092AA0AF092AB0A6EE071E017
:200D00008AE99AE00E9412278AE99AE0FEDB8AE99AE074DEF801EA59F74FF0826801E12C9C
:200D2000F12CB701C60194DE8FEFE81AF80A96E8C90ED11CE0E1EE16F10499F7C6CFC05CE6
:200D4000DF4F0FB6F894DEBF0FBECDBFDF91CF911F910F91FF90EF90DF90CF90BF90AF9094
:200D60009F908F907F906F905F904F903F902F9008958F929F92AF92BF92CF92DF92EF92E7
:200D8000FF920F931F93CF93DF93FC01E05AF74F2081E22EF12CEC0136E8239FC00DD11DC7
:200DA0001124FE01E158FF4FA08021E02A1508F042C08C01339680809180682DCE01F7DB81
:200DC0008823C9F1FE01EB57FF4FB080B11033C0CA2CD12CC4018C0D9D1D0197B6010E943F
:200DE000F626982E812C692DCE01E1DB882321F1692D70E0813099F426E82E9DC0012F9DFC
:200E0000900D1124080F191FF801E60FF71F80818F3F91F0B82EBB1CBB24BB1C0DC0CB0151
:200E20008C0D9D1D0197B6010E94F626982E8394A810D9CF01C0B12C8B2DDF91CF911F913F
:200E40000F91FF90EF90DF90CF90BF90AF909F908F900895EF92FF920F931F93CF93DF9363
:200E6000EC017C0120EAE21A27EFF20AF701808106E89E01089F200D311D1124C901EBDC82
:200E8000182FF7019081FE01099FE00DF11D1124EE57FF4F20813181232B31F4FE01EF598B
:200EA000F74F8081891330C0112309F445C0F70180819E0146E8849F200D311D1124C901C6
:200EC000F901E058FF4F2081FC01E20FF11D208120582F3788F0FC01EE57FF4F608171819B
:200EE0003397208130E06217730744F46F5F5FDB91E0823019F403C091E001C090E0FE01B0
:200F0000EB59F74F908318C0F70180839E01089F200D311D1124C901F901E058FF4F11828E
:200F20001082329611821082329621E020833196208391DC182FB8CFC959D74F81E08127D0
:200F40008883812FDF91CF911F910F91FF90EF9008959C01FC01E05AF74F8081A90166E8F8
:200F6000869F400D511D1124FA01E058FF4F11821082329611821082329641E04083319656
:200F80004083F901EC59F74F8FEF808331961082329640830E94A12431966083718382839A
:200FA00093830895FC01E05AF74F208136E8239F800D911D112414DB8C5D08950F931F9347
:200FC000CF93DF938B01EC01CE59D74F442331F0288139812617370709F0BBDF1983088357
:200FE000DF91CF911F910F910895CF92DF92EF92FF920F931F93CF93DF938C01EB01FC01B2
:20100000E05AF74F8081C82ED12C780196E8899FE00CF11C1124C7016ADBF701E058FF4F84
:20102000A081B181F701EA0FFB1F4081542F5F73852F6DE00E94C9269E01280F311D243032
:20104000310514F023E030E066E86C9DC0016D9D900D1124800F911FA80FB91F37FF02C089
:2010600020E030E03DE0852F632F0E94C926329F900D1124407C492B4C93F801EA59F74F38
:2010800081E08083DF91CF911F910F91FF90EF90DF90CF9008956F927F928F929F92AF92AE
:2010A000BF92CF92DF92EF92FF920F931F93CF93DF93EC01FC01EE59F74F80819181329780
:2010C000019709F043C08081E82EF12C6E0126E8829FC00CD11C1124C6018ADBC6013ADBB4
:2010E000F601E058FF4F1081012F0F73801709F467C031976080862C912C5401A00EB11C8E
:2011000077247394671470F0C50187199109B4010E94E226182F682FC60149DA813019F071
:201120007394F0CF102F812F90E046E84E9D90014F9D300D11242C0F3D1FF901E058FF4F6B
:20114000918380833296918380833CC08081482F50E09E0166E8869F200D311D1124C90169
:20116000F901EC57FF4F208121112AC03497208131812115310531F4329680819181892BE9
:2011800071F41EC01216130654F42150310931832083FC01EE57FF4F3183208313C026E8B9
:2011A000249FC001259F900D11248C0F9D1FFC01E058FF4F1182108232961182108202C067
:2011C00080E004C0CA59D74F81E08883DF91CF911F910F91FF90EF90DF90CF90BF90AF90AC
:2011E0009F908F907F906F9008959C01FC01E05AF74F8081A90166E8869F400D511D1124CE
:20120000CA013296208131812230310521F4FA01EE57FF4F06C02130310529F4FA01E05820
:20122000FF4F60819AC980E008959C01FC01EE59F74F80819181029749F532978081A9019A
:2012400096E8899F400D511D1124FA01EE57FF4F8081982F9F73E92FF0E093E0F595E7952F
:201260009A95E1F7E40FF51FE05AFF4F482F477081E090E001C0880F4A95EAF79081892700
:201280008083F901EA59F74F81E080830895AAE5B1E080E0ED91F0E0E059F54F90819F705C
:2012A00009F08F5F91E0A736B907A1F708958091780A8F7059F48091790A8F7039F4909144
:2012C0007A0A9F7081E019F480E0089581E00895BF92CF92DF92EF92FF920F931F93CF9327
:2012E000DF93082F662329F08AEF91E07EDF811104C180915A0AC6E8C89FC00111248650AF
:201300009E4F76DA002309F458C080917A0A8F708130E9F480915C0A90915D0A0197A1F40A
:2013200080915A0AC89FE0011124C650DE4FCE01DED9FE01E058FF4F80819181C80FD91F8B
:20134000988180E48927888381E08093600A80917B0A8F708130E9F480915C0A90915D0A55
:201360000197A1F4C0915A0A86E8C89FE0011124C650DE4FCE01BBD9FE01E058FF4F808174
:201380009181C80FD91F88818058888381E08093600A8091790A8F70813029F461E070E0B0
:2013A0008AEF91E022DE8091780A8F70813029F46FEF7FEF8AEF91E018DEE7E6EE2EE1E08D
:2013C000FE2E1CE0F6E8CF2EADE0DA2ED701EE917D01F0E0E059F54F80818F70B82EB1E0DC
:2013E0008B1388C0C0915A0A002301F1CC9EE0011124C650DE4FCE017AD9FE01E058FF4FD3
:2014000080819181C80FD91F2881822F8F736D2D0E94C926912F8D9D900D1124892F8F73ED
:20142000207C282B2883B092600A64C08091780A8F709091790A9F70882319F0911108C0DF
:2014400002C0911107C041E0882329F040E003C043E001C042E02C2F30E0A6E8CA9FE00150
:201460001124C650DE4FFE01E058FF4F60817181C60FD71F50917A0A5F7081E090E011F4C7
:2014800080E090E0FC0176E0EE0FFF1F7A95E1F750917B0A5F7081E090E011F480E090E04C
:2014A0009695982F8827979587958E2B807CBDE04B9F100D1124812B888381E08093600A20
:2014C00086E8829FE001839FD00D1124C650DE4FFE01EB57FF4F10826F73CE0156D990E0B4
:2014E000FE01E058FF4F91838083CE57DF4F9983888303C0115008F069CFDF91CF911F9102
:201500000F91FF90EF90DF90CF90BF900895CF93C82F662329F08AEF91E067DE811145C0A2
:201520008091780A8F70813091F4C11103C08AEF91E090DC80915A0A26E8829FC00111245E
:2015400061E086509E4FACD881E08093600A8091790A8F70813091F4C11103C08AEF91E0DD
:2015600079DC80915A0A26E8829FC001112462E086509E4F95D881E08093600A80917A0A97
:201580008F70813091F4C11103C08AEF91E062DC80915A0A26E8829FC001112460E08650A9
:2015A0009E4F7ED881E08093600ACF910895CF93DF938AEF91E00E945118CDEDD1E08991BF
:2015C0000E944A2281E0C53ED807C9F7C3ECD1E089910E943922E1E0CD3DDE07C9F7E6E24B
:2015E000F0E00E947722E7E2F0E00E947722E8E2F0E00E947722E9E2F0E00E94772280E7FA
:201600009AE00E94E1018091910A8F7019F0E0E0F0EF09958AEF91E04CDA6091AB0A809114
:20162000AA0ADF91CF910C94C516FF920F931F93CF93DF93C0915A0A0C2F10E086E8C89F3D
:20164000E0011124C650DE4FFE01E058FF4F80819181FE01E80FF11D20812F3F09F492C037
:20166000FE01E80FF91F80818F7390E06DE070E00E94F626F82E880F991FFC01E05CFE4F93
:2016800061E0808191810E944501CE010E94C40261E0811101C060E08AE090E00E94450141
:2016A00026E8209FC001219F900D112486509E4FFC01E058FF4F2081FC01E20FF11D608146
:2016C0006F3F21F0661F6627661F01C060E08BE090E00E94450126E8209FC001219F900D05
:2016E000112486509E4FFC01E058FF4F2081FC01E20FF11D80818F3F51F0CE010E94F0025F
:201700006CE00E94C926C82F882339F001C0C1E061E0C33019F060E001C061E088E090E068
:201720000E9445018CE0F81229C026E8209FC001219F900D112486509E4FFC01E058FF4FFC
:2017400020813181FC01E20FF11D40814F3F61F0FC01E20FF31F80818F7390E06DE070E08A
:201760000E94F626613051F460E089E090E0DF91CF911F910F91FF900C94450161E0C230F4
:20178000A0F7F2CFDF91CF911F910F91FF90089580915A0A26E8829FC001112486509E4F48
:2017A0000E944B0361E0813009F060E088E090E00E94450180915A0A26E8829FC0011124B4
:2017C00086509E4F0E944B0361E0823009F060E089E090E00E94450180915A0A26E8829FC5
:2017E000C001112486509E4F0E944B0361E0811160E08AE090E00E94450180915A0A26E8E8
:20180000829FC001112486509E4FFC01EE57FF4F60810E94AD02682F8BE090E00C944501D4
:20182000BF92CF92DF92EF92FF920F931F93CF93DF936C01062F80915C0A90915D0A8130F9
:20184000910519F0029749F018C0F6018081882311F081E03DDDE9DE10C0F60180818823E6
:2018600059F080917B0A8F70813019F48AEF91E0DCDC602F81E04BDE8BDF80917F0A8F700E
:20188000813009F041C08AEF91E005DCF60180818823D1F1011138C080915C0A90915D0A64
:2018A000019791F5C0915A0AF6E8CF9FE0011124C650DE4FCE010E944B03882329F18AEFB3
:2018C00091E070DB10910001E12EF12CE80EF11CF0E8EF16F10418F08FE7E82EF12CCE0129
:2018E0000E94C40281112EC020E5B22ECE010E94F0021C5F810F80936A0A81E080936B0A3D
:201900006B2D8E2D0E94141980917F0A8F708830E1F4F60180818823C1F0011116C0809132
:201920005C0A90915D0A019781F410926B0ADF91CF911F910F91FF90EF90DF90CF90BF904A
:201940000C94FA189FE7B92ED1CFDF91CF911F910F91FF90EF90DF90CF90BF900895AF929F
:20196000BF92CF92DF92EF92FF920F931F93CF93DF93EC016B017A0180915C0A90915D0A37
:201980008130910521F088F0029731F0D9C088818111D6C04ADE04C088818111D1C0F8DE05
:2019A00010925D0A10925C0ACBC061E08091980A8C3008F060E080915A0A877090E00E9425
:2019C000450180915B0A90915A0A981729F0877061E090E00E94450180915A0A90E043E066
:2019E000959587954A95E1F761E0892B09F060E08AE090E00E94450180915A0A90E033E002
:201A0000959587953A95E1F761E0892B09F460E08BE090E00E944501F7018081882329F126
:201A20008881882311F1E0915A0AC6E8CE9FF0011124E458FD4F8081918161E08770992747
:201A40000E944501E0915A0ACE9FF0011124E458FD4F80819181992723E0959587952A95D3
:201A6000E1F761E00C960E94450100E71AE0D0E086E8A82EF80181918F018F70B82EF1E09D
:201A80008F1339C0C0915A0AC87FCD0FF6018081882341F1AC9EC001112486509E4F0E9459
:201AA0008803B092600A80915A0AC81307C08AEF91E04FDA10925D0A10925C0A0FB6F89463
:201AC00080919E0E90919F0EA091A00EB091A10E0FBE8093660A9093670AA093680AB093E0
:201AE000690A09C0F7018081CF70C0935B0A811102C0C0935A0ADF5FD83009F0BBCF8091D5
:201B00007A0A8F70813059F4F701908180915A0A877080935B0A911102C080935A0A80916B
:201B20007B0A8F70813061F4F701908180915A0A8770885F80935B0A911102C080935A0A6C
:201B40000FB6F894C0909E0ED0909F0EE090A00EF090A10E0FBE8091660A9091670AA091CD
:201B6000680AB091690AC81AD90AEA0AFB0A80915C0A90915D0A61E0029741F0F0E9CF16B9
:201B8000F1E0DF06E104F10408F060E080E190E00E94450180915C0A90915D0A61E00197EC
:201BA00041F080E9C81681E0D806E104F10408F060E082E190E00E94450180915C0A909109
:201BC0005D0A892B41F461E0E0E9CE16E1E0DE06E104F10408F460E083E190E00E94450150
:201BE000F0E9CF16F1E0DF06E104F10478F461E081E190E0DF91CF911F910F91FF90EF90EA
:201C0000DF90CF90BF90AF900C944501DF91CF911F910F91FF90EF90DF90CF90BF90AF90F8
:201C20000895CF936091980A62FB662760F982E190E00E944501C09100018C2F6CE00E9419
:201C4000C926E92FF0E0EE0FFF1FE05CFE4F61E0808191810E94450161E0CC3028F08CEDFF
:201C60008C0F8C3008F060E088E090E00E94450161E0C83108F460E089E090E00E944501DE
:201C8000AAE5B1E020E03CE0ED91F0E0E059F54F80818F70813041F48C2F632F0E94C92679
:201CA000C22F839FC00D11242F5F2D3069F7C09300018091780A8F708130D9F48C2F6CE059
:201CC0000E94C926282F30E0882331F0253031052CF42FEF280F03C020E001C023E03CE09D
:201CE0008C2F632F0E94C926239F900D1124909300018091790A8F708130B1F44091000193
:201D0000842F6CE00E94C926833018F421E0280F01C023E03CE0842F632F0E94C926239FC4
:201D2000900D112490930001CF9108958F929F92AF92BF92CF92DF92EF92FF920F931F9394
:201D4000CF93DF9300D000D0CDB7DEB780E79AE00E94E1018091810A8F70E82E8091800A45
:201D60008F7091E009F490E09C838091880A8F7091E009F490E09B831091910A1F7000916D
:201D8000890A0F70B0908A0AA0908B0A9091F901911107C0111105C0002319F0813009F453
:201DA00018C58091900A8F7039F460916E0A662321F06091AB0A01C061E06A8319829E019D
:201DC0002F5F3F4F4EE65AE08AEF91E00E943F1DF98090916E0A911108C08091930A8F7068
:201DE000FF24F394813009F0F12C8091800A8F70883019F48A81882339F08091900A8F708A
:201E00008830E1F491111AC08091600A8823B1F05AEF852E51E0952EC12CD12CB601C4019C
:201E20000E9428052FEFC21AD20A36E8830E911C80E1C816D10491F71092600A8091900A4E
:201E40008F70813019F48AEF91E083D88091F901882309F4C1C0823079F118F4813041F042
:201E60006DC1833009F46FC0843009F498C066C161E083E190E00E9445018091880A8F7086
:201E8000813051F48091F801882319F01092F80103C01092F90152C18091700A8F70813046
:201EA00019F482E08093F9018091710A8F70813009F044C184E08DC061E08CE090E00E94FC
:201EC0004501E091AA0A8FEF8E0F803118F4E93040F401C0E1E0F0E0EE0FFF1FE25DFE4F79
:201EE00005C0F0E0EE0FFF1FE25EFE4F61E0808191810E9445018091830A8F70813019F40E
:201F000083E08093F9018091880A8F70813011F48093F90128E2C22E21E0D22EBB24B394CB
:201F2000D601ED916D01F0E0E059F54F80818F70813021F4B092AA0A0E941F05B394B9E02F
:201F4000BB12EECFFBC08091880A8F70813011F48093F9018091830A8F70813019F482E01A
:201F60008093F901B8E2CB2EB1E0DB2E89E0B82E92E0A92ED601ED916D01F0E0E059F54F7F
:201F800080818F70813031F4B092AA0A0E941F05A092F901B394B1E1BB12ECCFCFC06091A2
:201FA000AB0A81E0682780E190E00E94450180918B0A8F70813039F49091AB0A89278093A7
:201FC000AB0A0E941F058091880A8F70813009F0B5C08093F901B2C0112329F06A81CE013F
:201FE00004961EDCABC08B2D8F7011F01ADEA6C08A2D8F7051F06091980A62FB662760F9FF
:2020000080E190E00E94450199C0002309F48DC06091980A62FB662760F983E190E00E94F5
:2020200045018C81882309F498C0E0915A0AF6E8DF2EDE9EF0011124E758FD4F808190E0EF
:20204000019761E0877099270E94450161E08CE090E00E944501E0915A0ADE9EF00111248C
:20206000E758FD4F808190E00197A3E095958795AA95E1F761E0892B09F460E08DE090E0DD
:202080000E944501E0915A0A26E8E29FF0011124E758FD4F808190E00197E4E09595879530
:2020A000EA95E1F761E0892B09F460E08EE090E00E944501E0915A0A36E8E39FF001112436
:2020C000E758FD4F808190E061E049970CF460E08FE090E00E9445018091780A8F70813099
:2020E000E1F590916F0AE0915A0A992391F08093600A86E8E89FF0011124E758FD4F80813A
:202100008F5F808391E0803409F490E090936F0A15C096E8E99FF0011124E758FD4F808311
:202120008093600A80936F0A09C0AE014E5F5F4FBE016D5F7F4FCE01049611DCD090F901BA
:20214000DD2069F061E08091990A0E949E014091890A4F704130B1F525C0D090F90177E61D
:20216000872E71E0972EA12CB12CD40113969C91E92FF0E0E059F54F80818F7041F09930E0
:2021800009F02CC38091770A8F7009F427C3BFEFAB1ABB0AE4E08E0E911CF0E1AF16B1044F
:2021A00021F7D0CF21E0D21203C01092F9010AC0D11008C08A81482760E070E08AEF91E0BD
:2021C0000E94DE078091F90181115AC040918B0A4F70413019F48C81811105C340918A0A52
:2021E0004F70413019F48C81811106C38091880A8F70813009F03DC001113BC0E0E7FAE043
:2022000080E091919F7039F000915A0A087F080F0F3F29F42EC08F5F883099F72AC036E8DA
:20222000039FC001112486509E4F0E94880381E08093600A80915A0A081308C08AEF91E0F6
:202240000E94A90710925D0A10925C0A0FB6F89480919E0E90919F0EA091A00EB091A10E70
:202260000FBE8093660A9093670AA093680AB093690A8091890A8F70883011F410926F0AA4
:20228000FF2041F08091980A8F5F68E10E94C9269093980A8091900A8F7001E0883009F072
:2022A00000E021E0813009F020E040916E0A6A818F2D39D7FF2059F18A81882341F1809131
:2022C0005E0A8F5F66E00E94D52690935E0A91111EC08AEF91E00E942A070E94A1246093A3
:2022E000620A7093630A8093640A9093650A609100018AEF91E00E940C1A80915A0A96E858
:20230000899FF0011124E458FD4F6081E5D48091F901811185C18091910A8F70813009F015
:202320008CC09C818A81992309F446C08111B6C080915C0A90915D0A8130910559F58091BD
:202340005A0A06E8089FC001112486509E4F0E94F803C0905A0A0C9DC0011124DC01A65008
:20236000BE4F6D01CD010E944B03813009F065C08AEF91E00E94D20700910001A02EB12CB3
:20238000A80EB11CB0E8AB16B104C8F16FE7A62EB12C35C0029709F081C08AEF91E00E9498
:2023A0002A070E94A1246093620A7093630A8093640A9093650A41C0811139C08AEF91E02D
:2023C0000E942A078823C9F18AEF91E00E94D20700910001A02EB12CA80EB11CE0E8AE1614
:2023E000B10418F05FE7A52EB12CC0905A0AF6E8CF9EC00111249C0126503E4F6901C60164
:202400000E94C402882319F04FE7F42E02C030E5F32EC6010E94F0020C5F800F80936C0A72
:2024200081E080936D0A6F2D8A2DFED606C08AEF91E00E942A078093AF0A8091910A8F7090
:20244000883061F510926D0AD5D68A81811126C08C81882339F080915C0A90915D0A0197AF
:2024600009F4D3C180915C0A90915D0A0297B1F480915A0A36E8839FC001112486509E4F20
:20248000FC01EE57FF4F2081318133273397808190E00197281739070CF0EBC18091F901FA
:2024A0008111BEC01111BCC08C81882309F4B8C0E110B6C080915C0A90915D0A029719F534
:2024C00080917B0A8F70813009F4DBC10A810111DDC10E9457098111D9C180915A0AA6E8B1
:2024E0008A9FC001112486509E4FFC01EE57FF4F2081318133273397808190E001972817AB
:2025000039070CF0C8C180915C0A90915D0A019709F04CC00E944709082F8A81811102C0D2
:20252000002319F1682F0E9468098A81811118C00023D9F08AEF91E00E94D207209100014C
:2025400090E0820F911D8038910510F08FE790E020917A0A2F7011F06FE701C060E564D62D
:202560008A81811103C0011101C044D68A8181111DC080915A0AB6E88B9FC001112486508B
:202580009E4FFC01E058FF4FDC01A158BF4F8C9190E00197208131812817390754F041E08B
:2025A00060E070E08AEF91E00E94DE078A81811125C080915C0A90915D0A0197029708F56B
:2025C00080917F0A8F708130E1F48AEF91E00E944B0880915C0A90915D0A019779F4A090C9
:2025E0005A0AE6E8AE9EC00111249C0126503E4F5901C9010E944B03811155C18A8181116E
:2026000012C080915C0A90915D0A019709F041C080917F0A8F708830E1F510926B0AEAD55A
:202620008A818823B1F100915A0A36E8039F8001112406501E4FC8010E94F0029091000195
:202640009C5F890F803408F08FE38093B20A8AEF91E00E94B9068093B10AF090610AF110F5
:2026600006C0C8010E94C40291E0811101C090E09093B00AF11009C080915F0A811106C0B6
:2026800081E090915E0A93300CF080E08093AF0A7EC080915A0AA6E88A9FC001112486502F
:2026A0009E4F0E94F002009100010C5F080F0ED3F82E80916D0A882319F000916C0A1CC05F
:2026C00080916B0A882319F000916A0A15C08C818823A1F0E11012C08091F90181110EC06F
:2026E00011110CC080915C0A90915D0A019731F40E944709882311F0FF24F39480917B0A52
:202700008F7019F4E6D2182F01C011E0FF2069F180916D0A811111C080916B0A81110DC0B3
:202720008C81882311F180915C0A90915D0A0197E1F40E9447098823C1F0111116C080911C
:202740005A0AB6E88B9FC001112486509E4FFC01E058FF4F2081FC01E20FF11D80818F3FA5
:2027600021F0182F111F1127111F003408F00FE30093B20A1093B10A80917A0A8F7011F405
:20278000A2D201C081E08093B00AF092AF0A8091900A8F70883029F480916E0A882309F4EB
:2027A000ABC08091990A8F5F8093990A0E9427010F900F900F900F90DF91CF911F910F91F0
:2027C000FF90EF90DF90CF90BF90AF909F908F9008958093F9018093F801E3CA61E0C501D7
:2027E0000E944501D4CC8A81482762E070E08AEF91E00E94DE07F2CC8A81482761E070E00B
:202800008AEF91E00E94DE07F1CCC0905A0AE6E8CE9EC00111249C0126503E4F6901C901D2
:202820000E94AA03082FF601EB57FF4F1082560130E8A30EB11CD5016C916F73C6010E94EE
:20284000C50390E0F50191838083329691838083202F30E02817390709F004CE41E060E04A
:2028600070E08AEF91E00E94DE078A81811116CEF9CD41E060E070E08AEF91E00E94DE072E
:202880000DCE8AEF91E00E94150920CE602F802F0E94870A38CE41E060E070E08AEF91E0B3
:2028A0000E94DE0730CE8AEF91E00E94D20700910001C02ED12CC80ED11CF0E8CF16D1045C
:2028C00018F09FE7C92ED12CC5010E94C402811110C020E5F22EC5010E94F0020C5F800F6D
:2028E00080936A0A81E080936B0A6F2D8C2D9CD485CE8FE7F82EEFCF1092AF0A8AEF91E0B1
:202900000E94A90760E080915A0AE6D14ACF81E08093AA0A8093AB0A0FB6F89480919E0EE2
:2029200090919F0EA091A00EB091A10E0FBE8093660A9093670AA093680AB093690AE9E7EB
:20294000F2E090E181E090838683EA57FF4F2AE0E93DF207C1F710925A0A10925B0A109298
:202960005D0A10925C0A8FEF80935E0A10925F0A1092600A1092610A1092620A1092630AAE
:202980001092640A1092650A08954091D00A5091D10A9A012F5F3F4F211592E0390710F073
:2029A00020E030E06091CE0A7091CF0A2617370751F0FA01EE52F54F80833093D10A2093D5
:2029C000D00A81E0089580E008954091BB0AE4ECFAE090E0941731F12191281321C0E42FC4
:2029E000F0E03197292F30E02E173F07ACF4B9016F5F7F4FDB01AC53B54F8C91D901AC5381
:202A0000B54F8C93DB01A454B54F8C91D901A454B54F8C939F5FE6CF41504093BB0A089530
:202A20009F5FD8CF0895EF92FF920F931F93CF93DF937C018B0180EFA8DF882399F0E701FF
:202A40000E0D1F1DC017D10729F089919EDF8111F9CF08C087EFDF91CF911F910F91FF9079
:202A6000EF9093CF80E0DF91CF911F910F91FF90EF900895CF93DF9300D01F92CDB7DEB7DC
:202A80009DE7998394E19A838B8363E070E0CE010196C9DF0F900F900F90DF91CF9108950B
:202AA000AF92BF92CF92DF92EF92FF920F931F93CF93DF93CDB7DEB7C851D1400FB6F894E4
:202AC000DEBF0FBECDBFE091D40CF091D50C309709F47CC08F7066E8869FE00DF11D1124AB
:202AE00090E8DE01A756BF4F01900D929A95E1F79E0127563F4FAE01475E5E4FF90190E028
:202B0000619196274E175F07D9F74DE7498341E14A838B83892F8F778C83991F9927991F71
:202B20009D8340E050E0E0E8F0E087E001E010E0D90160E070E090E0FD90F7FE07C07801B9
:202B4000062E01C0EE0C0A94EAF79E296F5F7F4F681790F37A017FEFE71AF70AA6E0B0E0A1
:202B6000AC0FBD1FA40FB51F9C93DA011696AA24A394B12CAC0EBD1EAA0EBB1E690190E09F
:202B8000D6016D916D016F77D5016D935D019F5F8913F6CF8150682F70E04E5F5F4F460F11
:202BA000571F6E0D7F1D3797295F3F4FEB3FBFEFFB0739F0E730F10510F48E2FB9CF87E0E4
:202BC000B7CF6A5F7F4FCE0101962DDFC85EDE4F0FB6F894DEBF0FBECDBFDF91CF911F914C
:202BE0000F91FF90EF90DF90CF90BF90AF9008958091CD0A8823B9F02091CE0A3091CF0ACF
:202C00008091D00A9091D10A2817390761F48091CC0A803118F01092CD0A089591E0980F2B
:202C20009093CC0A3DCF0895CF93DF93FC012CED260F213308F044C0822F6CE00E94C926F5
:202C4000843009F483E09CE0899F201911242D3008F02CE09DE0899F200D1124443610F468
:202C600060E001C060E4DF01A05AB74F8C91A82FB0E0AF0196E8899F400D511D1124EA017A
:202C8000C058DF4F88818F7390E0EA01C80FD91F38813F3F11F0307801C030E076E87A9F91
:202CA000A0017B9F500D11244E0F5F1FDA01A80FB91F262B232B2C93EA59F74F81E0808337
:202CC000DF91CF9108958091BA0A08958091B90A08958091B80A0895CF93DF9300D000D0C0
:202CE000CDB7DEB79DE7998395E19A838F708B836F736C8364E070E0CE01019694DE0F909F
:202D00000F900F900F90DF91CF9108951F93CF93DF93EC01162FEAA5FBA54FEF60E470E0B0
:202D2000808191810E9400211CA71EA61DA61DAA1CAA1BAA1AAA8FEF9FEF9FAB8EAB99AF86
:202D400088AF0FB6F89480919E0E90919F0EA091A00EB091A10E0FBEFE01EE5BFE4F80832C
:202D60009183A283B383339710821CAE1BAE1DAE1EAE3196118210828AAD81708260816087
:202D80008AAFDF91CF911F910895813108F081E08093D20C60930101811102C060E001C097
:202DA000682F86ED9CE0B2DF1092100D08954F925F926F927F928F929F92AF92BF92CF9277
:202DC000DF92EF92FF920F931F93CF93DF93CDB7DEB7C258D1090FB6F894DEBF0FBECDBFF4
:202DE000FC016430710508F444C18081803F09F040C1DF01A60FB71F11978C91873F09F022
:202E000038C19B01225031090091D40C1091D50C0115110509F42DC12230310509F429C1F8
:202E200091819D3709F025C18281833109F4DEC028F4803151F0823159F01BC1803209F4E6
:202E4000DCC0823209F4DCC014C183818F70CCC02839310510F481E00BC17380958120E84C
:202E6000929FC00111249481982B675071099F012A5F3F4FE0E0F0E040E050E05A018FEFB2
:202E8000A81AB80A420F531FDA018C90EE24E394F12CEC0EFD1EEE0EFF1E6901CA0CDB1CE9
:202EA000A501412C512C912CE038F10538F54617570788F64F5F5F4FD6016D906D0154015E
:202EC000042C02C0B694A7940A94E2F7A0FC02C080E001C080E88629D7018D937D01319631
:202EE000BFEF4B1A5B0A87E048165104E9F6E038F10521F04617570708F2ADCFFE0131964B
:202F00005E01A1E8AA0EB11C80E021918227EA15FB05D9F798139FCFC058DF4F8881C0583A
:202F2000D0408150803408F0A2C0B72DBF709B2E8090D30CCB2ED12C7801E6E8BE9FE00C51
:202F4000F11C112480E8FE013196D70101900D928A95E1F7C7010E945F04F701E058FF4FB7
:202F6000D701A158BF4F8C9190E0208131812817390714F01182108226E82C9DC0012D9D88
:202F8000900D1124080F191FF801EE57FF4FD801A158BF4F8C9190E0208131812817390745
:202FA00014F01182108281E08826C1F0D694DC2CCC24D794C794860100581F4FD394C01676
:202FC000D10661F0D7016D917D01F50111830083C5010E946C020F5F1F4FF1CF80E04ADD6F
:202FE000882009F446C0892D5BDD43C01092CC0A81E08093CD0AFCDD3CC08091AB0A2AC0ED
:2030000023303105B1F193818481913110F49093AA0A81708093AB0A6091AA0A80E190E0A0
:203020009A838983CE0101960E946C026091AB0A81E190E09A838983CE0101960E946C02DA
:203040006091AB0A8091AA0AA0DE80E013DD8091AB0A9DE7998391E29A839091AA0A9B834E
:203060008C8364E070E0CE010196DDDC02C082E001DDCE57DF4F0FB6F894DEBF0FBECDBFF2
:20308000DF91CF911F910F91FF90EF90DF90CF90BF90AF909F908F907F906F905F904F907C
:2030A00008959093D50C8093D40C4FEF60E470E088E29EE00E94002160E086ED9CE026DECC
:2030C0001092100DE6EDFCE087ED96E1938B828B85EA99E19783868383E499E19583848360
:2030E0001092CF0A1092CE0A1092D10A1092D00A1092CD0A0895DC018D919C91DC01ED9149
:20310000FC910190F081E02D09946D3F28F46A3F28F4683F39F402C06E3F20F0FC01808198
:203120009181E9CF08950F93CF93DF93411119C0C62FD82F222321F06AEF80E09DE0E5DF3B
:20314000002321F06CEF80E09DE0DFDFDD2349F0CC2339F068EF80E09DE0DF91CF910F9150
:20316000D4CFDF91CF910F910895EF92FF920F931F93CF93DF930150003108F567FF1FC0A1
:20318000D22F142FC62F7C01602F6C2BFC0182A593A5B1DF612F6F77F70182A593A5ABDF10
:2031A000CF7EC03C61F06D2F6F77F70182A593A5DF91CF911F910F91FF90EF909CCFDF9193
:2031C000CF911F910F91FF90EF9008950F93613E10F4CBDF05C0683F18F08A960F9195CF0D
:2031E0000F9108950F93022F242F462F60E8BDDF0F9108958091B50A882369F02091D20C73
:20320000211101C021E040E06091B60A86ED9CE0E9DF1092B50A08950F93022F242F462F99
:2032200060E9A3DF0F910895CF93DF93C82FD62F8091B50A882369F06091B60A6C1749F075
:203240002091D20C211101C021E040E086ED9CE0C9DF8091B50A882321F08091B60AC817F8
:2032600079F02091D20C211101C021E04D2F6C2F86ED9CE0D1DFC093B60A81E08093B50A66
:20328000DF91CF9108950F931F93CF93DF939091D20C992311F0981353C09091D30C91117D
:2032A00046C0C62FD82F1091B70A862F8EDBC1132FC04091BB0A442359F150E04150510967
:2032C000FA01EC53F54F1081FA01E454F54F00812D2F402F612F86ED9CE09EDF2D2F40E0A4
:2032E0006C2F86ED9CE07EDF1093B70A81E08093B80A8093B90A8091D40C9091D50C0097ED
:20330000F9F0402F612FDF91CF911F910F918CCC2D2F40E06C2F86ED9CE064DFC11310C060
:203320001092B90A1092B80A1092B70A09C0282F40E086ED9CE0DF91CF911F910F9152CFF1
:20334000DF91CF911F910F910895FF920F931F93CF93DF93442309F459C09091D20C9923BF
:2033600011F0981353C0D42FC62F182F8091D30C81113AC00091B70AF090B90A862F25DB89
:203380008091BB0A883068F4282F30E0F901EC53F54FC083F901E454F54FD0838F5F809352
:2033A000BB0A212F4D2F6C2F86ED9CE0FF2069F0C01759F031DF212F40E0602F86ED9CE05C
:2033C00011DF81E08093B80A03C026DF1092B80A81E0D43608F480E08093BA0A81E0809389
:2033E000B90AC093B70A04C0212F86ED9CE014DF8091D40C9091D50C009741F04D2F6C2F2E
:20340000DF91CF911F910F91FF900ECCDF91CF911F910F91FF9008952F923F924F925F9273
:203420006F927F928F929F92AF92BF92CF92DF92EF92FF920F931F93CF93DF9300D01F9209
:20344000CDB7DEB77C0169837090D20C711002C077247394F701E959F74F80811091B30A48
:20346000882369F0112309F406C1272D40E06091B40A86ED9CE0B6DE1092B30AFCC0F70197
:20348000E05AF74F8081A82EB12C670126E8829FC00CD11C1124C6010E94F0028C5D398175
:2034A000232F30E0280F311D3B832A832038310520F08FE790E09B838A8326E82A9DC00175
:2034C0002B9D900D11248E0D9F1DFC01E058FF4F20813181FC01E20FF11D40814F3F49F0A1
:2034E000FC01E20FF31F808186FF03C09FE7592E02C080E5582E112309F4A3C03090B40AB7
:20350000832D90E02A813B818217930709F4B3C086E88A9D40018B9D900C11248E0C9F1C5D
:20352000F401E158FF4F608031E0361508F079C0339600811181602FC6010E94D7028983E9
:203540008823B1F1F401EB57FF4F8081811130C0862C912CC801880D991D0197B4010E94A4
:20356000F626282E412C622DC6010E94D7028823F9F0222D30E0813081F446E84A9DC001AC
:203580004B9D900D11248E0D9F1DFC01E20FF31F808180588F3710F10BC0C901880D991D9A
:2035A0000197B4010E94F626282E43946410DBCF86E88A9DF0018B9DF00D1124EE0EFF1EBC
:2035C000F701EB57FF4F808181112BC08981813041F544C08130E1F4BB2019F1272D452DBF
:2035E0006A8186ED9CE018DE272D40E06091B40A86ED9CE0F7DD21C0823061F7C701810FD2
:20360000911D0197B7010E94F626182FBB24B3940F5F601631F0612FC6010E94D702811118
:20362000EBCF272D40E0632D86ED9CE0DBDD272D452D6A8186ED9CE0EFDD9A819093B40ABD
:203640001AC0272D452D6A8186ED9CE0E5DD2A812093B40A81E08093B30A0DC0E62CF12CE5
:20366000C8018E0D9F1D0197B7010E94F626182FB12C00E0D0CF0F900F900F90DF91CF91CC
:203680001F910F91FF90EF90DF90CF90BF90AF909F908F907F906F905F904F903F902F90B8
:2036A0000895CF93DF93EC01E881F981309711F0CB9609958CAD823F09F494C050F5803CB6
:2036C00009F476C098F4803909F443C030F4803809F0A5C0EC81FD8163C0803A09F45EC055
:2036E000803B09F09CC0EA85FB855AC0803E09F442C030F4803D09F092C0EE85FF855AC0B7
:20370000803F09F45EC0813F09F089C0EC89FD8979C08A3F21F190F4863F09F479C030F41B
:20372000833F09F07CC0E88DF98D6CC0883FA1F0893F09F074C0E8A1F9A16CC08C3FA9F06B
:2037400088F08E3FA9F08F3F09F069C0E8A5F9A561C0EE81FF8124C0EC8DFD8D5BC0EE8DE3
:20376000FF8D58C0EAA1FBA155C0ECA1FDA152C0EEA1FFA14FC0E889F989309709F44FC028
:203780006EAD6F7720E8629FB00111248DAD8F77682B70528BADDF91CF910994E885F98514
:2037A0003097E9F14EAD6DAD8BADDF91CF910994EC85FD85309799F16DAD8BADDF91CF9148
:2037C0000994EA89FB89309751F16DAD7EAD613081E0780710F060E071E0CE01CF96DF9161
:2037E000CF910994EE89FF893097C9F08EAD8F7720E8829FC00111242DAD2F77822BDF9150
:20380000CF910994309759F08DADDF91CF910994EA8DFB8D309719F0DF91CF910994DF9148
:20382000CF910895EF92FF920F931F93CF93DF93EC019AAD292F217090FF89C0892F8E7F97
:2038400009F485C0362F6CAD80E8860F8136D0F40BAD031719F021E0311120E09695923025
:2038600031F0933041F0913009F071C006C0222309F46DC002C021116AC02EAD4DADCE0151
:20388000A5DC65C0862F90E0FC01E05FF109E031F10508F05CC0E45BFF4F0C940927CE01E0
:2038A0008A96DF91CF911F910F91FF90EF902DCC8E01015C1F4F78018DAD9EAD813021E0B7
:2038C000920710F080E091E0080F191F0E151F0509F43DC0F70161917F018AA59BA50BDC2E
:2038E000F5CF1DAD63EF8AA59BA505DC612F16C00EADF0E80F9F800111248DAD082B62EF7D
:203900008AA59BA5F8DB602F6F778AA59BA5F3DB000F012F001F110B1195602F6F770EC050
:203920008DAD877020E1829FC00111241EAD1F70182B61EF8AA59BA5DEDB612F8AA59BA52A
:20394000DF91CF911F910F91FF90EF90D4CBDF91CF911F910F91FF90EF900895982F8F7CFD
:20396000803849F0903D39F081E0903E31F0903C21F080E0089581E00895089587FF0AC04B
:203980009CE0980F923030F08D3F21F0803F18F4807F089580E0089588E29EE09093270EA1
:2039A0008093260EE6EDFCE011821082138212821582148217821682118610861386128607
:2039C0001586148617861686118A108A138A128A158A148A178A168A118E108E138E128E0F
:2039E000158E148E178E168E11A210A213A212A215A214A217A216A211A610A686E29EE03A
:203A000093A782A714A615A616A613AA12AA15AA14AA8FEF9FEF97AB86AB91AF80AF83E0CB
:203A20008093100D13AE14AE15AE16AE1092150E80E091E0E5E1FDE0DF019C011D92215076
:203A40003040E1F71092180E1092190E10921A0E10921B0E10921C0E10921D0E10921E0E91
:203A600010921F0E1092200E1092210E1092220E1092230E1092240E1092250E08952F922A
:203A80003F924F925F926F927F928F929F92AF92BF92CF92DF92EF92FF920F931F93CF93F3
:203AA000DF93CDB7DEB72B970FB6F894DEBF0FBECDBF8C01662E7A0119019093D50C8093A5
:203AC000D40C662361F08091D30C811108C01092BB0A1092B90A1092B80A1092B70A60925D
:203AE000D30CD1011C9280910101811102C0F7011082611011C08091B30A882369F02091B1
:203B0000D20C211101C021E040E06091B40A86ED9CE068DB1092B30ACC24C394D12C90EFB0
:203B2000492E5801F0EAAF1AF7EFBF0A98012C59374F3A832983C8018B59974F9C838B8396
:203B4000D801A959B74FBE83AD83F801E859F74FF887EF83235031093A8729875090020D95
:203B600030E1351508F4D9C1E091000DF091010D80819181DC01ED91FC910084F185E02D45
:203B80000995892B09F4C9C18091250E8E7F8093250EE091000DF091010D80819181DC01B8
:203BA000ED91FC910284F385E02D09958B878D3F09F4B3C180910A0D90910B0D009709F011
:203BC0006EC0BB85B093050D9090030D892DD6DEC5DE882359F0EB85E7FD08C09092050DA1
:203BE000E093060DD0920B0DC0920A0DF091050DFB878F2FC3DE813FC9F1B0F4803BE9F135
:203C000040F48039D1F1803AC1F1803809F05BC034C0803D59F118F4803C41F154C0803EF6
:203C200061F1803F89F14FC0873F71F130F4833FE9F018F1863F31F046C08D3F18F08E3F6D
:203C400008F441C08093120D1092110D1092130D1092140D21E02093150E10920B0D1092BD
:203C60000A0D1092090D1092080D38C1A2E0B0E0B093090DA093080D3DC0E3E0F0E0F093FF
:203C8000090DE093080D36C020E031E03093090D2093080D1092030D8093150D2BC0AB85DC
:203CA000A7FF91C0AD3F08F05AC0A83F08F05AC0A03F09F050C02091150D203F09F463C0DC
:203CC000273F09F460C08091250E81608093250EE091D80CF091D90C309709F0099510923B
:203CE0000B0D10920A0D1092090D1092080D1092030D13C120910A0D30910B0D4091080D77
:203D00005091090D4150510924173507E8F08093120D3B853F703F5F3093110D8091060D2E
:203D20008093130D1092140DD092170EC092160E10920B0D10920A0D1092090D1092080DAE
:203D400041E04093150ECAC02F5F3F4F30930B0D20930A0DE2C0A73F09F4ADCF34C0BB85CC
:203D6000BE3F88F1EB85E093120D1092130D1092140D1092110DD092170EC092160EF1E0B8
:203D8000F093150EABC09C012F5F3F4FFC01EA52F34F4B8547AF4092120D2093130D309391
:203DA000140D1092110D3093170E2093160E81E08093150E10920B0D10920A0D1092090DA1
:203DC0001092080D82C02091050DFC01EA52F34F203F11F0273F19F4AB85A7AF02C0BB8551
:203DE000B7A78090080D9090090D9401215031098217930708F46CC07090050DE0EF7E16FA
:203E000019F0F7EF7F1223C02091140E298380EF8093140E8093120D1092130D81E08093B4
:203E2000140D1092110D20E031E03093170E2093160E8093150E86ED9CE033DC87EF809314
:203E4000150D39813093160D82E090E042C0872D95DD8B878093120D81DD882331F0872D84
:203E60008F708F5F8093110D02C01092110D8091060D8093130D43E08416910419F48091DB
:203E8000070D01C080E08093140D10920B0D10920A0D1092090D1092080D81E08093150E40
:203EA0009B85903B79F038F4903961F0903A51F0903859F407C0AB85A03D21F0A03E11F084
:203EC000A03C19F47092030D09C01092030D06C0019690930B0D80930A0D1FC08091120D9B
:203EE000803929F48091140D882309F4A8C08091120D8058813608F0A6C08091110D5816F0
:203F000009F4A1C0552009F49EC01B86652D86ED9CE088DCBB85B11114C02091CE0A3091CD
:203F2000CF0A8091D00A9091D10A2817390709F49BC088E29EE0DDD0181619060CF4AEC09A
:203F400093C08091120D883F51F020F4803C09F46DC004CE8A3F61F08C3FC1F1FFCD809196
:203F60000101882309F4FACD21E0F1012083F6CD80910101882309F4F1CDE1E0D701EC93E6
:203F8000D5018C91F80126E8829FE00DF11D1124E058FF4F11821082329611821082329676
:203FA00031E03083319630838FEFA981BA818C93EB81FC811082AD81BE813C93C2D4EF8104
:203FC000F8856083718382839383C8CD80910101882309F4C3CDD7011C92F501808198017C
:203FE00046E8849F200D311D1124F901E058FF4F118210823296118210823296A1E0A083C2
:204000003196A0838FEFE981FA818083AB81BC811C9221E0ED81FE81208393D4AF81B885D4
:204020006D937D938D939C93139798CD8091D20C882379F09091110D891390CD0AC0F0E835
:20404000F093120D54CF86ED9CE02BDB21E02B875DCF8091130D8F70A985BA858C9361109A
:204060007DCDF50180837ACD2B960FB6F894DEBF0FBECDBFDF91CF911F910F91FF90EF9080
:20408000DF90CF90BF90AF909F908F907F906F905F904F903F902F900C94F815E091CE0A16
:2040A000F091CF0AEE52F54F608188E29EE061D08091CE0A9091CF0A01969093CF0A80939F
:2040C000CE0A8115924008F428CF1092CF0A1092CE0A23CF50915C0E40915B0E852F90E01D
:2040E000242F30E0541710F4805C9F4F821B930B08955091320E4091310E252F30E0842F04
:2041000090E0821B930B541710F0879608950197089580915C0EE0915B0E8E1751F0EF5F11
:20412000E03408F0E0E0F0E0E35AF14F808190E008958FEF9FEF089590915C0E80915B0EAA
:20414000981779F090915B0E9F5F903408F090E0E92FF0E0E35AF14F808190935B0E90E031
:2041600008958FEF9FEF08958091300E8111FCCF08952091C90023FD06C021E0FC012283AD
:2041800080E090E00895809102018F3F21F08091300E882399F09091320E8091310E9813E0
:2041A00012C08091C80085FF0EC08FB7F8946093CE0091E09093300E8FBF1DC0E0910201FE
:2041C000F0E095D1E8CF8091320E8F5F8832B0F49091310E9817E1F3E82FF0E0ED5CF14F02
:2041E000608391E09093300E8093320E8091C90080628093C90081E090E0089580E0E8CF9A
:204200001F93CF93DF93EB01142F409302014F3F29F0842F2ED1E12FF0E06FD1C0FF08C013
:20422000C13080E1D80720F482E08093C80004C01092C800D695C7952197D093CD00C093CC
:20424000CC008091C90083FD10C010925C0E10925B0E1092320E1092310E1092300E86E048
:204260008093CA0088ED8093C900DF91CF911F9108951F920F920FB60F9211240BB60F92A4
:204280002F938F939F93EF93FF939091CE0080915C0E8F5F803408F080E020915B0E8217DD
:2042A00039F0E82FF0E0E35AF14F908380935C0EFF91EF919F918F912F910F900BBE0F90BA
:2042C0000FBE0F901F9018951F920F920FB60F9211240BB60F928F939F93EF93FF9390913E
:2042E000320E8091310E981306C08091C9008F7D8093C9000FC08091310E8F5F883208F03C
:2043000080E0E82FF0E0ED5CF14F90819093CE008093310EFF91EF919F918F910F900BBEB1
:204320000F900FBE0F901F9018951F920F920FB60F9211240BB60F928F93EF93FF931092EF
:20434000300E809102018F3F21F0E0910201F0E0D4D0FF91EF918F910F900BBE0F900FBE40
:204360000F901F901895E8E2FEE0128288EE93E0A0E0B0E083839483A583B683178289EE7F
:2043800091E0918380830895CF92DF92EF92FF920F931F93CF93DF936C01EB017B01E40E25
:2043A000F51E00E010E0CE15DF0561F06991D601ED91FC910190F081E02DC6010995080F9B
:2043C000191FF1CFC801DF91CF911F910F91FF90EF90DF90CF90089526D00E94D70A0E9468
:2043E000960EFDCF1DBA109268001CBC10BE1FBA10927A0010926E0010926F00109270009E
:20440000109271001092C9001092BC0011B814B817B81AB81DB810BA12B815B818B81BB8B1
:204420001EB811BA0895F894E1E6F0E020E82083108283E084BD85BDEEE6F0E08081816072
:20444000808391E09093800082E0809381009093B0008093B100909390008093910086E8F3
:2044600080937A0020937B0010927E0089D2789408958E3270F4E8EBF0E0880FE80FF11DFA
:204480002591E491F0E09FB7F8948181822B81839FBF08958E3238F59AED980F983048F472
:2044A000E4E1F1E0990FE90FF11DA591B0E0959103C09FEFA0E0B0E0E8EBF0E0880FE80F3A
:2044C000F11D2591E491F0E04FB7F8943181822F8095232F28232183228182238283EC91BE
:2044E0009E239C934FBF0895002039F000C0EE3250F4EE0FEC57FD4D0994EE3220F4EE0F5C
:20450000E052FD4D09940895589AB6C0599AD0C05A9A08955B9A08955C9A08955D9A0895B0
:204520005E9A08955F9A0895709A0895719A0895409A0895419A0895429A0895439A08951F
:20454000449AC8C0459AC0C0469AB8C0479A0895769A0895779A0895289A0895299A0895A6
:204560002A9A08952B9A08952C9A9CC02D9A88C02E9A8CC02F9A90C0109A0895119A08958B
:20458000129A0895139A0895149A0895159A0895169A0895179A0895749A0895759A0895FF
:2045A000889A0895899A08958A9A08958B9A08958C9A08958D9A08958E9A08958F9A0895E7
:2045C00058985AC0599874C05A9808955B9808955C9808955D9808955E9808955F98089543
:2045E00070980895719808954098089541980895429808954398089544986CC0459864C08D
:2046000046985CC047980895769808957798089528980895299808952A9808952B98089553
:204620002C9840C02D982CC02E9830C02F9834C0109808951198089512980895139808957A
:20464000149808951598089516980895179808957498089575980895889808958998089562
:204660008A9808958B9808958C9808958D9808958E9808958F980895E4B5EF7DE4BD08956E
:20468000E0918000EF77E09380000895E0918000EF7DE09380000895E0918000E77FE0937C
:2046A00080000895E091B000EF77E093B0000895E091B000EF7DE093B0000895E091900048
:2046C000EF77E09390000895E0919000EF7DE09390000895E0919000E77FE09390000895C0
:2046E000EE3258F4EE0FEE0FFF27EC3718F4EF57FC4D0994ED57FC4D0994EE270895E1E036
:204700000895E9B1E170D9F70895E9B1E270B9F70895E9B1E47099F70895E9B1E87079F7EE
:204720000895E9B1E07159F70895E9B1E07239F70895E9B1E07419F70895E9B1E078F9F6CF
:204740000895ECB1E170D9F60895ECB1E270B9F60895E6B1E17099F60895E6B1E27079F6BB
:204760000895E6B1E47059F60895E6B1E87039F60895E6B1E07119F60895E6B1E072E9F5AF
:204780000895E6B1E074C9F50895E6B1E078A9F50895ECB1E07489F50895ECB1E07869F5AD
:2047A0000895E3B1E17049F50895E3B1E27029F50895E3B1E47009F50895E3B1E870E9F4AF
:2047C0000895E3B1E071C9F40895E3B1E072A9F40895E3B1E07489F40895E3B1E07869F492
:2047E0000895E0B1E17049F40895E0B1E27029F40895E0B1E47009F40895E1E00895E0B155
:20480000E870D9F70895E0B1E071B9F70895E0B1E07299F70895E0B1E07479F70895E0B111
:20482000E07859F70895ECB1E07139F70895ECB1E07219F70895EFB1E170F9F60895EFB1BF
:20484000E270D9F60895EFB1E470B9F60895EFB1E87099F60895EFB1E07179F60895EFB199
:20486000E07259F60895EFB1E07439F60895EFB1E07819F60895F89484B7877F84BF809175
:2048800060008061809360001092600080E29EE40197F1F781E08093E00080E28093D8005D
:2048A00080E69AEE0197F1F79DDD0C9400FEFFCFF89498DD80E69AEE0197F1F70C94000095
:2048C000FFCF8F938FB78F9380919D0E8D5F8D37D0F480939D0E80919E0E8F5F80939E0E28
:2048E000D8F080919F0E8F4F80939F0EA8F08091A00E8F4F8093A00E78F08091A10E8F4F98
:204900008093A10E09C08D5780939D0E80919E0E8E5F80939E0E28F78091A20E8C5F809323
:20492000A20E58F08091A30E8F4F8093A30E28F08091A40E8F4F8093A40E8F918FBF8F910F
:2049400018950FB6F89466B515B27091A20E8091A30E9091A40E0FBE10FE05C06F3F19F0DA
:204960007C5F8F4F9F4F11240024660F001C660F001C702908958091E80080FFFCCF0895FF
:204980008091D80087FF02C085FF1BC081E88093D70080EA8093D80086E189BD09B400FE77
:2049A000FDCF80E98093D8001092E0001092AA0E1092A90E1092A80E1092E1008DE0809347
:2049C000E20008951F920F920FB60F9211240BB60F922F933F934F935F936F937F938F936B
:2049E0009F93AF93BF93EF93FF939091E1001092E10093FF11C01092E90081E08093EB000B
:204A00001092EC0082E28093ED0088E08093F0001092AA0E1092A80E92FF1DC08091AA0E50
:204A20008823C9F08091A70E882359F081508093A70E811106C084E08093E9008AE3809387
:204A4000E8008091A60E882331F081508093A60E811101C010DF90FF0CC080E18093E20052
:204A60001092AA0E81E08093A90E80EA8093D80019BC8091A90E882379F094FF0DC086E1E4
:204A800089BD09B400FEFDCF80E98093D8008DE08093E2001092A90EFF91EF91BF91AF919A
:204AA0009F918F917F916F915F914F913F912F910F900BBE0F900FBE0F901F9018951F92B6
:204AC0000F920FB60F9211240BB60F92EF92FF920F931F932F933F934F935F936F937F9356
:204AE0008F939F93AF93BF93CF93EF93FF931092E9008091E80083FF31C1C091F10080910D
:204B0000F1000091F1001091F100E090F100F090F1004091F1005091F10092EF9093E8009E
:204B2000863009F03FC086E0E4E2F1E0259135910217130711F0359615C025913591E21606
:204B4000F30611F033960EC02591359184914F3F510519F010F04FEF50E0481708F4842FCA
:204B60005EEF08C0815011F7F9C0891B5093E8008823A9F09091E800492F4570D9F392FD4A
:204B8000F0C0982F813208F090E2492F442369F3F90125912093F1009F014150F7CF903239
:204BA00049F3DFC0853041F48EEF8093E800E3DE00680093E300D5C0893001F5C111CEC075
:204BC0000093AA0E1092A80E1092A70E8EEF8093E80081E0E7EEF1E08093E9009591909317
:204BE000EB00992331F095919093EC0095919093ED008F5F853081F78EE1ABC0883049F498
:204C0000C03809F0ABC0B7DE8091AA0E8093F1007EC0813279F4C13A09F0A0C0ACDEE3E0D7
:204C2000F1E080818093F100319681E0EA30F807C1F76DC0803209F047C0C13209F08EC08C
:204C40008091E80082FFFCCFE3E0F1E08091F1008083319681E0EA30F807C1F78BEF8093F0
:204C6000E8008EEF8093E8003091030140910401809105012091060190E0A0E0B0E0DC010D
:204C800099278827942B832BB22B86389105A105B10521F48FE08093A60E63C086399105E8
:204CA000A105B10509F05DC084E08093E9009FEF8091EE00837039F09093E8008091E80075
:204CC00082FDFCCFF5CFF4DD823231F4C13209F045C00093A80E05C0833229F4C13209F05F
:204CE0003DC049DE14C0811116C045DEC23851F4E092E9008091EB0085FB882780F9109251
:204D0000E90001C080E08093F1001092F1008EEF8093E80026C0982F9D7F9130F9F4C23011
:204D2000E9F4012BD9F4CE2DCF779FEF9C0F9630A8F49EEF9093E800C093E900833071F0D9
:204D400089E18093EB0081E090E001C0880FCA95EAF78093EA001092EA0003C081E28093C0
:204D6000EB00FF91EF91CF91BF91AF919F918F917F916F915F914F913F912F911F910F9138
:204D8000FF90EF900F900BBE0F900FBE0F901F901895991B79E004C0991F961708F0961B57
:204DA000881F7A95C9F78095089587FB082E062687FD819567FD6195ECDF0EF4919507FCFD
:204DC00081950895AA1BBB1B51E107C0AA1FBB1FA617B70710F0A61BB70B881F991F5A959D
:204DE000A9F780959095BC01CD01089597FB072E16F4009406D077FD08D0E4DF07FC05D08F
:204E00003EF4909581959F4F0895709561957F4F0895EE0FFF1F0024001C0BBE0790F691F2
:204E2000E02D0994FB01DC0101900D920020E1F70895FB01DC014150504030F08D91019061
:204E4000801919F40020B9F7881B990B0895F999FECF92BD81BDF89A992780B50895262F93
:204E6000F999FECF1FBA92BD81BD20BD0FB6F894FA9AF99A0FBE01960895F894FFCF0C01B0
:204E8000FF00E100000000082A2B2C2D5065775065775065772121330050657750657750DB
:204EA00065772121320000010203040506070000010002000300040005000600070000006A
:204EC0000C0001000D00020003000E0004000F0005001100060007000012011302030C0434
:204EE0000D050E0607262A0100262B0301262C0502262D0603272A0804272B0A05272C0C0D
:204F000006272D0D07282A0008282B0009282C000A282D000B292A0212292B0413292C0781
:204F20000C292D090D0004001B00050B0E0006001A000700191415161718191A1B2627284B
:204F400029040506070001121308090A0B0C0D0E0F10112A2B2C2D262728291415161718B5
:164F6000191A1B00000000B920C4217920B4206A209C20892000D3
:020000040001F9
:20F000000C944CF80C945EF80C945EF80C945EF80C945EF80C945EF80C945EF80C945EF852
:20F020000C945EF80C945EF80C945EF80C945EF80C945EF80C945EF80C945EF80C945EF820
:20F040000C945EF80C945EF80C945EF80C945EF80C945EF80C945EF80C945EF80C945EF800
:20F060000C945EF80C945EF80C945EF80C945EF80C945EF80C945EF80C945EF80C945EF8E0
:20F080000C945EF80C945EF80C945EF80C945EF80C945EF80C945EF811241FBECFEFD0E22A
:20F0A000DEBFCDBF24E0A0E0B1E001C01D92A430B207E1F70E946BF80C940BFA0C9400F8FB
:20F0C000F8948091000090910100019619F0F0E0E0E0099408954F925F926F927F928F9202
:20F0E0009F92AF92BF92CF92DF92EF92FF920F931F93CF93DF930FB6F894A8958091600042
:20F10000886180936000109260000FBE8FEF80BB14B88AB1806F8AB91092CD008FE18093E0
:20F12000CC001092C80080E18093C90086E08093CA0011BA8FE081BB2FEF33EF41E02150D1
:20F1400030404040E1F700C00000199B4FC18BB1806F8BB984E090E061E070E05FEFA1EEB2
:20F16000B4E05150A040B040E1F700C000004BB19B01082E01C0220F0A94EAF7342F3227F7
:20F180003BB9EFEFF1EE44E0E150F0404040E1F700C000003BB132273BB95FEFA1EEB4E077
:20F1A0005150A040B040E1F700C000003BB132273BB9EFEFF1EE44E0E150F0404040E1F773
:20F1C00000C000003BB123272BB901968830910529F683E0582EC0E0D2E011E095E0B92EC9
:20F1E00001E18091C80087FFFCCF2091CE00203F39F4109303041092020410920104F1CF3F
:20F2000080910304882369F3273F09F0D5C080910104909102048230910508F4C5C0209124
:20F2200001022D3709F0C0C020910202213009F0BEC08A30910508F4B7C02091050250E8BE
:20F24000259F9001112440910602242BA901485F5F4F8417950708F4A7C0A090030260903E
:20F26000040270900702809008028BB14091000291E0940F909300028F7060E1469FA00157
:20F280001124842B8BB9912C50E040E090E080E082179307B0F0B0E17B9EC0011124882A44
:20F2A000891409F443C090EF8BB189278BB9EFEFF3EC29E0E150F0402040E1F700C00000E3
:20F2C000F3CFFC01E75FFD4FE081DC01A65FBD4F6D01BA0160507F4F7B01019670E060E044
:20F2E000F0E028173907A1F20196D6014D906D01DF01062E02C0B595A7950A94E2F7B69555
:20F30000BA2FAA27B795A7954A2AD7014D927D014F5F5F4F94244F3F510511F008F0BBCF87
:20F320006F5F7F4F67307105E1F6B2CF30E8A39EC00111248629B0E0A0E0BA2FA92F982F36
:20F3400088276FB7F894F999FECFFC01A0935B0050925700E89507B600FCFDCF20E031E016
:20F360006C017D01F901518140810A01F601E0925B0010935700E89511242E5F3F4FF2E0AD
:20F38000CF0ED11CE11CF11CC217D30759F7FC01A0935B00B0925700E89507B600FCFDCF70
:20F3A00000935700E8956FBF109203041ACF2230D9F70E9460F8F8CF27FD13CF8091010427
:20F3C000909102048115924008F00BCF8091010490910204AC014F5F5F4F509302044093CA
:20F3E00001048F5F9D4FDC012C93FBCE0E9460F890E080E0DF91CF911F910F91FF90EF90D1
:1AF40000DF90CF90BF90AF909F908F907F906F905F904F900895F894FFCF75
:040000050001F00006
:00000001FF
